{
  "contractName": "Lottery",
  "abi": [
    {
      "inputs": [
        {
          "internalType": "uint64",
          "name": "_subscriptionId",
          "type": "uint64"
        },
        {
          "internalType": "address",
          "name": "_cordinatorAddress",
          "type": "address"
        },
        {
          "internalType": "bytes32",
          "name": "_keyHash",
          "type": "bytes32"
        },
        {
          "internalType": "string",
          "name": "_name",
          "type": "string"
        },
        {
          "internalType": "uint256",
          "name": "_ticketPrice",
          "type": "uint256"
        },
        {
          "internalType": "uint32",
          "name": "_minTicket",
          "type": "uint32"
        },
        {
          "internalType": "uint256",
          "name": "_fee",
          "type": "uint256"
        }
      ],
      "stateMutability": "nonpayable",
      "type": "constructor"
    },
    {
      "inputs": [
        {
          "internalType": "address",
          "name": "have",
          "type": "address"
        },
        {
          "internalType": "address",
          "name": "want",
          "type": "address"
        }
      ],
      "name": "OnlyCoordinatorCanFulfill",
      "type": "error"
    },
    {
      "anonymous": false,
      "inputs": [
        {
          "indexed": true,
          "internalType": "address",
          "name": "owner",
          "type": "address"
        },
        {
          "indexed": false,
          "internalType": "string",
          "name": "name",
          "type": "string"
        },
        {
          "indexed": false,
          "internalType": "uint256",
          "name": "ticketPrize",
          "type": "uint256"
        },
        {
          "indexed": false,
          "internalType": "uint256",
          "name": "fee",
          "type": "uint256"
        },
        {
          "indexed": false,
          "internalType": "uint32",
          "name": "minTicket",
          "type": "uint32"
        },
        {
          "indexed": false,
          "internalType": "uint256",
          "name": "configFinishTime",
          "type": "uint256"
        },
        {
          "indexed": false,
          "internalType": "uint256",
          "name": "configTimeToClaim",
          "type": "uint256"
        }
      ],
      "name": "ChangedProperties",
      "type": "event"
    },
    {
      "anonymous": false,
      "inputs": [
        {
          "indexed": true,
          "internalType": "address",
          "name": "winner",
          "type": "address"
        },
        {
          "indexed": false,
          "internalType": "address",
          "name": "owner",
          "type": "address"
        },
        {
          "indexed": false,
          "internalType": "uint256",
          "name": "lotteryIndex",
          "type": "uint256"
        },
        {
          "indexed": false,
          "internalType": "uint256",
          "name": "totalPrize",
          "type": "uint256"
        }
      ],
      "name": "ClaimedExpiredPrize",
      "type": "event"
    },
    {
      "anonymous": false,
      "inputs": [
        {
          "indexed": true,
          "internalType": "address",
          "name": "winner",
          "type": "address"
        },
        {
          "indexed": false,
          "internalType": "uint256",
          "name": "lotteryIndex",
          "type": "uint256"
        },
        {
          "indexed": false,
          "internalType": "uint256",
          "name": "totalPrize",
          "type": "uint256"
        },
        {
          "indexed": false,
          "internalType": "uint256",
          "name": "fee",
          "type": "uint256"
        }
      ],
      "name": "ClaimedPrize",
      "type": "event"
    },
    {
      "anonymous": false,
      "inputs": [
        {
          "indexed": false,
          "internalType": "address",
          "name": "owner",
          "type": "address"
        },
        {
          "indexed": false,
          "internalType": "uint256",
          "name": "totalValue",
          "type": "uint256"
        },
        {
          "indexed": false,
          "internalType": "uint256",
          "name": "ticketAmount",
          "type": "uint256"
        }
      ],
      "name": "LotteryFinalized",
      "type": "event"
    },
    {
      "anonymous": false,
      "inputs": [
        {
          "indexed": false,
          "internalType": "uint256",
          "name": "ticketNumber",
          "type": "uint256"
        },
        {
          "indexed": false,
          "internalType": "uint32",
          "name": "minTickets",
          "type": "uint32"
        },
        {
          "indexed": false,
          "internalType": "uint256",
          "name": "balance",
          "type": "uint256"
        },
        {
          "indexed": false,
          "internalType": "uint256",
          "name": "finishTime",
          "type": "uint256"
        }
      ],
      "name": "MinTicketsReached",
      "type": "event"
    },
    {
      "anonymous": false,
      "inputs": [
        {
          "indexed": true,
          "internalType": "address",
          "name": "previousOwner",
          "type": "address"
        },
        {
          "indexed": true,
          "internalType": "address",
          "name": "newOwner",
          "type": "address"
        }
      ],
      "name": "OwnershipTransferred",
      "type": "event"
    },
    {
      "anonymous": false,
      "inputs": [
        {
          "indexed": false,
          "internalType": "uint256",
          "name": "requestId",
          "type": "uint256"
        },
        {
          "indexed": false,
          "internalType": "uint256[]",
          "name": "randomWords",
          "type": "uint256[]"
        }
      ],
      "name": "RequestFulfilled",
      "type": "event"
    },
    {
      "anonymous": false,
      "inputs": [
        {
          "indexed": false,
          "internalType": "uint256",
          "name": "requestId",
          "type": "uint256"
        },
        {
          "indexed": false,
          "internalType": "uint32",
          "name": "numWords",
          "type": "uint32"
        }
      ],
      "name": "RequestSent",
      "type": "event"
    },
    {
      "anonymous": false,
      "inputs": [
        {
          "indexed": true,
          "internalType": "address",
          "name": "buyer",
          "type": "address"
        },
        {
          "indexed": false,
          "internalType": "uint256",
          "name": "price",
          "type": "uint256"
        },
        {
          "indexed": false,
          "internalType": "uint256",
          "name": "ticketNumber",
          "type": "uint256"
        }
      ],
      "name": "TicketBought",
      "type": "event"
    },
    {
      "inputs": [],
      "name": "configFinishTime",
      "outputs": [
        {
          "internalType": "uint256",
          "name": "",
          "type": "uint256"
        }
      ],
      "stateMutability": "view",
      "type": "function",
      "constant": true
    },
    {
      "inputs": [],
      "name": "configTimeToClaim",
      "outputs": [
        {
          "internalType": "uint256",
          "name": "",
          "type": "uint256"
        }
      ],
      "stateMutability": "view",
      "type": "function",
      "constant": true
    },
    {
      "inputs": [],
      "name": "fee",
      "outputs": [
        {
          "internalType": "uint256",
          "name": "",
          "type": "uint256"
        }
      ],
      "stateMutability": "view",
      "type": "function",
      "constant": true
    },
    {
      "inputs": [
        {
          "internalType": "uint256",
          "name": "_requestId",
          "type": "uint256"
        }
      ],
      "name": "getRequestStatus",
      "outputs": [
        {
          "internalType": "bool",
          "name": "fulfilled",
          "type": "bool"
        },
        {
          "internalType": "uint256[]",
          "name": "randomWords",
          "type": "uint256[]"
        }
      ],
      "stateMutability": "view",
      "type": "function",
      "constant": true
    },
    {
      "inputs": [],
      "name": "lastRequestId",
      "outputs": [
        {
          "internalType": "uint256",
          "name": "",
          "type": "uint256"
        }
      ],
      "stateMutability": "view",
      "type": "function",
      "constant": true
    },
    {
      "inputs": [],
      "name": "lotteryId",
      "outputs": [
        {
          "internalType": "uint256",
          "name": "_value",
          "type": "uint256"
        }
      ],
      "stateMutability": "view",
      "type": "function",
      "constant": true
    },
    {
      "inputs": [],
      "name": "lotteryName",
      "outputs": [
        {
          "internalType": "string",
          "name": "",
          "type": "string"
        }
      ],
      "stateMutability": "view",
      "type": "function",
      "constant": true
    },
    {
      "inputs": [],
      "name": "minTicket",
      "outputs": [
        {
          "internalType": "uint32",
          "name": "",
          "type": "uint32"
        }
      ],
      "stateMutability": "view",
      "type": "function",
      "constant": true
    },
    {
      "inputs": [],
      "name": "owner",
      "outputs": [
        {
          "internalType": "address",
          "name": "",
          "type": "address"
        }
      ],
      "stateMutability": "view",
      "type": "function",
      "constant": true
    },
    {
      "inputs": [
        {
          "internalType": "uint256",
          "name": "requestId",
          "type": "uint256"
        },
        {
          "internalType": "uint256[]",
          "name": "randomWords",
          "type": "uint256[]"
        }
      ],
      "name": "rawFulfillRandomWords",
      "outputs": [],
      "stateMutability": "nonpayable",
      "type": "function"
    },
    {
      "inputs": [],
      "name": "renounceOwnership",
      "outputs": [],
      "stateMutability": "nonpayable",
      "type": "function"
    },
    {
      "inputs": [
        {
          "internalType": "uint256",
          "name": "",
          "type": "uint256"
        }
      ],
      "name": "requestIds",
      "outputs": [
        {
          "internalType": "uint256",
          "name": "",
          "type": "uint256"
        }
      ],
      "stateMutability": "view",
      "type": "function",
      "constant": true
    },
    {
      "inputs": [
        {
          "internalType": "uint256",
          "name": "",
          "type": "uint256"
        }
      ],
      "name": "s_requests",
      "outputs": [
        {
          "internalType": "bool",
          "name": "fulfilled",
          "type": "bool"
        },
        {
          "internalType": "bool",
          "name": "exists",
          "type": "bool"
        }
      ],
      "stateMutability": "view",
      "type": "function",
      "constant": true
    },
    {
      "inputs": [
        {
          "internalType": "uint32",
          "name": "_callBackGasLimit",
          "type": "uint32"
        }
      ],
      "name": "setCallBackGasLimit",
      "outputs": [],
      "stateMutability": "nonpayable",
      "type": "function"
    },
    {
      "inputs": [
        {
          "internalType": "bytes32",
          "name": "_keyHash",
          "type": "bytes32"
        }
      ],
      "name": "setKeyHashValue",
      "outputs": [],
      "stateMutability": "nonpayable",
      "type": "function"
    },
    {
      "inputs": [
        {
          "internalType": "uint16",
          "name": "_requestConfirmations",
          "type": "uint16"
        }
      ],
      "name": "setRequestConfirmations",
      "outputs": [],
      "stateMutability": "nonpayable",
      "type": "function"
    },
    {
      "inputs": [],
      "name": "ticketPrice",
      "outputs": [
        {
          "internalType": "uint256",
          "name": "",
          "type": "uint256"
        }
      ],
      "stateMutability": "view",
      "type": "function",
      "constant": true
    },
    {
      "inputs": [
        {
          "internalType": "address",
          "name": "newOwner",
          "type": "address"
        }
      ],
      "name": "transferOwnership",
      "outputs": [],
      "stateMutability": "nonpayable",
      "type": "function"
    },
    {
      "inputs": [],
      "name": "buyTicket",
      "outputs": [],
      "stateMutability": "payable",
      "type": "function",
      "payable": true
    },
    {
      "inputs": [
        {
          "internalType": "uint256",
          "name": "lotteryIndex",
          "type": "uint256"
        }
      ],
      "name": "claim",
      "outputs": [],
      "stateMutability": "nonpayable",
      "type": "function"
    },
    {
      "inputs": [
        {
          "internalType": "uint256",
          "name": "lotteryIndex",
          "type": "uint256"
        }
      ],
      "name": "claimExpiredLottery",
      "outputs": [],
      "stateMutability": "nonpayable",
      "type": "function"
    },
    {
      "inputs": [
        {
          "internalType": "string",
          "name": "_name",
          "type": "string"
        },
        {
          "internalType": "uint256",
          "name": "_ticketPrice",
          "type": "uint256"
        },
        {
          "internalType": "uint32",
          "name": "_minTicket",
          "type": "uint32"
        },
        {
          "internalType": "uint256",
          "name": "_configFinishTime",
          "type": "uint256"
        },
        {
          "internalType": "uint256",
          "name": "_configTimeToClaim",
          "type": "uint256"
        },
        {
          "internalType": "uint256",
          "name": "_fee",
          "type": "uint256"
        }
      ],
      "name": "setProperties",
      "outputs": [],
      "stateMutability": "nonpayable",
      "type": "function"
    },
    {
      "inputs": [
        {
          "internalType": "uint256",
          "name": "_lotteryId",
          "type": "uint256"
        }
      ],
      "name": "getLotteryStatus",
      "outputs": [
        {
          "components": [
            {
              "internalType": "string",
              "name": "name",
              "type": "string"
            },
            {
              "internalType": "uint256",
              "name": "ticketPrice",
              "type": "uint256"
            },
            {
              "components": [
                {
                  "internalType": "uint256",
                  "name": "_value",
                  "type": "uint256"
                }
              ],
              "internalType": "struct Counters.Counter",
              "name": "ticketsCount",
              "type": "tuple"
            },
            {
              "internalType": "uint256",
              "name": "balance",
              "type": "uint256"
            },
            {
              "internalType": "bool",
              "name": "finalized",
              "type": "bool"
            },
            {
              "internalType": "uint256",
              "name": "indexChainLink",
              "type": "uint256"
            },
            {
              "internalType": "address",
              "name": "winner",
              "type": "address"
            },
            {
              "internalType": "bool",
              "name": "claimed",
              "type": "bool"
            },
            {
              "internalType": "uint32",
              "name": "minTicket",
              "type": "uint32"
            },
            {
              "internalType": "bool",
              "name": "finishTrigger",
              "type": "bool"
            },
            {
              "internalType": "uint256",
              "name": "timeToFinish",
              "type": "uint256"
            },
            {
              "internalType": "uint256",
              "name": "timeToClaim",
              "type": "uint256"
            }
          ],
          "internalType": "struct Lottery.LotteryStruct",
          "name": "_lottery",
          "type": "tuple"
        }
      ],
      "stateMutability": "view",
      "type": "function",
      "constant": true
    },
    {
      "inputs": [
        {
          "internalType": "uint256",
          "name": "_lotteryId",
          "type": "uint256"
        },
        {
          "internalType": "address",
          "name": "_user",
          "type": "address"
        }
      ],
      "name": "getUserStatus",
      "outputs": [
        {
          "components": [
            {
              "internalType": "bool",
              "name": "hasTicket",
              "type": "bool"
            },
            {
              "internalType": "bool",
              "name": "claimed",
              "type": "bool"
            },
            {
              "internalType": "uint256[]",
              "name": "tickets",
              "type": "uint256[]"
            }
          ],
          "internalType": "struct Lottery.User",
          "name": "_returnedUser",
          "type": "tuple"
        }
      ],
      "stateMutability": "view",
      "type": "function",
      "constant": true
    },
    {
      "inputs": [],
      "name": "getAllBalance",
      "outputs": [],
      "stateMutability": "nonpayable",
      "type": "function"
    },
    {
      "inputs": [
        {
          "internalType": "bytes",
          "name": "",
          "type": "bytes"
        }
      ],
      "name": "checkUpkeep",
      "outputs": [
        {
          "internalType": "bool",
          "name": "upkeepNeeded",
          "type": "bool"
        },
        {
          "internalType": "bytes",
          "name": "",
          "type": "bytes"
        }
      ],
      "stateMutability": "view",
      "type": "function",
      "constant": true
    },
    {
      "inputs": [
        {
          "internalType": "bytes",
          "name": "",
          "type": "bytes"
        }
      ],
      "name": "performUpkeep",
      "outputs": [],
      "stateMutability": "nonpayable",
      "type": "function"
    }
  ],
  "bytecode": "0x60a06040523480156200001157600080fd5b5060405162004d6638038062004d6683398181016040528101906200003791906200060e565b868686818073ffffffffffffffffffffffffffffffffffffffff1660808173ffffffffffffffffffffffffffffffffffffffff16815250505062000090620000846200024060201b60201c565b6200024860201b60201c565b6001808190555081600360006101000a81548173ffffffffffffffffffffffffffffffffffffffff021916908373ffffffffffffffffffffffffffffffffffffffff16021790555082600360146101000a81548167ffffffffffffffff021916908367ffffffffffffffff160217905550806006819055506207a120600760006101000a81548163ffffffff021916908363ffffffff1602179055506003600760046101000a81548161ffff021916908361ffff160217905550505050600062000166600b6200030c60201b62001ce81760201c565b905084600a600083815260200190815260200160002060000190816200018d919062000921565b5083600a60008381526020019081526020016000206001018190555082600a600083815260200190815260200160002060060160156101000a81548163ffffffff021916908363ffffffff16021790555081600c819055508460119081620001f6919062000921565b50610258600d8190555062093a80600e819055508360108190555082600f60006101000a81548163ffffffff021916908363ffffffff160217905550505050505050505062000a08565b600033905090565b60008060009054906101000a900473ffffffffffffffffffffffffffffffffffffffff169050816000806101000a81548173ffffffffffffffffffffffffffffffffffffffff021916908373ffffffffffffffffffffffffffffffffffffffff1602179055508173ffffffffffffffffffffffffffffffffffffffff168173ffffffffffffffffffffffffffffffffffffffff167f8be0079c531659141344cd1fd0a4f28419497f9722a3daafe3b4186f6b6457e060405160405180910390a35050565b600081600001549050919050565b6000604051905090565b600080fd5b600080fd5b600067ffffffffffffffff82169050919050565b6200034d816200032e565b81146200035957600080fd5b50565b6000815190506200036d8162000342565b92915050565b600073ffffffffffffffffffffffffffffffffffffffff82169050919050565b6000620003a08262000373565b9050919050565b620003b28162000393565b8114620003be57600080fd5b50565b600081519050620003d281620003a7565b92915050565b6000819050919050565b620003ed81620003d8565b8114620003f957600080fd5b50565b6000815190506200040d81620003e2565b92915050565b600080fd5b600080fd5b6000601f19601f8301169050919050565b7f4e487b7100000000000000000000000000000000000000000000000000000000600052604160045260246000fd5b62000468826200041d565b810181811067ffffffffffffffff821117156200048a57620004896200042e565b5b80604052505050565b60006200049f6200031a565b9050620004ad82826200045d565b919050565b600067ffffffffffffffff821115620004d057620004cf6200042e565b5b620004db826200041d565b9050602081019050919050565b60005b8381101562000508578082015181840152602081019050620004eb565b60008484015250505050565b60006200052b6200052584620004b2565b62000493565b9050828152602081018484840111156200054a576200054962000418565b5b62000557848285620004e8565b509392505050565b600082601f83011262000577576200057662000413565b5b81516200058984826020860162000514565b91505092915050565b6000819050919050565b620005a78162000592565b8114620005b357600080fd5b50565b600081519050620005c7816200059c565b92915050565b600063ffffffff82169050919050565b620005e881620005cd565b8114620005f457600080fd5b50565b6000815190506200060881620005dd565b92915050565b600080600080600080600060e0888a03121562000630576200062f62000324565b5b6000620006408a828b016200035c565b9750506020620006538a828b01620003c1565b9650506040620006668a828b01620003fc565b955050606088015167ffffffffffffffff8111156200068a576200068962000329565b5b620006988a828b016200055f565b9450506080620006ab8a828b01620005b6565b93505060a0620006be8a828b01620005f7565b92505060c0620006d18a828b01620005b6565b91505092959891949750929550565b600081519050919050565b7f4e487b7100000000000000000000000000000000000000000000000000000000600052602260045260246000fd5b600060028204905060018216806200073357607f821691505b602082108103620007495762000748620006eb565b5b50919050565b60008190508160005260206000209050919050565b60006020601f8301049050919050565b600082821b905092915050565b600060088302620007b37fffffffffffffffffffffffffffffffffffffffffffffffffffffffffffffffff8262000774565b620007bf868362000774565b95508019841693508086168417925050509392505050565b6000819050919050565b600062000802620007fc620007f68462000592565b620007d7565b62000592565b9050919050565b6000819050919050565b6200081e83620007e1565b620008366200082d8262000809565b84845462000781565b825550505050565b600090565b6200084d6200083e565b6200085a81848462000813565b505050565b5b8181101562000882576200087660008262000843565b60018101905062000860565b5050565b601f821115620008d1576200089b816200074f565b620008a68462000764565b81016020851015620008b6578190505b620008ce620008c58562000764565b8301826200085f565b50505b505050565b600082821c905092915050565b6000620008f660001984600802620008d6565b1980831691505092915050565b6000620009118383620008e3565b9150826002028217905092915050565b6200092c82620006e0565b67ffffffffffffffff8111156200094857620009476200042e565b5b6200095482546200071a565b6200096182828562000886565b600060209050601f83116001811462000999576000841562000984578287015190505b62000990858262000903565b86555062000a00565b601f198416620009a9866200074f565b60005b82811015620009d357848901518255600182019150602085019450602081019050620009ac565b86831015620009f35784890151620009ef601f891682620008e3565b8355505b6001600288020188555050505b505050505050565b60805161433b62000a2b60003960008181610646015261069a015261433b6000f3fe60806040526004361061019c5760003560e01c80638ff72293116100ec578063e575df721161008a578063edca914c11610064578063edca914c146105b5578063f2fde38b146105bf578063f6a30e3e146105e8578063fc2a88c3146106135761019c565b8063e575df7214610536578063e580f47b14610573578063eb9969a81461059e5761019c565b8063a7348e5f116100c6578063a7348e5f1461047b578063c468bf9c146104a4578063d8a4676f146104cd578063ddca3f431461050b5761019c565b80638ff72293146103d7578063982d808414610414578063a168fa891461043d5761019c565b80636e04ff0d116101595780638796ba8c116101335780638796ba8c1461031b5780638824f5a71461035857806389737fcf146103815780638da5cb5b146103ac5761019c565b80636e04ff0d1461029b578063715018a6146102d95780637cbcbd3c146102f05761019c565b80631209b1f6146101a15780631fe543e3146101cc57806323d14149146101f5578063379607f5146102205780634585e33b146102495780635cc2969514610272575b600080fd5b3480156101ad57600080fd5b506101b661063e565b6040516101c3919061273c565b60405180910390f35b3480156101d857600080fd5b506101f360048036038101906101ee91906128f0565b610644565b005b34801561020157600080fd5b5061020a610704565b60405161021791906129cb565b60405180910390f35b34801561022c57600080fd5b50610247600480360381019061024291906129ed565b610792565b005b34801561025557600080fd5b50610270600480360381019061026b9190612a75565b610d2f565b005b34801561027e57600080fd5b5061029960048036038101906102949190612bb3565b610dce565b005b3480156102a757600080fd5b506102c260048036038101906102bd9190612a75565b610eb7565b6040516102d0929190612ccc565b60405180910390f35b3480156102e557600080fd5b506102ee610f18565b005b3480156102fc57600080fd5b50610305610f2c565b604051610312919061273c565b60405180910390f35b34801561032757600080fd5b50610342600480360381019061033d91906129ed565b610f32565b60405161034f919061273c565b60405180910390f35b34801561036457600080fd5b5061037f600480360381019061037a9190612d36565b610f56565b005b34801561038d57600080fd5b50610396610f7e565b6040516103a3919061273c565b60405180910390f35b3480156103b857600080fd5b506103c1610f84565b6040516103ce9190612da4565b60405180910390f35b3480156103e357600080fd5b506103fe60048036038101906103f991906129ed565b610fad565b60405161040b9190612f65565b60405180910390f35b34801561042057600080fd5b5061043b60048036038101906104369190612f87565b61118a565b005b34801561044957600080fd5b50610464600480360381019061045f91906129ed565b6111b6565b604051610472929190612fb4565b60405180910390f35b34801561048757600080fd5b506104a2600480360381019061049d9190613013565b6111f4565b005b3480156104b057600080fd5b506104cb60048036038101906104c691906129ed565b611206565b005b3480156104d957600080fd5b506104f460048036038101906104ef91906129ed565b611506565b6040516105029291906130ef565b60405180910390f35b34801561051757600080fd5b50610520611631565b60405161052d919061273c565b60405180910390f35b34801561054257600080fd5b5061055d6004803603810190610558919061314b565b611637565b60405161056a919061324a565b60405180910390f35b34801561057f57600080fd5b50610588611730565b604051610595919061273c565b60405180910390f35b3480156105aa57600080fd5b506105b361173c565b005b6105bd61178d565b005b3480156105cb57600080fd5b506105e660048036038101906105e1919061326c565b611c49565b005b3480156105f457600080fd5b506105fd611ccc565b60405161060a91906132a8565b60405180910390f35b34801561061f57600080fd5b50610628611ce2565b604051610635919061273c565b60405180910390f35b60105481565b7f000000000000000000000000000000000000000000000000000000000000000073ffffffffffffffffffffffffffffffffffffffff163373ffffffffffffffffffffffffffffffffffffffff16146106f657337f00000000000000000000000000000000000000000000000000000000000000006040517f1cf993f40000000000000000000000000000000000000000000000000000000081526004016106ed9291906132c3565b60405180910390fd5b6107008282611cf6565b5050565b601180546107119061331b565b80601f016020809104026020016040519081016040528092919081815260200182805461073d9061331b565b801561078a5780601f1061075f5761010080835404028352916020019161078a565b820191906000526020600020905b81548152906001019060200180831161076d57829003601f168201915b505050505081565b61079a611e82565b600a600082815260200190815260200160002060060160149054906101000a900460ff16156107fe576040517f08c379a00000000000000000000000000000000000000000000000000000000081526004016107f5906133be565b60405180910390fd5b600a600082815260200190815260200160002060040160009054906101000a900460ff16610861576040517f08c379a000000000000000000000000000000000000000000000000000000000815260040161085890613450565b60405180910390fd5b600073ffffffffffffffffffffffffffffffffffffffff16600a600083815260200190815260200160002060060160009054906101000a900473ffffffffffffffffffffffffffffffffffffffff1673ffffffffffffffffffffffffffffffffffffffff1603610906576040517f08c379a00000000000000000000000000000000000000000000000000000000081526004016108fd906134e2565b60405180910390fd5b3373ffffffffffffffffffffffffffffffffffffffff16600a600083815260200190815260200160002060060160009054906101000a900473ffffffffffffffffffffffffffffffffffffffff1673ffffffffffffffffffffffffffffffffffffffff16146109aa576040517f08c379a00000000000000000000000000000000000000000000000000000000081526004016109a19061354e565b60405180910390fd5b6008600082815260200190815260200160002060003373ffffffffffffffffffffffffffffffffffffffff1673ffffffffffffffffffffffffffffffffffffffff16815260200190815260200160002060000160009054906101000a900460ff16610a4a576040517f08c379a0000000000000000000000000000000000000000000000000000000008152600401610a41906135e0565b60405180910390fd5b6008600082815260200190815260200160002060003373ffffffffffffffffffffffffffffffffffffffff1673ffffffffffffffffffffffffffffffffffffffff16815260200190815260200160002060000160019054906101000a900460ff1615610aeb576040517f08c379a0000000000000000000000000000000000000000000000000000000008152600401610ae290613672565b60405180910390fd5b6001600a600083815260200190815260200160002060060160146101000a81548160ff02191690831515021790555060006008600083815260200190815260200160002060003373ffffffffffffffffffffffffffffffffffffffff1673ffffffffffffffffffffffffffffffffffffffff16815260200190815260200160002060000160006101000a81548160ff02191690831515021790555060016008600083815260200190815260200160002060003373ffffffffffffffffffffffffffffffffffffffff1673ffffffffffffffffffffffffffffffffffffffff16815260200190815260200160002060000160016101000a81548160ff0219169083151502179055506000610c13600a600084815260200190815260200160002060030154611ed1565b9050600081600a600085815260200190815260200160002060030154610c3991906136c1565b9050610c43610f84565b73ffffffffffffffffffffffffffffffffffffffff166108fc839081150290604051600060405180830381858888f19350505050158015610c88573d6000803e3d6000fd5b503373ffffffffffffffffffffffffffffffffffffffff166108fc829081150290604051600060405180830381858888f19350505050158015610ccf573d6000803e3d6000fd5b503373ffffffffffffffffffffffffffffffffffffffff167f588837c8642bd1b376f9f89a12784072019e42aa3f6412a48ebd1f450a113e18848385604051610d1a939291906136f5565b60405180910390a25050610d2c611ef4565b50565b6000610d3b600b611ce8565b9050600a600082815260200190815260200160002060060160199054906101000a900460ff168015610d825750600a60008281526020019081526020016000206007015442115b610dc1576040517f08c379a0000000000000000000000000000000000000000000000000000000008152600401610db890613778565b60405180910390fd5b610dc9611efd565b505050565b610dd66120c4565b601e811115610e1a576040517f08c379a0000000000000000000000000000000000000000000000000000000008152600401610e11906137e4565b60405180910390fd5b80600c8190555082600d8190555081600e819055508460108190555083600f60006101000a81548163ffffffff021916908363ffffffff1602179055503373ffffffffffffffffffffffffffffffffffffffff167fdfcfcdeac7cdd38c4b0a0537d363f95fa8d7cce818fd23989dc2f35f11a90ae3878784888888604051610ea796959493929190613804565b60405180910390a2505050505050565b600060606000610ec7600b611ce8565b9050600a600082815260200190815260200160002060060160199054906101000a900460ff168015610f0e5750600a60008281526020019081526020016000206007015442115b9250509250929050565b610f206120c4565b610f2a6000612142565b565b600d5481565b60048181548110610f4257600080fd5b906000526020600020016000915090505481565b610f5e6120c4565b80600760046101000a81548161ffff021916908361ffff16021790555050565b600e5481565b60008060009054906101000a900473ffffffffffffffffffffffffffffffffffffffff16905090565b610fb56125f8565b600a600083815260200190815260200160002060405180610180016040529081600082018054610fe49061331b565b80601f01602080910402602001604051908101604052809291908181526020018280546110109061331b565b801561105d5780601f106110325761010080835404028352916020019161105d565b820191906000526020600020905b81548152906001019060200180831161104057829003601f168201915b5050505050815260200160018201548152602001600282016040518060200160405290816000820154815250508152602001600382015481526020016004820160009054906101000a900460ff16151515158152602001600582015481526020016006820160009054906101000a900473ffffffffffffffffffffffffffffffffffffffff1673ffffffffffffffffffffffffffffffffffffffff1673ffffffffffffffffffffffffffffffffffffffff1681526020016006820160149054906101000a900460ff161515151581526020016006820160159054906101000a900463ffffffff1663ffffffff1663ffffffff1681526020016006820160199054906101000a900460ff16151515158152602001600782015481526020016008820154815250509050919050565b6111926120c4565b80600760006101000a81548163ffffffff021916908363ffffffff16021790555050565b60026020528060005260406000206000915090508060000160009054906101000a900460ff16908060000160019054906101000a900460ff16905082565b6111fc6120c4565b8060068190555050565b61120e6120c4565b600a600082815260200190815260200160002060060160149054906101000a900460ff1615611272576040517f08c379a0000000000000000000000000000000000000000000000000000000008152600401611269906133be565b60405180910390fd5b600a600082815260200190815260200160002060040160009054906101000a900460ff166112d5576040517f08c379a00000000000000000000000000000000000000000000000000000000081526004016112cc90613450565b60405180910390fd5b600073ffffffffffffffffffffffffffffffffffffffff16600a600083815260200190815260200160002060060160009054906101000a900473ffffffffffffffffffffffffffffffffffffffff1673ffffffffffffffffffffffffffffffffffffffff160361137a576040517f08c379a0000000000000000000000000000000000000000000000000000000008152600401611371906134e2565b60405180910390fd5b42600a600083815260200190815260200160002060080154106113d2576040517f08c379a00000000000000000000000000000000000000000000000000000000081526004016113c9906138de565b60405180910390fd5b6001600a600083815260200190815260200160002060060160146101000a81548160ff021916908315150217905550611409610f84565b73ffffffffffffffffffffffffffffffffffffffff166108fc600a6000848152602001908152602001600020600301549081150290604051600060405180830381858888f19350505050158015611464573d6000803e3d6000fd5b50600a600082815260200190815260200160002060060160009054906101000a900473ffffffffffffffffffffffffffffffffffffffff1673ffffffffffffffffffffffffffffffffffffffff167f18871ffdb80828adbbab2e9a9ecbe66822633e5b565d86f4fe5cbbd6871f02793383600a6000868152602001908152602001600020600301546040516114fb939291906138fe565b60405180910390a250565b600060606002600084815260200190815260200160002060000160019054906101000a900460ff1661156d576040517f08c379a000000000000000000000000000000000000000000000000000000000815260040161156490613981565b60405180910390fd5b6000600260008581526020019081526020016000206040518060600160405290816000820160009054906101000a900460ff161515151581526020016000820160019054906101000a900460ff161515151581526020016001820180548060200260200160405190810160405280929190818152602001828054801561161257602002820191906000526020600020905b8154815260200190600101908083116115fe575b5050505050815250509050806000015181604001519250925050915091565b600c5481565b61163f612681565b6008600084815260200190815260200160002060008373ffffffffffffffffffffffffffffffffffffffff1673ffffffffffffffffffffffffffffffffffffffff1681526020019081526020016000206040518060600160405290816000820160009054906101000a900460ff161515151581526020016000820160019054906101000a900460ff161515151581526020016001820180548060200260200160405190810160405280929190818152602001828054801561171f57602002820191906000526020600020905b81548152602001906001019080831161170b575b505050505081525050905092915050565b600b8060000154905081565b6117446120c4565b3373ffffffffffffffffffffffffffffffffffffffff166108fc479081150290604051600060405180830381858888f1935050505015801561178a573d6000803e3d6000fd5b50565b611795611e82565b60006117a1600b611ce8565b9050600a600082815260200190815260200160002060040160009054906101000a900460ff1615611807576040517f08c379a00000000000000000000000000000000000000000000000000000000081526004016117fe90613a13565b60405180910390fd5b34600a6000838152602001908152602001600020600101541461185f576040517f08c379a000000000000000000000000000000000000000000000000000000000815260040161185690613aa5565b60405180910390fd5b600061187f600a6000848152602001908152602001600020600201611ce8565b905061189f600a6000848152602001908152602001600020600201612206565b60016008600084815260200190815260200160002060003373ffffffffffffffffffffffffffffffffffffffff1673ffffffffffffffffffffffffffffffffffffffff16815260200190815260200160002060000160006101000a81548160ff02191690831515021790555060006008600084815260200190815260200160002060003373ffffffffffffffffffffffffffffffffffffffff1673ffffffffffffffffffffffffffffffffffffffff16815260200190815260200160002060000160016101000a81548160ff0219169083151502179055506008600083815260200190815260200160002060003373ffffffffffffffffffffffffffffffffffffffff1673ffffffffffffffffffffffffffffffffffffffff1681526020019081526020016000206001018190806001815401808255809150506001900390600052602060002001600090919091909150553360096000848152602001908152602001600020600083815260200190815260200160002060006101000a81548173ffffffffffffffffffffffffffffffffffffffff021916908373ffffffffffffffffffffffffffffffffffffffff16021790555034600a60008481526020019081526020016000206003016000828254611a7a9190613ac5565b925050819055506000611aa1600a6000858152602001908152602001600020600201611ce8565b9050600a600084815260200190815260200160002060060160199054906101000a900460ff16158015611b005750600a600084815260200190815260200160002060060160159054906101000a900463ffffffff1663ffffffff168110155b15611bec576001600a600085815260200190815260200160002060060160196101000a81548160ff021916908315150217905550600d5442611b429190613ac5565b600a6000858152602001908152602001600020600701819055507f3dcdfcde0ffa80946025c1000bff52fe117ec934dfc3c45fc9cfaa064c91c18c81600a600086815260200190815260200160002060060160159054906101000a900463ffffffff16600a600087815260200190815260200160002060030154600a600088815260200190815260200160002060070154604051611be39493929190613af9565b60405180910390a15b3373ffffffffffffffffffffffffffffffffffffffff167f97fac0ce6558f4accbb4696915809c0ef7023ffe7ba9454e94d49fb652aae1d53485604051611c34929190613b3e565b60405180910390a2505050611c47611ef4565b565b611c516120c4565b600073ffffffffffffffffffffffffffffffffffffffff168173ffffffffffffffffffffffffffffffffffffffff1603611cc0576040517f08c379a0000000000000000000000000000000000000000000000000000000008152600401611cb790613bd9565b60405180910390fd5b611cc981612142565b50565b600f60009054906101000a900463ffffffff1681565b60055481565b600081600001549050919050565b611d00828261221c565b6000611d0c600b611ce8565b90506000611d2e600a6000848152602001908152602001600020600201611ce8565b9050600a6000838152602001908152602001600020600501548403611e7c576009600083815260200190815260200160002060008285600081518110611d7757611d76613bf9565b5b6020026020010151611d899190613c57565b815260200190815260200160002060009054906101000a900473ffffffffffffffffffffffffffffffffffffffff16600a600084815260200190815260200160002060060160006101000a81548173ffffffffffffffffffffffffffffffffffffffff021916908373ffffffffffffffffffffffffffffffffffffffff160217905550600d5442611e1a9190613ac5565b600a600084815260200190815260200160002060080181905550611e3c612316565b611e7b576040517f08c379a0000000000000000000000000000000000000000000000000000000008152600401611e7290613cd4565b60405180910390fd5b5b50505050565b600260015403611ec7576040517f08c379a0000000000000000000000000000000000000000000000000000000008152600401611ebe90613d40565b60405180910390fd5b6002600181905550565b60006064600c5483611ee39190613d60565b611eed9190613da2565b9050919050565b60018081905550565b6000611f09600b611ce8565b90506000611f2b600a6000848152602001908152602001600020600201611ce8565b905080600a600084815260200190815260200160002060060160159054906101000a900463ffffffff1663ffffffff1610611f9b576040517f08c379a0000000000000000000000000000000000000000000000000000000008152600401611f9290613e1f565b60405180910390fd5b600a600083815260200190815260200160002060040160009054906101000a900460ff1615611fff576040517f08c379a0000000000000000000000000000000000000000000000000000000008152600401611ff690613e8b565b60405180910390fd5b6001600a600084815260200190815260200160002060040160006101000a81548160ff02191690831515021790555061203860016123c1565b600a6000848152602001908152602001600020600501819055507f9337fa876371ba7a2ae0a3fd96612bed9a9baaff955d10f3c0168d544f7a053733600a6000858152602001908152602001600020600301546120a9600a6000878152602001908152602001600020600201611ce8565b6040516120b8939291906138fe565b60405180910390a15050565b6120cc6125f0565b73ffffffffffffffffffffffffffffffffffffffff166120ea610f84565b73ffffffffffffffffffffffffffffffffffffffff1614612140576040517f08c379a000000000000000000000000000000000000000000000000000000000815260040161213790613ef7565b60405180910390fd5b565b60008060009054906101000a900473ffffffffffffffffffffffffffffffffffffffff169050816000806101000a81548173ffffffffffffffffffffffffffffffffffffffff021916908373ffffffffffffffffffffffffffffffffffffffff1602179055508173ffffffffffffffffffffffffffffffffffffffff168173ffffffffffffffffffffffffffffffffffffffff167f8be0079c531659141344cd1fd0a4f28419497f9722a3daafe3b4186f6b6457e060405160405180910390a35050565b6001816000016000828254019250508190555050565b6002600083815260200190815260200160002060000160019054906101000a900460ff1661227f576040517f08c379a000000000000000000000000000000000000000000000000000000000815260040161227690613981565b60405180910390fd5b60016002600084815260200190815260200160002060000160006101000a81548160ff021916908315150217905550806002600084815260200190815260200160002060010190805190602001906122d89291906126a6565b507ffe2e2d779dba245964d4e3ef9b994be63856fd568bf7d3ca9e224755cb1bd54d828260405161230a929190613f17565b60405180910390a15050565b6000612322600b612206565b600061232e600b611ce8565b90506011600a60008381526020019081526020016000206000019081612354919061411e565b50601054600a600083815260200190815260200160002060010181905550600f60009054906101000a900463ffffffff16600a600083815260200190815260200160002060060160156101000a81548163ffffffff021916908363ffffffff160217905550600191505090565b6000600360009054906101000a900473ffffffffffffffffffffffffffffffffffffffff1673ffffffffffffffffffffffffffffffffffffffff16635d3b1d30600654600360149054906101000a900467ffffffffffffffff16600760049054906101000a900461ffff16600760009054906101000a900463ffffffff16876040518663ffffffff1660e01b8152600401612460959493929190614247565b6020604051808303816000875af115801561247f573d6000803e3d6000fd5b505050506040513d601f19601f820116820180604052508101906124a391906142af565b90506040518060600160405280600015158152602001600115158152602001600067ffffffffffffffff8111156124dd576124dc6127ad565b5b60405190808252806020026020018201604052801561250b5781602001602082028036833780820191505090505b508152506002600083815260200190815260200160002060008201518160000160006101000a81548160ff02191690831515021790555060208201518160000160016101000a81548160ff021916908315150217905550604082015181600101908051906020019061257e9291906126a6565b509050506004819080600181540180825580915050600190039060005260206000200160009091909190915055806005819055507fcc58b13ad3eab50626c6a6300b1d139cd6ebb1688a7cced9461c2f7e762665ee81836040516125e39291906142dc565b60405180910390a1919050565b600033905090565b604051806101800160405280606081526020016000815260200161261a6126f3565b81526020016000815260200160001515815260200160008152602001600073ffffffffffffffffffffffffffffffffffffffff168152602001600015158152602001600063ffffffff16815260200160001515815260200160008152602001600081525090565b6040518060600160405280600015158152602001600015158152602001606081525090565b8280548282559060005260206000209081019282156126e2579160200282015b828111156126e15782518255916020019190600101906126c6565b5b5090506126ef9190612706565b5090565b6040518060200160405280600081525090565b5b8082111561271f576000816000905550600101612707565b5090565b6000819050919050565b61273681612723565b82525050565b6000602082019050612751600083018461272d565b92915050565b6000604051905090565b600080fd5b600080fd5b61277481612723565b811461277f57600080fd5b50565b6000813590506127918161276b565b92915050565b600080fd5b6000601f19601f8301169050919050565b7f4e487b7100000000000000000000000000000000000000000000000000000000600052604160045260246000fd5b6127e58261279c565b810181811067ffffffffffffffff82111715612804576128036127ad565b5b80604052505050565b6000612817612757565b905061282382826127dc565b919050565b600067ffffffffffffffff821115612843576128426127ad565b5b602082029050602081019050919050565b600080fd5b600061286c61286784612828565b61280d565b9050808382526020820190506020840283018581111561288f5761288e612854565b5b835b818110156128b857806128a48882612782565b845260208401935050602081019050612891565b5050509392505050565b600082601f8301126128d7576128d6612797565b5b81356128e7848260208601612859565b91505092915050565b6000806040838503121561290757612906612761565b5b600061291585828601612782565b925050602083013567ffffffffffffffff81111561293657612935612766565b5b612942858286016128c2565b9150509250929050565b600081519050919050565b600082825260208201905092915050565b60005b8381101561298657808201518184015260208101905061296b565b60008484015250505050565b600061299d8261294c565b6129a78185612957565b93506129b7818560208601612968565b6129c08161279c565b840191505092915050565b600060208201905081810360008301526129e58184612992565b905092915050565b600060208284031215612a0357612a02612761565b5b6000612a1184828501612782565b91505092915050565b600080fd5b60008083601f840112612a3557612a34612797565b5b8235905067ffffffffffffffff811115612a5257612a51612a1a565b5b602083019150836001820283011115612a6e57612a6d612854565b5b9250929050565b60008060208385031215612a8c57612a8b612761565b5b600083013567ffffffffffffffff811115612aaa57612aa9612766565b5b612ab685828601612a1f565b92509250509250929050565b600080fd5b600067ffffffffffffffff821115612ae257612ae16127ad565b5b612aeb8261279c565b9050602081019050919050565b82818337600083830152505050565b6000612b1a612b1584612ac7565b61280d565b905082815260208101848484011115612b3657612b35612ac2565b5b612b41848285612af8565b509392505050565b600082601f830112612b5e57612b5d612797565b5b8135612b6e848260208601612b07565b91505092915050565b600063ffffffff82169050919050565b612b9081612b77565b8114612b9b57600080fd5b50565b600081359050612bad81612b87565b92915050565b60008060008060008060c08789031215612bd057612bcf612761565b5b600087013567ffffffffffffffff811115612bee57612bed612766565b5b612bfa89828a01612b49565b9650506020612c0b89828a01612782565b9550506040612c1c89828a01612b9e565b9450506060612c2d89828a01612782565b9350506080612c3e89828a01612782565b92505060a0612c4f89828a01612782565b9150509295509295509295565b60008115159050919050565b612c7181612c5c565b82525050565b600081519050919050565b600082825260208201905092915050565b6000612c9e82612c77565b612ca88185612c82565b9350612cb8818560208601612968565b612cc18161279c565b840191505092915050565b6000604082019050612ce16000830185612c68565b8181036020830152612cf38184612c93565b90509392505050565b600061ffff82169050919050565b612d1381612cfc565b8114612d1e57600080fd5b50565b600081359050612d3081612d0a565b92915050565b600060208284031215612d4c57612d4b612761565b5b6000612d5a84828501612d21565b91505092915050565b600073ffffffffffffffffffffffffffffffffffffffff82169050919050565b6000612d8e82612d63565b9050919050565b612d9e81612d83565b82525050565b6000602082019050612db96000830184612d95565b92915050565b600082825260208201905092915050565b6000612ddb8261294c565b612de58185612dbf565b9350612df5818560208601612968565b612dfe8161279c565b840191505092915050565b612e1281612723565b82525050565b602082016000820151612e2e6000850182612e09565b50505050565b612e3d81612c5c565b82525050565b612e4c81612d83565b82525050565b612e5b81612b77565b82525050565b6000610180830160008301518482036000860152612e7f8282612dd0565b9150506020830151612e946020860182612e09565b506040830151612ea76040860182612e18565b506060830151612eba6060860182612e09565b506080830151612ecd6080860182612e34565b5060a0830151612ee060a0860182612e09565b5060c0830151612ef360c0860182612e43565b5060e0830151612f0660e0860182612e34565b50610100830151612f1b610100860182612e52565b50610120830151612f30610120860182612e34565b50610140830151612f45610140860182612e09565b50610160830151612f5a610160860182612e09565b508091505092915050565b60006020820190508181036000830152612f7f8184612e61565b905092915050565b600060208284031215612f9d57612f9c612761565b5b6000612fab84828501612b9e565b91505092915050565b6000604082019050612fc96000830185612c68565b612fd66020830184612c68565b9392505050565b6000819050919050565b612ff081612fdd565b8114612ffb57600080fd5b50565b60008135905061300d81612fe7565b92915050565b60006020828403121561302957613028612761565b5b600061303784828501612ffe565b91505092915050565b600081519050919050565b600082825260208201905092915050565b6000819050602082019050919050565b60006130788383612e09565b60208301905092915050565b6000602082019050919050565b600061309c82613040565b6130a6818561304b565b93506130b18361305c565b8060005b838110156130e25781516130c9888261306c565b97506130d483613084565b9250506001810190506130b5565b5085935050505092915050565b60006040820190506131046000830185612c68565b81810360208301526131168184613091565b90509392505050565b61312881612d83565b811461313357600080fd5b50565b6000813590506131458161311f565b92915050565b6000806040838503121561316257613161612761565b5b600061317085828601612782565b925050602061318185828601613136565b9150509250929050565b600082825260208201905092915050565b60006131a782613040565b6131b1818561318b565b93506131bc8361305c565b8060005b838110156131ed5781516131d4888261306c565b97506131df83613084565b9250506001810190506131c0565b5085935050505092915050565b60006060830160008301516132126000860182612e34565b5060208301516132256020860182612e34565b506040830151848203604086015261323d828261319c565b9150508091505092915050565b6000602082019050818103600083015261326481846131fa565b905092915050565b60006020828403121561328257613281612761565b5b600061329084828501613136565b91505092915050565b6132a281612b77565b82525050565b60006020820190506132bd6000830184613299565b92915050565b60006040820190506132d86000830185612d95565b6132e56020830184612d95565b9392505050565b7f4e487b7100000000000000000000000000000000000000000000000000000000600052602260045260246000fd5b6000600282049050600182168061333357607f821691505b602082108103613346576133456132ec565b5b50919050565b7f5468652077696e6e657220616c726561647920636c61696d656420697473207060008201527f72697a652e000000000000000000000000000000000000000000000000000000602082015250565b60006133a8602583612957565b91506133b38261334c565b604082019050919050565b600060208201905081810360008301526133d78161339b565b9050919050565b7f54686973206c6f74746572792069736e27742066696e616c697a65642079657460008201527f2e00000000000000000000000000000000000000000000000000000000000000602082015250565b600061343a602183612957565b9150613445826133de565b604082019050919050565b600060208201905081810360008301526134698161342d565b9050919050565b7f54686973206c6f7474657279206469646e27742067657420612077696e6e657260008201527f207965742e000000000000000000000000000000000000000000000000000000602082015250565b60006134cc602583612957565b91506134d782613470565b604082019050919050565b600060208201905081810360008301526134fb816134bf565b9050919050565b7f596f75277265206e6f74207468652077696e6e65722e00000000000000000000600082015250565b6000613538601683612957565b915061354382613502565b602082019050919050565b600060208201905081810360008301526135678161352b565b9050919050565b7f596f7520646f6e74206861766520616e79207469636b657420746f20636c616960008201527f6d20686572652e00000000000000000000000000000000000000000000000000602082015250565b60006135ca602783612957565b91506135d58261356e565b604082019050919050565b600060208201905081810360008301526135f9816135bd565b9050919050565b7f596f75206861766520616c7265616420636c61696d656420796f75722070726960008201527f7a652e0000000000000000000000000000000000000000000000000000000000602082015250565b600061365c602383612957565b915061366782613600565b604082019050919050565b6000602082019050818103600083015261368b8161364f565b9050919050565b7f4e487b7100000000000000000000000000000000000000000000000000000000600052601160045260246000fd5b60006136cc82612723565b91506136d783612723565b92508282039050818111156136ef576136ee613692565b5b92915050565b600060608201905061370a600083018661272d565b613717602083018561272d565b613724604083018461272d565b949350505050565b7f4e6f742072656164207965740000000000000000000000000000000000000000600082015250565b6000613762600c83612957565b915061376d8261372c565b602082019050919050565b6000602082019050818103600083015261379181613755565b9050919050565b7f4665652063616e277420626520626574746572207468616e2033302500000000600082015250565b60006137ce601c83612957565b91506137d982613798565b602082019050919050565b600060208201905081810360008301526137fd816137c1565b9050919050565b600060c082019050818103600083015261381e8189612992565b905061382d602083018861272d565b61383a604083018761272d565b6138476060830186613299565b613854608083018561272d565b61386160a083018461272d565b979650505050505050565b7f596f752063616e277420636c61696d206265666f72652074696d65546f436c6160008201527f696d2067657420657870697265642e0000000000000000000000000000000000602082015250565b60006138c8602f83612957565b91506138d38261386c565b604082019050919050565b600060208201905081810360008301526138f7816138bb565b9050919050565b60006060820190506139136000830186612d95565b613920602083018561272d565b61392d604083018461272d565b949350505050565b7f72657175657374206e6f7420666f756e64000000000000000000000000000000600082015250565b600061396b601183612957565b915061397682613935565b602082019050919050565b6000602082019050818103600083015261399a8161395e565b9050919050565b7f54686973206c6f74746572792068617320616c72656164792066696e616c697a60008201527f65642c207761697420666f7220726573756c7473210000000000000000000000602082015250565b60006139fd603583612957565b9150613a08826139a1565b604082019050919050565b60006020820190508181036000830152613a2c816139f0565b9050919050565b7f596f75206e65656420746f20706179207468652065786163746c79207469636b60008201527f65742070726963652e0000000000000000000000000000000000000000000000602082015250565b6000613a8f602983612957565b9150613a9a82613a33565b604082019050919050565b60006020820190508181036000830152613abe81613a82565b9050919050565b6000613ad082612723565b9150613adb83612723565b9250828201905080821115613af357613af2613692565b5b92915050565b6000608082019050613b0e600083018761272d565b613b1b6020830186613299565b613b28604083018561272d565b613b35606083018461272d565b95945050505050565b6000604082019050613b53600083018561272d565b613b60602083018461272d565b9392505050565b7f4f776e61626c653a206e6577206f776e657220697320746865207a65726f206160008201527f6464726573730000000000000000000000000000000000000000000000000000602082015250565b6000613bc3602683612957565b9150613bce82613b67565b604082019050919050565b60006020820190508181036000830152613bf281613bb6565b9050919050565b7f4e487b7100000000000000000000000000000000000000000000000000000000600052603260045260246000fd5b7f4e487b7100000000000000000000000000000000000000000000000000000000600052601260045260246000fd5b6000613c6282612723565b9150613c6d83612723565b925082613c7d57613c7c613c28565b5b828206905092915050565b7f4c6f7474657279206e6565647320746f20626520726573657465640000000000600082015250565b6000613cbe601b83612957565b9150613cc982613c88565b602082019050919050565b60006020820190508181036000830152613ced81613cb1565b9050919050565b7f5265656e7472616e637947756172643a207265656e7472616e742063616c6c00600082015250565b6000613d2a601f83612957565b9150613d3582613cf4565b602082019050919050565b60006020820190508181036000830152613d5981613d1d565b9050919050565b6000613d6b82612723565b9150613d7683612723565b9250828202613d8481612723565b91508282048414831517613d9b57613d9a613692565b5b5092915050565b6000613dad82612723565b9150613db883612723565b925082613dc857613dc7613c28565b5b828204905092915050565b7f4974204469646e74207265616368206d696e207469636b657473207965742e00600082015250565b6000613e09601f83612957565b9150613e1482613dd3565b602082019050919050565b60006020820190508181036000830152613e3881613dfc565b9050919050565b7f4c6f747465727920616c72656164792066696e616c697a65642e000000000000600082015250565b6000613e75601a83612957565b9150613e8082613e3f565b602082019050919050565b60006020820190508181036000830152613ea481613e68565b9050919050565b7f4f776e61626c653a2063616c6c6572206973206e6f7420746865206f776e6572600082015250565b6000613ee1602083612957565b9150613eec82613eab565b602082019050919050565b60006020820190508181036000830152613f1081613ed4565b9050919050565b6000604082019050613f2c600083018561272d565b8181036020830152613f3e8184613091565b90509392505050565b600081549050613f568161331b565b9050919050565b60008190508160005260206000209050919050565b60008190508160005260206000209050919050565b60006020601f8301049050919050565b600082821b905092915050565b600060088302613fd47fffffffffffffffffffffffffffffffffffffffffffffffffffffffffffffffff82613f97565b613fde8683613f97565b95508019841693508086168417925050509392505050565b6000819050919050565b600061401b61401661401184612723565b613ff6565b612723565b9050919050565b6000819050919050565b61403583614000565b61404961404182614022565b848454613fa4565b825550505050565b600090565b61405e614051565b61406981848461402c565b505050565b5b8181101561408d57614082600082614056565b60018101905061406f565b5050565b601f8211156140d2576140a381613f5d565b6140ac84613f87565b810160208510156140bb578190505b6140cf6140c785613f87565b83018261406e565b50505b505050565b600082821c905092915050565b60006140f5600019846008026140d7565b1980831691505092915050565b600061410e83836140e4565b9150826002028217905092915050565b81810361412c575050614204565b61413582613f47565b67ffffffffffffffff81111561414e5761414d6127ad565b5b614158825461331b565b614163828285614091565b6000601f8311600181146141925760008415614180578287015490505b61418a8582614102565b8655506141fd565b601f1984166141a087613f72565b96506141ab86613f5d565b60005b828110156141d3578489015482556001820191506001850194506020810190506141ae565b868310156141f057848901546141ec601f8916826140e4565b8355505b6001600288020188555050505b5050505050505b565b61420f81612fdd565b82525050565b600067ffffffffffffffff82169050919050565b61423281614215565b82525050565b61424181612cfc565b82525050565b600060a08201905061425c6000830188614206565b6142696020830187614229565b6142766040830186614238565b6142836060830185613299565b6142906080830184613299565b9695505050505050565b6000815190506142a98161276b565b92915050565b6000602082840312156142c5576142c4612761565b5b60006142d38482850161429a565b91505092915050565b60006040820190506142f1600083018561272d565b6142fe6020830184613299565b939250505056fea26469706673582212204af82072d887720955966d4bf1786d711742adf894a3055d8050aff0b4ff787664736f6c63430008110033",
  "immutableReferences": {
    "49": [
      {
        "length": 32,
        "start": 1606
      },
      {
        "length": 32,
        "start": 1690
      }
    ]
  },
  "source": "// SPDX-License-Identifier: MIT\r\npragma solidity ^0.8.17;\r\n\r\nimport \"@chainlink/contracts/src/v0.8/interfaces/VRFCoordinatorV2Interface.sol\";\r\nimport \"@chainlink/contracts/src/v0.8/VRFConsumerBaseV2.sol\";\r\nimport \"@chainlink/contracts/src/v0.8/AutomationCompatible.sol\";\r\n\r\nimport \"@openzeppelin/contracts/access/Ownable.sol\";\r\nimport \"@openzeppelin/contracts/utils/Counters.sol\";\r\nimport \"@openzeppelin/contracts/security/ReentrancyGuard.sol\";\r\n\r\nimport \"./VRFV2Consumer.sol\";\r\n\r\ncontract Lottery is\r\n    Ownable,\r\n    ReentrancyGuard,\r\n    VRFV2Consumer,\r\n    AutomationCompatibleInterface\r\n{\r\n    using Counters for Counters.Counter;\r\n\r\n    struct User {\r\n        bool hasTicket;\r\n        bool claimed;\r\n        uint256[] tickets;\r\n    }\r\n\r\n    struct LotteryStruct {\r\n        string name;\r\n        uint256 ticketPrice;\r\n        Counters.Counter ticketsCount;\r\n        uint256 balance;\r\n        bool finalized;\r\n        uint256 indexChainLink;\r\n        address winner;\r\n        bool claimed;\r\n        uint32 minTicket;\r\n        bool finishTrigger;\r\n        uint256 timeToFinish;\r\n        uint256 timeToClaim;\r\n    }\r\n\r\n    mapping(uint256 => mapping(address => User)) ticketOwners;\r\n    mapping(uint256 => mapping(uint256 => address)) tickets;\r\n    mapping(uint256 => LotteryStruct) lottery;\r\n\r\n    Counters.Counter public lotteryId;\r\n    uint256 public fee;\r\n    uint256 public configFinishTime;\r\n    uint256 public configTimeToClaim;\r\n    uint32 public minTicket;\r\n    uint256 public ticketPrice;\r\n    string public lotteryName;\r\n\r\n    event TicketBought(\r\n        address indexed buyer,\r\n        uint256 price,\r\n        uint256 ticketNumber\r\n    );\r\n    event MinTicketsReached(\r\n        uint256 ticketNumber,\r\n        uint32 minTickets,\r\n        uint256 balance,\r\n        uint256 finishTime\r\n    );\r\n    event LotteryFinalized(\r\n        address owner,\r\n        uint256 totalValue,\r\n        uint256 ticketAmount\r\n    );\r\n    event ClaimedPrize(\r\n        address indexed winner,\r\n        uint256 lotteryIndex,\r\n        uint256 totalPrize,\r\n        uint256 fee\r\n    );\r\n    event ClaimedExpiredPrize(\r\n        address indexed winner,\r\n        address owner,\r\n        uint256 lotteryIndex,\r\n        uint256 totalPrize\r\n    );\r\n    event ChangedProperties(\r\n        address indexed owner,\r\n        string name,\r\n        uint256 ticketPrize,\r\n        uint256 fee,\r\n        uint32 minTicket,\r\n        uint256 configFinishTime,\r\n        uint256 configTimeToClaim\r\n    );\r\n\r\n    constructor(\r\n        uint64 _subscriptionId,\r\n        address _cordinatorAddress,\r\n        bytes32 _keyHash,\r\n        string memory _name,\r\n        uint256 _ticketPrice,\r\n        uint32 _minTicket,\r\n        uint256 _fee\r\n    ) VRFV2Consumer(_subscriptionId, _cordinatorAddress, _keyHash) {\r\n        uint256 currentLottery = lotteryId.current();\r\n\r\n        lottery[currentLottery].name = _name;\r\n        lottery[currentLottery].ticketPrice = _ticketPrice;\r\n        lottery[currentLottery].minTicket = _minTicket;\r\n\r\n        fee = _fee;\r\n        lotteryName = _name;\r\n        configFinishTime = 10 minutes;\r\n        configTimeToClaim = 7 days;\r\n        ticketPrice = _ticketPrice;\r\n        minTicket = _minTicket;\r\n    }\r\n\r\n    function buyTicket() external payable nonReentrant {\r\n        uint256 currentLottery = lotteryId.current();\r\n        require(\r\n            !lottery[currentLottery].finalized,\r\n            \"This lottery has already finalized, wait for results!\"\r\n        );\r\n        require(\r\n            lottery[currentLottery].ticketPrice == msg.value,\r\n            \"You need to pay the exactly ticket price.\"\r\n        );\r\n\r\n        uint256 currentLotteryPosition = lottery[currentLottery]\r\n            .ticketsCount\r\n            .current();\r\n        lottery[currentLottery].ticketsCount.increment();\r\n\r\n        ticketOwners[currentLottery][msg.sender].hasTicket = true;\r\n        ticketOwners[currentLottery][msg.sender].claimed = false;\r\n        ticketOwners[currentLottery][msg.sender].tickets.push(\r\n            currentLotteryPosition\r\n        );\r\n\r\n        tickets[currentLottery][currentLotteryPosition] = msg.sender;\r\n        lottery[currentLottery].balance += msg.value;\r\n\r\n        uint256 nextLotteryPosition = lottery[currentLottery]\r\n            .ticketsCount\r\n            .current();\r\n\r\n        if (\r\n            !lottery[currentLottery].finishTrigger &&\r\n            nextLotteryPosition >= lottery[currentLottery].minTicket\r\n        ) {\r\n            lottery[currentLottery].finishTrigger = true;\r\n            lottery[currentLottery].timeToFinish =\r\n                block.timestamp +\r\n                configFinishTime;\r\n\r\n            emit MinTicketsReached(\r\n                nextLotteryPosition,\r\n                lottery[currentLottery].minTicket,\r\n                lottery[currentLottery].balance,\r\n                lottery[currentLottery].timeToFinish\r\n            );\r\n        }\r\n\r\n        emit TicketBought(msg.sender, msg.value, currentLottery);\r\n    }\r\n\r\n    function finalizeLottery() private {\r\n        uint256 currentLottery = lotteryId.current();\r\n        uint256 currentLotteryPosition = lottery[currentLottery]\r\n            .ticketsCount\r\n            .current();\r\n\r\n        require(\r\n            lottery[currentLottery].minTicket < currentLotteryPosition,\r\n            \"It Didnt reach min tickets yet.\"\r\n        );\r\n\r\n        require(\r\n            !lottery[currentLottery].finalized,\r\n            \"Lottery already finalized.\"\r\n        );\r\n\r\n        lottery[currentLottery].finalized = true;\r\n        lottery[currentLottery].indexChainLink = requestRandomWords(1);\r\n        emit LotteryFinalized(\r\n            msg.sender,\r\n            lottery[currentLottery].balance,\r\n            lottery[currentLottery].ticketsCount.current()\r\n        );\r\n    }\r\n\r\n    function fulfillRandomWords(\r\n        uint256 _requestId,\r\n        uint256[] memory _randomWords\r\n    ) internal override {\r\n        super.fulfillRandomWords(_requestId, _randomWords);\r\n        uint256 currentLottery = lotteryId.current();\r\n        uint256 currentLotteryPosition = lottery[currentLottery]\r\n            .ticketsCount\r\n            .current();\r\n        if (_requestId == lottery[currentLottery].indexChainLink) {\r\n            lottery[currentLottery].winner = tickets[currentLottery][\r\n                _randomWords[0] % currentLotteryPosition\r\n            ];\r\n            lottery[currentLottery].timeToClaim =\r\n                block.timestamp +\r\n                configFinishTime;\r\n            require(resetLottery(), \"Lottery needs to be reseted\");\r\n        }\r\n    }\r\n\r\n    function claim(uint256 lotteryIndex) external nonReentrant {\r\n        require(\r\n            !lottery[lotteryIndex].claimed,\r\n            \"The winner already claimed its prize.\"\r\n        );\r\n        require(\r\n            lottery[lotteryIndex].finalized,\r\n            \"This lottery isn't finalized yet.\"\r\n        );\r\n        require(\r\n            lottery[lotteryIndex].winner != address(0),\r\n            \"This lottery didn't get a winner yet.\"\r\n        );\r\n        require(\r\n            lottery[lotteryIndex].winner == msg.sender,\r\n            \"You're not the winner.\"\r\n        );\r\n        require(\r\n            ticketOwners[lotteryIndex][msg.sender].hasTicket,\r\n            \"You dont have any ticket to claim here.\"\r\n        );\r\n        require(\r\n            !ticketOwners[lotteryIndex][msg.sender].claimed,\r\n            \"You have alread claimed your prize.\"\r\n        );\r\n        lottery[lotteryIndex].claimed = true;\r\n        ticketOwners[lotteryIndex][msg.sender].hasTicket = false;\r\n        ticketOwners[lotteryIndex][msg.sender].claimed = true;\r\n\r\n        uint256 _feeAmount = _calcFee(lottery[lotteryIndex].balance);\r\n        uint256 prize = lottery[lotteryIndex].balance - _feeAmount;\r\n\r\n        payable(owner()).transfer(_feeAmount);\r\n        payable(msg.sender).transfer(prize);\r\n        emit ClaimedPrize(msg.sender, lotteryIndex, prize, _feeAmount);\r\n    }\r\n\r\n    function claimExpiredLottery(uint256 lotteryIndex) external onlyOwner {\r\n        require(\r\n            !lottery[lotteryIndex].claimed,\r\n            \"The winner already claimed its prize.\"\r\n        );\r\n        require(\r\n            lottery[lotteryIndex].finalized,\r\n            \"This lottery isn't finalized yet.\"\r\n        );\r\n        require(\r\n            lottery[lotteryIndex].winner != address(0),\r\n            \"This lottery didn't get a winner yet.\"\r\n        );\r\n        require(\r\n            lottery[lotteryIndex].timeToClaim < block.timestamp,\r\n            \"You can't claim before timeToClaim get expired.\"\r\n        );\r\n\r\n        lottery[lotteryIndex].claimed = true;\r\n\r\n        payable(owner()).transfer(lottery[lotteryIndex].balance);\r\n        emit ClaimedExpiredPrize(lottery[lotteryIndex].winner, msg.sender, lotteryIndex, lottery[lotteryIndex].balance);\r\n    }\r\n\r\n    function resetLottery() private returns (bool) {\r\n        lotteryId.increment();\r\n        uint256 nextLottery = lotteryId.current();\r\n\r\n        lottery[nextLottery].name = lotteryName;\r\n        lottery[nextLottery].ticketPrice = ticketPrice;\r\n        lottery[nextLottery].minTicket = minTicket;\r\n\r\n        return true;\r\n    }\r\n\r\n    function _calcFee(uint256 amount) private view returns (uint256) {\r\n        return (amount * fee) / 100;\r\n    }\r\n\r\n    function setProperties(\r\n        string memory _name,\r\n        uint256 _ticketPrice,\r\n        uint32 _minTicket,\r\n        uint256 _configFinishTime,\r\n        uint256 _configTimeToClaim,\r\n        uint256 _fee\r\n    ) external onlyOwner {\r\n        require(_fee <= 30, \"Fee can't be better than 30%\");\r\n\r\n        fee = _fee;\r\n        configFinishTime = _configFinishTime;\r\n        configTimeToClaim = _configTimeToClaim;\r\n        ticketPrice = _ticketPrice;\r\n        minTicket = _minTicket;\r\n        emit ChangedProperties(\r\n            msg.sender,\r\n            _name,\r\n            _ticketPrice,\r\n            _fee,\r\n            _minTicket,\r\n            _configFinishTime,\r\n            _configTimeToClaim\r\n        );\r\n    }\r\n\r\n    function getLotteryStatus(\r\n        uint256 _lotteryId\r\n    ) public view returns (LotteryStruct memory _lottery) {\r\n        return lottery[_lotteryId];\r\n    }\r\n\r\n    function getUserStatus(\r\n        uint256 _lotteryId,\r\n        address _user\r\n    ) public view returns (User memory _returnedUser) {\r\n        return ticketOwners[_lotteryId][_user];\r\n    }\r\n\r\n    // Only if we have some problem to use this\r\n    function getAllBalance() external onlyOwner {\r\n        payable(msg.sender).transfer(address(this).balance);\r\n    }\r\n\r\n    function checkUpkeep(\r\n        bytes calldata /* checkData */\r\n    )\r\n        external\r\n        view\r\n        override\r\n        returns (bool upkeepNeeded, bytes memory /* performData */)\r\n    {\r\n        uint256 currentLottery = lotteryId.current();\r\n        upkeepNeeded = (lottery[currentLottery].finishTrigger &&\r\n            block.timestamp > lottery[currentLottery].timeToFinish);\r\n    }\r\n\r\n    function performUpkeep(bytes calldata /* performData */) external override {\r\n        uint256 currentLottery = lotteryId.current();\r\n\r\n        require(\r\n            (lottery[currentLottery].finishTrigger &&\r\n                block.timestamp > lottery[currentLottery].timeToFinish),\r\n            \"Not read yet\"\r\n        );\r\n        finalizeLottery();\r\n    }\r\n}\r\n",
  "sourcePath": "C:\\lucas_blockchain\\Projetos\\LottoCrypto\\Truffle\\contracts\\Lottery.sol",
  "compiler": {
    "name": "solc",
    "version": "0.8.17+commit.8df45f5f.Emscripten.clang"
  },
  "schemaVersion": "3.4.10",
  "updatedAt": "2023-03-08T18:23:35.769Z",
  "networkType": "ethereum",
  "devdoc": {
    "kind": "dev",
    "methods": {
      "owner()": {
        "details": "Returns the address of the current owner."
      },
      "renounceOwnership()": {
        "details": "Leaves the contract without owner. It will not be possible to call `onlyOwner` functions anymore. Can only be called by the current owner. NOTE: Renouncing ownership will leave the contract without an owner, thereby removing any functionality that is only available to the owner."
      },
      "transferOwnership(address)": {
        "details": "Transfers ownership of the contract to a new account (`newOwner`). Can only be called by the current owner."
      }
    },
    "version": 1
  },
  "userdoc": {
    "kind": "user",
    "methods": {},
    "version": 1
  }
}