{
  "contractName": "Lottery",
  "abi": [
    {
      "inputs": [
        {
          "internalType": "uint64",
          "name": "_subscriptionId",
          "type": "uint64"
        },
        {
          "internalType": "address",
          "name": "_cordinatorAddress",
          "type": "address"
        },
        {
          "internalType": "bytes32",
          "name": "_keyHash",
          "type": "bytes32"
        },
        {
          "internalType": "string",
          "name": "_name",
          "type": "string"
        },
        {
          "internalType": "uint256",
          "name": "_ticketPrice",
          "type": "uint256"
        },
        {
          "internalType": "uint32",
          "name": "_minTicket",
          "type": "uint32"
        },
        {
          "internalType": "uint256",
          "name": "_fee",
          "type": "uint256"
        }
      ],
      "stateMutability": "nonpayable",
      "type": "constructor"
    },
    {
      "inputs": [
        {
          "internalType": "address",
          "name": "have",
          "type": "address"
        },
        {
          "internalType": "address",
          "name": "want",
          "type": "address"
        }
      ],
      "name": "OnlyCoordinatorCanFulfill",
      "type": "error"
    },
    {
      "anonymous": false,
      "inputs": [
        {
          "indexed": true,
          "internalType": "address",
          "name": "owner",
          "type": "address"
        },
        {
          "indexed": false,
          "internalType": "string",
          "name": "name",
          "type": "string"
        },
        {
          "indexed": false,
          "internalType": "uint256",
          "name": "ticketPrize",
          "type": "uint256"
        },
        {
          "indexed": false,
          "internalType": "uint256",
          "name": "fee",
          "type": "uint256"
        },
        {
          "indexed": false,
          "internalType": "uint32",
          "name": "minTicket",
          "type": "uint32"
        },
        {
          "indexed": false,
          "internalType": "uint256",
          "name": "configFinishTime",
          "type": "uint256"
        },
        {
          "indexed": false,
          "internalType": "uint256",
          "name": "configTimeToClaim",
          "type": "uint256"
        }
      ],
      "name": "ChangedProperties",
      "type": "event"
    },
    {
      "anonymous": false,
      "inputs": [
        {
          "indexed": true,
          "internalType": "address",
          "name": "winner",
          "type": "address"
        },
        {
          "indexed": false,
          "internalType": "address",
          "name": "owner",
          "type": "address"
        },
        {
          "indexed": false,
          "internalType": "uint256",
          "name": "lotteryIndex",
          "type": "uint256"
        },
        {
          "indexed": false,
          "internalType": "uint256",
          "name": "totalPrize",
          "type": "uint256"
        }
      ],
      "name": "ClaimedExpiredPrize",
      "type": "event"
    },
    {
      "anonymous": false,
      "inputs": [
        {
          "indexed": true,
          "internalType": "address",
          "name": "winner",
          "type": "address"
        },
        {
          "indexed": false,
          "internalType": "uint256",
          "name": "lotteryIndex",
          "type": "uint256"
        },
        {
          "indexed": false,
          "internalType": "uint256",
          "name": "totalPrize",
          "type": "uint256"
        },
        {
          "indexed": false,
          "internalType": "uint256",
          "name": "fee",
          "type": "uint256"
        }
      ],
      "name": "ClaimedPrize",
      "type": "event"
    },
    {
      "anonymous": false,
      "inputs": [
        {
          "indexed": false,
          "internalType": "address",
          "name": "owner",
          "type": "address"
        },
        {
          "indexed": false,
          "internalType": "uint256",
          "name": "totalValue",
          "type": "uint256"
        },
        {
          "indexed": false,
          "internalType": "uint256",
          "name": "ticketAmount",
          "type": "uint256"
        }
      ],
      "name": "LotteryFinalized",
      "type": "event"
    },
    {
      "anonymous": false,
      "inputs": [
        {
          "indexed": false,
          "internalType": "uint256",
          "name": "ticketNumber",
          "type": "uint256"
        },
        {
          "indexed": false,
          "internalType": "uint32",
          "name": "minTickets",
          "type": "uint32"
        },
        {
          "indexed": false,
          "internalType": "uint256",
          "name": "balance",
          "type": "uint256"
        },
        {
          "indexed": false,
          "internalType": "uint256",
          "name": "finishTime",
          "type": "uint256"
        }
      ],
      "name": "MinTicketsReached",
      "type": "event"
    },
    {
      "anonymous": false,
      "inputs": [
        {
          "indexed": true,
          "internalType": "address",
          "name": "previousOwner",
          "type": "address"
        },
        {
          "indexed": true,
          "internalType": "address",
          "name": "newOwner",
          "type": "address"
        }
      ],
      "name": "OwnershipTransferred",
      "type": "event"
    },
    {
      "anonymous": false,
      "inputs": [
        {
          "indexed": false,
          "internalType": "uint256",
          "name": "requestId",
          "type": "uint256"
        },
        {
          "indexed": false,
          "internalType": "uint256[]",
          "name": "randomWords",
          "type": "uint256[]"
        }
      ],
      "name": "RequestFulfilled",
      "type": "event"
    },
    {
      "anonymous": false,
      "inputs": [
        {
          "indexed": false,
          "internalType": "uint256",
          "name": "requestId",
          "type": "uint256"
        },
        {
          "indexed": false,
          "internalType": "uint32",
          "name": "numWords",
          "type": "uint32"
        }
      ],
      "name": "RequestSent",
      "type": "event"
    },
    {
      "anonymous": false,
      "inputs": [
        {
          "indexed": true,
          "internalType": "address",
          "name": "buyer",
          "type": "address"
        },
        {
          "indexed": false,
          "internalType": "uint256",
          "name": "price",
          "type": "uint256"
        },
        {
          "indexed": false,
          "internalType": "uint256",
          "name": "ticketNumber",
          "type": "uint256"
        }
      ],
      "name": "TicketBought",
      "type": "event"
    },
    {
      "inputs": [],
      "name": "configFinishTime",
      "outputs": [
        {
          "internalType": "uint256",
          "name": "",
          "type": "uint256"
        }
      ],
      "stateMutability": "view",
      "type": "function",
      "constant": true
    },
    {
      "inputs": [],
      "name": "configTimeToClaim",
      "outputs": [
        {
          "internalType": "uint256",
          "name": "",
          "type": "uint256"
        }
      ],
      "stateMutability": "view",
      "type": "function",
      "constant": true
    },
    {
      "inputs": [],
      "name": "fee",
      "outputs": [
        {
          "internalType": "uint256",
          "name": "",
          "type": "uint256"
        }
      ],
      "stateMutability": "view",
      "type": "function",
      "constant": true
    },
    {
      "inputs": [
        {
          "internalType": "uint256",
          "name": "_requestId",
          "type": "uint256"
        }
      ],
      "name": "getRequestStatus",
      "outputs": [
        {
          "internalType": "bool",
          "name": "fulfilled",
          "type": "bool"
        },
        {
          "internalType": "uint256[]",
          "name": "randomWords",
          "type": "uint256[]"
        }
      ],
      "stateMutability": "view",
      "type": "function",
      "constant": true
    },
    {
      "inputs": [],
      "name": "lastRequestId",
      "outputs": [
        {
          "internalType": "uint256",
          "name": "",
          "type": "uint256"
        }
      ],
      "stateMutability": "view",
      "type": "function",
      "constant": true
    },
    {
      "inputs": [],
      "name": "lotteryId",
      "outputs": [
        {
          "internalType": "uint256",
          "name": "_value",
          "type": "uint256"
        }
      ],
      "stateMutability": "view",
      "type": "function",
      "constant": true
    },
    {
      "inputs": [],
      "name": "lotteryName",
      "outputs": [
        {
          "internalType": "string",
          "name": "",
          "type": "string"
        }
      ],
      "stateMutability": "view",
      "type": "function",
      "constant": true
    },
    {
      "inputs": [],
      "name": "minTicket",
      "outputs": [
        {
          "internalType": "uint32",
          "name": "",
          "type": "uint32"
        }
      ],
      "stateMutability": "view",
      "type": "function",
      "constant": true
    },
    {
      "inputs": [],
      "name": "owner",
      "outputs": [
        {
          "internalType": "address",
          "name": "",
          "type": "address"
        }
      ],
      "stateMutability": "view",
      "type": "function",
      "constant": true
    },
    {
      "inputs": [
        {
          "internalType": "uint256",
          "name": "requestId",
          "type": "uint256"
        },
        {
          "internalType": "uint256[]",
          "name": "randomWords",
          "type": "uint256[]"
        }
      ],
      "name": "rawFulfillRandomWords",
      "outputs": [],
      "stateMutability": "nonpayable",
      "type": "function"
    },
    {
      "inputs": [],
      "name": "renounceOwnership",
      "outputs": [],
      "stateMutability": "nonpayable",
      "type": "function"
    },
    {
      "inputs": [
        {
          "internalType": "uint256",
          "name": "",
          "type": "uint256"
        }
      ],
      "name": "requestIds",
      "outputs": [
        {
          "internalType": "uint256",
          "name": "",
          "type": "uint256"
        }
      ],
      "stateMutability": "view",
      "type": "function",
      "constant": true
    },
    {
      "inputs": [
        {
          "internalType": "uint256",
          "name": "",
          "type": "uint256"
        }
      ],
      "name": "s_requests",
      "outputs": [
        {
          "internalType": "bool",
          "name": "fulfilled",
          "type": "bool"
        },
        {
          "internalType": "bool",
          "name": "exists",
          "type": "bool"
        }
      ],
      "stateMutability": "view",
      "type": "function",
      "constant": true
    },
    {
      "inputs": [
        {
          "internalType": "uint32",
          "name": "_callBackGasLimit",
          "type": "uint32"
        }
      ],
      "name": "setCallBackGasLimit",
      "outputs": [],
      "stateMutability": "nonpayable",
      "type": "function"
    },
    {
      "inputs": [
        {
          "internalType": "bytes32",
          "name": "_keyHash",
          "type": "bytes32"
        }
      ],
      "name": "setKeyHashValue",
      "outputs": [],
      "stateMutability": "nonpayable",
      "type": "function"
    },
    {
      "inputs": [
        {
          "internalType": "uint16",
          "name": "_requestConfirmations",
          "type": "uint16"
        }
      ],
      "name": "setRequestConfirmations",
      "outputs": [],
      "stateMutability": "nonpayable",
      "type": "function"
    },
    {
      "inputs": [],
      "name": "ticketPrice",
      "outputs": [
        {
          "internalType": "uint256",
          "name": "",
          "type": "uint256"
        }
      ],
      "stateMutability": "view",
      "type": "function",
      "constant": true
    },
    {
      "inputs": [
        {
          "internalType": "address",
          "name": "newOwner",
          "type": "address"
        }
      ],
      "name": "transferOwnership",
      "outputs": [],
      "stateMutability": "nonpayable",
      "type": "function"
    },
    {
      "inputs": [],
      "name": "buyTicket",
      "outputs": [],
      "stateMutability": "payable",
      "type": "function",
      "payable": true
    },
    {
      "inputs": [
        {
          "internalType": "uint256",
          "name": "lotteryIndex",
          "type": "uint256"
        }
      ],
      "name": "claim",
      "outputs": [],
      "stateMutability": "nonpayable",
      "type": "function"
    },
    {
      "inputs": [
        {
          "internalType": "uint256",
          "name": "lotteryIndex",
          "type": "uint256"
        }
      ],
      "name": "claimExpiredLottery",
      "outputs": [],
      "stateMutability": "nonpayable",
      "type": "function"
    },
    {
      "inputs": [
        {
          "internalType": "string",
          "name": "_name",
          "type": "string"
        },
        {
          "internalType": "uint256",
          "name": "_ticketPrice",
          "type": "uint256"
        },
        {
          "internalType": "uint32",
          "name": "_minTicket",
          "type": "uint32"
        },
        {
          "internalType": "uint256",
          "name": "_configFinishTime",
          "type": "uint256"
        },
        {
          "internalType": "uint256",
          "name": "_configTimeToClaim",
          "type": "uint256"
        },
        {
          "internalType": "uint256",
          "name": "_fee",
          "type": "uint256"
        }
      ],
      "name": "setProperties",
      "outputs": [],
      "stateMutability": "nonpayable",
      "type": "function"
    },
    {
      "inputs": [
        {
          "internalType": "uint256",
          "name": "_lotteryId",
          "type": "uint256"
        }
      ],
      "name": "getLotteryStatus",
      "outputs": [
        {
          "components": [
            {
              "internalType": "string",
              "name": "name",
              "type": "string"
            },
            {
              "internalType": "uint256",
              "name": "ticketPrice",
              "type": "uint256"
            },
            {
              "components": [
                {
                  "internalType": "uint256",
                  "name": "_value",
                  "type": "uint256"
                }
              ],
              "internalType": "struct Counters.Counter",
              "name": "ticketsCount",
              "type": "tuple"
            },
            {
              "internalType": "uint256",
              "name": "startedTime",
              "type": "uint256"
            },
            {
              "internalType": "uint256",
              "name": "balance",
              "type": "uint256"
            },
            {
              "internalType": "bool",
              "name": "finalized",
              "type": "bool"
            },
            {
              "internalType": "uint256",
              "name": "indexChainLink",
              "type": "uint256"
            },
            {
              "internalType": "address",
              "name": "winner",
              "type": "address"
            },
            {
              "internalType": "bool",
              "name": "claimed",
              "type": "bool"
            },
            {
              "internalType": "uint32",
              "name": "minTicket",
              "type": "uint32"
            },
            {
              "internalType": "bool",
              "name": "finishTrigger",
              "type": "bool"
            },
            {
              "internalType": "uint256",
              "name": "timeToFinish",
              "type": "uint256"
            },
            {
              "internalType": "uint256",
              "name": "timeToClaim",
              "type": "uint256"
            }
          ],
          "internalType": "struct Lottery.LotteryStruct",
          "name": "_lottery",
          "type": "tuple"
        }
      ],
      "stateMutability": "view",
      "type": "function",
      "constant": true
    },
    {
      "inputs": [
        {
          "internalType": "uint256",
          "name": "_lotteryId",
          "type": "uint256"
        },
        {
          "internalType": "address",
          "name": "_user",
          "type": "address"
        }
      ],
      "name": "getUserStatus",
      "outputs": [
        {
          "components": [
            {
              "internalType": "bool",
              "name": "hasTicket",
              "type": "bool"
            },
            {
              "internalType": "bool",
              "name": "claimed",
              "type": "bool"
            },
            {
              "internalType": "uint256[]",
              "name": "tickets",
              "type": "uint256[]"
            }
          ],
          "internalType": "struct Lottery.User",
          "name": "_returnedUser",
          "type": "tuple"
        }
      ],
      "stateMutability": "view",
      "type": "function",
      "constant": true
    },
    {
      "inputs": [],
      "name": "getAllBalance",
      "outputs": [],
      "stateMutability": "nonpayable",
      "type": "function"
    },
    {
      "inputs": [
        {
          "internalType": "bytes",
          "name": "",
          "type": "bytes"
        }
      ],
      "name": "checkUpkeep",
      "outputs": [
        {
          "internalType": "bool",
          "name": "upkeepNeeded",
          "type": "bool"
        },
        {
          "internalType": "bytes",
          "name": "",
          "type": "bytes"
        }
      ],
      "stateMutability": "view",
      "type": "function",
      "constant": true
    },
    {
      "inputs": [
        {
          "internalType": "bytes",
          "name": "",
          "type": "bytes"
        }
      ],
      "name": "performUpkeep",
      "outputs": [],
      "stateMutability": "nonpayable",
      "type": "function"
    }
  ],
  "bytecode": "0x60a06040523480156200001157600080fd5b5060405162004dc338038062004dc3833981810160405281019062000037919062000629565b868686818073ffffffffffffffffffffffffffffffffffffffff1660808173ffffffffffffffffffffffffffffffffffffffff16815250505062000090620000846200025b60201b60201c565b6200026360201b60201c565b6001808190555081600360006101000a81548173ffffffffffffffffffffffffffffffffffffffff021916908373ffffffffffffffffffffffffffffffffffffffff16021790555082600360146101000a81548167ffffffffffffffff021916908367ffffffffffffffff160217905550806006819055506207a120600760006101000a81548163ffffffff021916908363ffffffff1602179055506003600760046101000a81548161ffff021916908361ffff160217905550505050600062000166600b6200032760201b62001cf21760201c565b905084600a600083815260200190815260200160002060000190816200018d91906200093c565b5083600a60008381526020019081526020016000206001018190555082600a600083815260200190815260200160002060070160156101000a81548163ffffffff021916908363ffffffff16021790555042600a60008381526020019081526020016000206003018190555081600c8190555084601190816200021191906200093c565b50610258600d8190555062093a80600e819055508360108190555082600f60006101000a81548163ffffffff021916908363ffffffff160217905550505050505050505062000a23565b600033905090565b60008060009054906101000a900473ffffffffffffffffffffffffffffffffffffffff169050816000806101000a81548173ffffffffffffffffffffffffffffffffffffffff021916908373ffffffffffffffffffffffffffffffffffffffff1602179055508173ffffffffffffffffffffffffffffffffffffffff168173ffffffffffffffffffffffffffffffffffffffff167f8be0079c531659141344cd1fd0a4f28419497f9722a3daafe3b4186f6b6457e060405160405180910390a35050565b600081600001549050919050565b6000604051905090565b600080fd5b600080fd5b600067ffffffffffffffff82169050919050565b620003688162000349565b81146200037457600080fd5b50565b60008151905062000388816200035d565b92915050565b600073ffffffffffffffffffffffffffffffffffffffff82169050919050565b6000620003bb826200038e565b9050919050565b620003cd81620003ae565b8114620003d957600080fd5b50565b600081519050620003ed81620003c2565b92915050565b6000819050919050565b6200040881620003f3565b81146200041457600080fd5b50565b6000815190506200042881620003fd565b92915050565b600080fd5b600080fd5b6000601f19601f8301169050919050565b7f4e487b7100000000000000000000000000000000000000000000000000000000600052604160045260246000fd5b620004838262000438565b810181811067ffffffffffffffff82111715620004a557620004a462000449565b5b80604052505050565b6000620004ba62000335565b9050620004c8828262000478565b919050565b600067ffffffffffffffff821115620004eb57620004ea62000449565b5b620004f68262000438565b9050602081019050919050565b60005b838110156200052357808201518184015260208101905062000506565b60008484015250505050565b6000620005466200054084620004cd565b620004ae565b90508281526020810184848401111562000565576200056462000433565b5b6200057284828562000503565b509392505050565b600082601f8301126200059257620005916200042e565b5b8151620005a48482602086016200052f565b91505092915050565b6000819050919050565b620005c281620005ad565b8114620005ce57600080fd5b50565b600081519050620005e281620005b7565b92915050565b600063ffffffff82169050919050565b6200060381620005e8565b81146200060f57600080fd5b50565b6000815190506200062381620005f8565b92915050565b600080600080600080600060e0888a0312156200064b576200064a6200033f565b5b60006200065b8a828b0162000377565b97505060206200066e8a828b01620003dc565b9650506040620006818a828b0162000417565b955050606088015167ffffffffffffffff811115620006a557620006a462000344565b5b620006b38a828b016200057a565b9450506080620006c68a828b01620005d1565b93505060a0620006d98a828b0162000612565b92505060c0620006ec8a828b01620005d1565b91505092959891949750929550565b600081519050919050565b7f4e487b7100000000000000000000000000000000000000000000000000000000600052602260045260246000fd5b600060028204905060018216806200074e57607f821691505b60208210810362000764576200076362000706565b5b50919050565b60008190508160005260206000209050919050565b60006020601f8301049050919050565b600082821b905092915050565b600060088302620007ce7fffffffffffffffffffffffffffffffffffffffffffffffffffffffffffffffff826200078f565b620007da86836200078f565b95508019841693508086168417925050509392505050565b6000819050919050565b60006200081d620008176200081184620005ad565b620007f2565b620005ad565b9050919050565b6000819050919050565b6200083983620007fc565b62000851620008488262000824565b8484546200079c565b825550505050565b600090565b6200086862000859565b620008758184846200082e565b505050565b5b818110156200089d57620008916000826200085e565b6001810190506200087b565b5050565b601f821115620008ec57620008b6816200076a565b620008c1846200077f565b81016020851015620008d1578190505b620008e9620008e0856200077f565b8301826200087a565b50505b505050565b600082821c905092915050565b60006200091160001984600802620008f1565b1980831691505092915050565b60006200092c8383620008fe565b9150826002028217905092915050565b6200094782620006fb565b67ffffffffffffffff81111562000963576200096262000449565b5b6200096f825462000735565b6200097c828285620008a1565b600060209050601f831160018114620009b457600084156200099f578287015190505b620009ab85826200091e565b86555062000a1b565b601f198416620009c4866200076a565b60005b82811015620009ee57848901518255600182019150602085019450602081019050620009c7565b8683101562000a0e578489015162000a0a601f891682620008fe565b8355505b6001600288020188555050505b505050505050565b60805161437d62000a4660003960008181610646015261069a015261437d6000f3fe60806040526004361061019c5760003560e01c80638ff72293116100ec578063e575df721161008a578063edca914c11610064578063edca914c146105b5578063f2fde38b146105bf578063f6a30e3e146105e8578063fc2a88c3146106135761019c565b8063e575df7214610536578063e580f47b14610573578063eb9969a81461059e5761019c565b8063a7348e5f116100c6578063a7348e5f1461047b578063c468bf9c146104a4578063d8a4676f146104cd578063ddca3f431461050b5761019c565b80638ff72293146103d7578063982d808414610414578063a168fa891461043d5761019c565b80636e04ff0d116101595780638796ba8c116101335780638796ba8c1461031b5780638824f5a71461035857806389737fcf146103815780638da5cb5b146103ac5761019c565b80636e04ff0d1461029b578063715018a6146102d95780637cbcbd3c146102f05761019c565b80631209b1f6146101a15780631fe543e3146101cc57806323d14149146101f5578063379607f5146102205780634585e33b146102495780635cc2969514610272575b600080fd5b3480156101ad57600080fd5b506101b661063e565b6040516101c39190612769565b60405180910390f35b3480156101d857600080fd5b506101f360048036038101906101ee919061291d565b610644565b005b34801561020157600080fd5b5061020a610704565b60405161021791906129f8565b60405180910390f35b34801561022c57600080fd5b5061024760048036038101906102429190612a1a565b610792565b005b34801561025557600080fd5b50610270600480360381019061026b9190612aa2565b610d2f565b005b34801561027e57600080fd5b5061029960048036038101906102949190612be0565b610dce565b005b3480156102a757600080fd5b506102c260048036038101906102bd9190612aa2565b610eb7565b6040516102d0929190612cf9565b60405180910390f35b3480156102e557600080fd5b506102ee610f18565b005b3480156102fc57600080fd5b50610305610f2c565b6040516103129190612769565b60405180910390f35b34801561032757600080fd5b50610342600480360381019061033d9190612a1a565b610f32565b60405161034f9190612769565b60405180910390f35b34801561036457600080fd5b5061037f600480360381019061037a9190612d63565b610f56565b005b34801561038d57600080fd5b50610396610f7e565b6040516103a39190612769565b60405180910390f35b3480156103b857600080fd5b506103c1610f84565b6040516103ce9190612dd1565b60405180910390f35b3480156103e357600080fd5b506103fe60048036038101906103f99190612a1a565b610fad565b60405161040b9190612fa7565b60405180910390f35b34801561042057600080fd5b5061043b60048036038101906104369190612fc9565b611194565b005b34801561044957600080fd5b50610464600480360381019061045f9190612a1a565b6111c0565b604051610472929190612ff6565b60405180910390f35b34801561048757600080fd5b506104a2600480360381019061049d9190613055565b6111fe565b005b3480156104b057600080fd5b506104cb60048036038101906104c69190612a1a565b611210565b005b3480156104d957600080fd5b506104f460048036038101906104ef9190612a1a565b611510565b604051610502929190613131565b60405180910390f35b34801561051757600080fd5b5061052061163b565b60405161052d9190612769565b60405180910390f35b34801561054257600080fd5b5061055d6004803603810190610558919061318d565b611641565b60405161056a919061328c565b60405180910390f35b34801561057f57600080fd5b5061058861173a565b6040516105959190612769565b60405180910390f35b3480156105aa57600080fd5b506105b3611746565b005b6105bd611797565b005b3480156105cb57600080fd5b506105e660048036038101906105e191906132ae565b611c53565b005b3480156105f457600080fd5b506105fd611cd6565b60405161060a91906132ea565b60405180910390f35b34801561061f57600080fd5b50610628611cec565b6040516106359190612769565b60405180910390f35b60105481565b7f000000000000000000000000000000000000000000000000000000000000000073ffffffffffffffffffffffffffffffffffffffff163373ffffffffffffffffffffffffffffffffffffffff16146106f657337f00000000000000000000000000000000000000000000000000000000000000006040517f1cf993f40000000000000000000000000000000000000000000000000000000081526004016106ed929190613305565b60405180910390fd5b6107008282611d00565b5050565b601180546107119061335d565b80601f016020809104026020016040519081016040528092919081815260200182805461073d9061335d565b801561078a5780601f1061075f5761010080835404028352916020019161078a565b820191906000526020600020905b81548152906001019060200180831161076d57829003601f168201915b505050505081565b61079a611e8c565b600a600082815260200190815260200160002060070160149054906101000a900460ff16156107fe576040517f08c379a00000000000000000000000000000000000000000000000000000000081526004016107f590613400565b60405180910390fd5b600a600082815260200190815260200160002060050160009054906101000a900460ff16610861576040517f08c379a000000000000000000000000000000000000000000000000000000000815260040161085890613492565b60405180910390fd5b600073ffffffffffffffffffffffffffffffffffffffff16600a600083815260200190815260200160002060070160009054906101000a900473ffffffffffffffffffffffffffffffffffffffff1673ffffffffffffffffffffffffffffffffffffffff1603610906576040517f08c379a00000000000000000000000000000000000000000000000000000000081526004016108fd90613524565b60405180910390fd5b3373ffffffffffffffffffffffffffffffffffffffff16600a600083815260200190815260200160002060070160009054906101000a900473ffffffffffffffffffffffffffffffffffffffff1673ffffffffffffffffffffffffffffffffffffffff16146109aa576040517f08c379a00000000000000000000000000000000000000000000000000000000081526004016109a190613590565b60405180910390fd5b6008600082815260200190815260200160002060003373ffffffffffffffffffffffffffffffffffffffff1673ffffffffffffffffffffffffffffffffffffffff16815260200190815260200160002060000160009054906101000a900460ff16610a4a576040517f08c379a0000000000000000000000000000000000000000000000000000000008152600401610a4190613622565b60405180910390fd5b6008600082815260200190815260200160002060003373ffffffffffffffffffffffffffffffffffffffff1673ffffffffffffffffffffffffffffffffffffffff16815260200190815260200160002060000160019054906101000a900460ff1615610aeb576040517f08c379a0000000000000000000000000000000000000000000000000000000008152600401610ae2906136b4565b60405180910390fd5b6001600a600083815260200190815260200160002060070160146101000a81548160ff02191690831515021790555060006008600083815260200190815260200160002060003373ffffffffffffffffffffffffffffffffffffffff1673ffffffffffffffffffffffffffffffffffffffff16815260200190815260200160002060000160006101000a81548160ff02191690831515021790555060016008600083815260200190815260200160002060003373ffffffffffffffffffffffffffffffffffffffff1673ffffffffffffffffffffffffffffffffffffffff16815260200190815260200160002060000160016101000a81548160ff0219169083151502179055506000610c13600a600084815260200190815260200160002060040154611edb565b9050600081600a600085815260200190815260200160002060040154610c399190613703565b9050610c43610f84565b73ffffffffffffffffffffffffffffffffffffffff166108fc839081150290604051600060405180830381858888f19350505050158015610c88573d6000803e3d6000fd5b503373ffffffffffffffffffffffffffffffffffffffff166108fc829081150290604051600060405180830381858888f19350505050158015610ccf573d6000803e3d6000fd5b503373ffffffffffffffffffffffffffffffffffffffff167f588837c8642bd1b376f9f89a12784072019e42aa3f6412a48ebd1f450a113e18848385604051610d1a93929190613737565b60405180910390a25050610d2c611efe565b50565b6000610d3b600b611cf2565b9050600a600082815260200190815260200160002060070160199054906101000a900460ff168015610d825750600a60008281526020019081526020016000206008015442115b610dc1576040517f08c379a0000000000000000000000000000000000000000000000000000000008152600401610db8906137ba565b60405180910390fd5b610dc9611f07565b505050565b610dd66120cf565b601e811115610e1a576040517f08c379a0000000000000000000000000000000000000000000000000000000008152600401610e1190613826565b60405180910390fd5b80600c8190555082600d8190555081600e819055508460108190555083600f60006101000a81548163ffffffff021916908363ffffffff1602179055503373ffffffffffffffffffffffffffffffffffffffff167fdfcfcdeac7cdd38c4b0a0537d363f95fa8d7cce818fd23989dc2f35f11a90ae3878784888888604051610ea796959493929190613846565b60405180910390a2505050505050565b600060606000610ec7600b611cf2565b9050600a600082815260200190815260200160002060070160199054906101000a900460ff168015610f0e5750600a60008281526020019081526020016000206008015442115b9250509250929050565b610f206120cf565b610f2a600061214d565b565b600d5481565b60048181548110610f4257600080fd5b906000526020600020016000915090505481565b610f5e6120cf565b80600760046101000a81548161ffff021916908361ffff16021790555050565b600e5481565b60008060009054906101000a900473ffffffffffffffffffffffffffffffffffffffff16905090565b610fb561261e565b600a6000838152602001908152602001600020604051806101a0016040529081600082018054610fe49061335d565b80601f01602080910402602001604051908101604052809291908181526020018280546110109061335d565b801561105d5780601f106110325761010080835404028352916020019161105d565b820191906000526020600020905b81548152906001019060200180831161104057829003601f168201915b505050505081526020016001820154815260200160028201604051806020016040529081600082015481525050815260200160038201548152602001600482015481526020016005820160009054906101000a900460ff16151515158152602001600682015481526020016007820160009054906101000a900473ffffffffffffffffffffffffffffffffffffffff1673ffffffffffffffffffffffffffffffffffffffff1673ffffffffffffffffffffffffffffffffffffffff1681526020016007820160149054906101000a900460ff161515151581526020016007820160159054906101000a900463ffffffff1663ffffffff1663ffffffff1681526020016007820160199054906101000a900460ff16151515158152602001600882015481526020016009820154815250509050919050565b61119c6120cf565b80600760006101000a81548163ffffffff021916908363ffffffff16021790555050565b60026020528060005260406000206000915090508060000160009054906101000a900460ff16908060000160019054906101000a900460ff16905082565b6112066120cf565b8060068190555050565b6112186120cf565b600a600082815260200190815260200160002060070160149054906101000a900460ff161561127c576040517f08c379a000000000000000000000000000000000000000000000000000000000815260040161127390613400565b60405180910390fd5b600a600082815260200190815260200160002060050160009054906101000a900460ff166112df576040517f08c379a00000000000000000000000000000000000000000000000000000000081526004016112d690613492565b60405180910390fd5b600073ffffffffffffffffffffffffffffffffffffffff16600a600083815260200190815260200160002060070160009054906101000a900473ffffffffffffffffffffffffffffffffffffffff1673ffffffffffffffffffffffffffffffffffffffff1603611384576040517f08c379a000000000000000000000000000000000000000000000000000000000815260040161137b90613524565b60405180910390fd5b42600a600083815260200190815260200160002060090154106113dc576040517f08c379a00000000000000000000000000000000000000000000000000000000081526004016113d390613920565b60405180910390fd5b6001600a600083815260200190815260200160002060070160146101000a81548160ff021916908315150217905550611413610f84565b73ffffffffffffffffffffffffffffffffffffffff166108fc600a6000848152602001908152602001600020600401549081150290604051600060405180830381858888f1935050505015801561146e573d6000803e3d6000fd5b50600a600082815260200190815260200160002060070160009054906101000a900473ffffffffffffffffffffffffffffffffffffffff1673ffffffffffffffffffffffffffffffffffffffff167f18871ffdb80828adbbab2e9a9ecbe66822633e5b565d86f4fe5cbbd6871f02793383600a60008681526020019081526020016000206004015460405161150593929190613940565b60405180910390a250565b600060606002600084815260200190815260200160002060000160019054906101000a900460ff16611577576040517f08c379a000000000000000000000000000000000000000000000000000000000815260040161156e906139c3565b60405180910390fd5b6000600260008581526020019081526020016000206040518060600160405290816000820160009054906101000a900460ff161515151581526020016000820160019054906101000a900460ff161515151581526020016001820180548060200260200160405190810160405280929190818152602001828054801561161c57602002820191906000526020600020905b815481526020019060010190808311611608575b5050505050815250509050806000015181604001519250925050915091565b600c5481565b6116496126ae565b6008600084815260200190815260200160002060008373ffffffffffffffffffffffffffffffffffffffff1673ffffffffffffffffffffffffffffffffffffffff1681526020019081526020016000206040518060600160405290816000820160009054906101000a900460ff161515151581526020016000820160019054906101000a900460ff161515151581526020016001820180548060200260200160405190810160405280929190818152602001828054801561172957602002820191906000526020600020905b815481526020019060010190808311611715575b505050505081525050905092915050565b600b8060000154905081565b61174e6120cf565b3373ffffffffffffffffffffffffffffffffffffffff166108fc479081150290604051600060405180830381858888f19350505050158015611794573d6000803e3d6000fd5b50565b61179f611e8c565b60006117ab600b611cf2565b9050600a600082815260200190815260200160002060050160009054906101000a900460ff1615611811576040517f08c379a000000000000000000000000000000000000000000000000000000000815260040161180890613a55565b60405180910390fd5b34600a60008381526020019081526020016000206001015414611869576040517f08c379a000000000000000000000000000000000000000000000000000000000815260040161186090613ae7565b60405180910390fd5b6000611889600a6000848152602001908152602001600020600201611cf2565b90506118a9600a6000848152602001908152602001600020600201612211565b60016008600084815260200190815260200160002060003373ffffffffffffffffffffffffffffffffffffffff1673ffffffffffffffffffffffffffffffffffffffff16815260200190815260200160002060000160006101000a81548160ff02191690831515021790555060006008600084815260200190815260200160002060003373ffffffffffffffffffffffffffffffffffffffff1673ffffffffffffffffffffffffffffffffffffffff16815260200190815260200160002060000160016101000a81548160ff0219169083151502179055506008600083815260200190815260200160002060003373ffffffffffffffffffffffffffffffffffffffff1673ffffffffffffffffffffffffffffffffffffffff1681526020019081526020016000206001018190806001815401808255809150506001900390600052602060002001600090919091909150553360096000848152602001908152602001600020600083815260200190815260200160002060006101000a81548173ffffffffffffffffffffffffffffffffffffffff021916908373ffffffffffffffffffffffffffffffffffffffff16021790555034600a60008481526020019081526020016000206004016000828254611a849190613b07565b925050819055506000611aab600a6000858152602001908152602001600020600201611cf2565b9050600a600084815260200190815260200160002060070160199054906101000a900460ff16158015611b0a5750600a600084815260200190815260200160002060070160159054906101000a900463ffffffff1663ffffffff168110155b15611bf6576001600a600085815260200190815260200160002060070160196101000a81548160ff021916908315150217905550600d5442611b4c9190613b07565b600a6000858152602001908152602001600020600801819055507f3dcdfcde0ffa80946025c1000bff52fe117ec934dfc3c45fc9cfaa064c91c18c81600a600086815260200190815260200160002060070160159054906101000a900463ffffffff16600a600087815260200190815260200160002060040154600a600088815260200190815260200160002060080154604051611bed9493929190613b3b565b60405180910390a15b3373ffffffffffffffffffffffffffffffffffffffff167f97fac0ce6558f4accbb4696915809c0ef7023ffe7ba9454e94d49fb652aae1d53485604051611c3e929190613b80565b60405180910390a2505050611c51611efe565b565b611c5b6120cf565b600073ffffffffffffffffffffffffffffffffffffffff168173ffffffffffffffffffffffffffffffffffffffff1603611cca576040517f08c379a0000000000000000000000000000000000000000000000000000000008152600401611cc190613c1b565b60405180910390fd5b611cd38161214d565b50565b600f60009054906101000a900463ffffffff1681565b60055481565b600081600001549050919050565b611d0a8282612227565b6000611d16600b611cf2565b90506000611d38600a6000848152602001908152602001600020600201611cf2565b9050600a6000838152602001908152602001600020600601548403611e86576009600083815260200190815260200160002060008285600081518110611d8157611d80613c3b565b5b6020026020010151611d939190613c99565b815260200190815260200160002060009054906101000a900473ffffffffffffffffffffffffffffffffffffffff16600a600084815260200190815260200160002060070160006101000a81548173ffffffffffffffffffffffffffffffffffffffff021916908373ffffffffffffffffffffffffffffffffffffffff160217905550600d5442611e249190613b07565b600a600084815260200190815260200160002060090181905550611e46612321565b611e85576040517f08c379a0000000000000000000000000000000000000000000000000000000008152600401611e7c90613d16565b60405180910390fd5b5b50505050565b600260015403611ed1576040517f08c379a0000000000000000000000000000000000000000000000000000000008152600401611ec890613d82565b60405180910390fd5b6002600181905550565b60006064600c5483611eed9190613da2565b611ef79190613de4565b9050919050565b60018081905550565b6000611f13600b611cf2565b90506000611f35600a6000848152602001908152602001600020600201611cf2565b905080600a600084815260200190815260200160002060070160159054906101000a900463ffffffff1663ffffffff161115611fa6576040517f08c379a0000000000000000000000000000000000000000000000000000000008152600401611f9d90613e61565b60405180910390fd5b600a600083815260200190815260200160002060050160009054906101000a900460ff161561200a576040517f08c379a000000000000000000000000000000000000000000000000000000000815260040161200190613ecd565b60405180910390fd5b6001600a600084815260200190815260200160002060050160006101000a81548160ff02191690831515021790555061204360016123e7565b600a6000848152602001908152602001600020600601819055507f9337fa876371ba7a2ae0a3fd96612bed9a9baaff955d10f3c0168d544f7a053733600a6000858152602001908152602001600020600401546120b4600a6000878152602001908152602001600020600201611cf2565b6040516120c393929190613940565b60405180910390a15050565b6120d7612616565b73ffffffffffffffffffffffffffffffffffffffff166120f5610f84565b73ffffffffffffffffffffffffffffffffffffffff161461214b576040517f08c379a000000000000000000000000000000000000000000000000000000000815260040161214290613f39565b60405180910390fd5b565b60008060009054906101000a900473ffffffffffffffffffffffffffffffffffffffff169050816000806101000a81548173ffffffffffffffffffffffffffffffffffffffff021916908373ffffffffffffffffffffffffffffffffffffffff1602179055508173ffffffffffffffffffffffffffffffffffffffff168173ffffffffffffffffffffffffffffffffffffffff167f8be0079c531659141344cd1fd0a4f28419497f9722a3daafe3b4186f6b6457e060405160405180910390a35050565b6001816000016000828254019250508190555050565b6002600083815260200190815260200160002060000160019054906101000a900460ff1661228a576040517f08c379a0000000000000000000000000000000000000000000000000000000008152600401612281906139c3565b60405180910390fd5b60016002600084815260200190815260200160002060000160006101000a81548160ff021916908315150217905550806002600084815260200190815260200160002060010190805190602001906122e39291906126d3565b507ffe2e2d779dba245964d4e3ef9b994be63856fd568bf7d3ca9e224755cb1bd54d8282604051612315929190613f59565b60405180910390a15050565b600061232d600b612211565b6000612339600b611cf2565b90506011600a6000838152602001908152602001600020600001908161235f9190614160565b50601054600a600083815260200190815260200160002060010181905550600f60009054906101000a900463ffffffff16600a600083815260200190815260200160002060070160156101000a81548163ffffffff021916908363ffffffff16021790555042600a600083815260200190815260200160002060030181905550600191505090565b6000600360009054906101000a900473ffffffffffffffffffffffffffffffffffffffff1673ffffffffffffffffffffffffffffffffffffffff16635d3b1d30600654600360149054906101000a900467ffffffffffffffff16600760049054906101000a900461ffff16600760009054906101000a900463ffffffff16876040518663ffffffff1660e01b8152600401612486959493929190614289565b6020604051808303816000875af11580156124a5573d6000803e3d6000fd5b505050506040513d601f19601f820116820180604052508101906124c991906142f1565b90506040518060600160405280600015158152602001600115158152602001600067ffffffffffffffff811115612503576125026127da565b5b6040519080825280602002602001820160405280156125315781602001602082028036833780820191505090505b508152506002600083815260200190815260200160002060008201518160000160006101000a81548160ff02191690831515021790555060208201518160000160016101000a81548160ff02191690831515021790555060408201518160010190805190602001906125a49291906126d3565b509050506004819080600181540180825580915050600190039060005260206000200160009091909190915055806005819055507fcc58b13ad3eab50626c6a6300b1d139cd6ebb1688a7cced9461c2f7e762665ee818360405161260992919061431e565b60405180910390a1919050565b600033905090565b604051806101a001604052806060815260200160008152602001612640612720565b8152602001600081526020016000815260200160001515815260200160008152602001600073ffffffffffffffffffffffffffffffffffffffff168152602001600015158152602001600063ffffffff16815260200160001515815260200160008152602001600081525090565b6040518060600160405280600015158152602001600015158152602001606081525090565b82805482825590600052602060002090810192821561270f579160200282015b8281111561270e5782518255916020019190600101906126f3565b5b50905061271c9190612733565b5090565b6040518060200160405280600081525090565b5b8082111561274c576000816000905550600101612734565b5090565b6000819050919050565b61276381612750565b82525050565b600060208201905061277e600083018461275a565b92915050565b6000604051905090565b600080fd5b600080fd5b6127a181612750565b81146127ac57600080fd5b50565b6000813590506127be81612798565b92915050565b600080fd5b6000601f19601f8301169050919050565b7f4e487b7100000000000000000000000000000000000000000000000000000000600052604160045260246000fd5b612812826127c9565b810181811067ffffffffffffffff82111715612831576128306127da565b5b80604052505050565b6000612844612784565b90506128508282612809565b919050565b600067ffffffffffffffff8211156128705761286f6127da565b5b602082029050602081019050919050565b600080fd5b600061289961289484612855565b61283a565b905080838252602082019050602084028301858111156128bc576128bb612881565b5b835b818110156128e557806128d188826127af565b8452602084019350506020810190506128be565b5050509392505050565b600082601f830112612904576129036127c4565b5b8135612914848260208601612886565b91505092915050565b600080604083850312156129345761293361278e565b5b6000612942858286016127af565b925050602083013567ffffffffffffffff81111561296357612962612793565b5b61296f858286016128ef565b9150509250929050565b600081519050919050565b600082825260208201905092915050565b60005b838110156129b3578082015181840152602081019050612998565b60008484015250505050565b60006129ca82612979565b6129d48185612984565b93506129e4818560208601612995565b6129ed816127c9565b840191505092915050565b60006020820190508181036000830152612a1281846129bf565b905092915050565b600060208284031215612a3057612a2f61278e565b5b6000612a3e848285016127af565b91505092915050565b600080fd5b60008083601f840112612a6257612a616127c4565b5b8235905067ffffffffffffffff811115612a7f57612a7e612a47565b5b602083019150836001820283011115612a9b57612a9a612881565b5b9250929050565b60008060208385031215612ab957612ab861278e565b5b600083013567ffffffffffffffff811115612ad757612ad6612793565b5b612ae385828601612a4c565b92509250509250929050565b600080fd5b600067ffffffffffffffff821115612b0f57612b0e6127da565b5b612b18826127c9565b9050602081019050919050565b82818337600083830152505050565b6000612b47612b4284612af4565b61283a565b905082815260208101848484011115612b6357612b62612aef565b5b612b6e848285612b25565b509392505050565b600082601f830112612b8b57612b8a6127c4565b5b8135612b9b848260208601612b34565b91505092915050565b600063ffffffff82169050919050565b612bbd81612ba4565b8114612bc857600080fd5b50565b600081359050612bda81612bb4565b92915050565b60008060008060008060c08789031215612bfd57612bfc61278e565b5b600087013567ffffffffffffffff811115612c1b57612c1a612793565b5b612c2789828a01612b76565b9650506020612c3889828a016127af565b9550506040612c4989828a01612bcb565b9450506060612c5a89828a016127af565b9350506080612c6b89828a016127af565b92505060a0612c7c89828a016127af565b9150509295509295509295565b60008115159050919050565b612c9e81612c89565b82525050565b600081519050919050565b600082825260208201905092915050565b6000612ccb82612ca4565b612cd58185612caf565b9350612ce5818560208601612995565b612cee816127c9565b840191505092915050565b6000604082019050612d0e6000830185612c95565b8181036020830152612d208184612cc0565b90509392505050565b600061ffff82169050919050565b612d4081612d29565b8114612d4b57600080fd5b50565b600081359050612d5d81612d37565b92915050565b600060208284031215612d7957612d7861278e565b5b6000612d8784828501612d4e565b91505092915050565b600073ffffffffffffffffffffffffffffffffffffffff82169050919050565b6000612dbb82612d90565b9050919050565b612dcb81612db0565b82525050565b6000602082019050612de66000830184612dc2565b92915050565b600082825260208201905092915050565b6000612e0882612979565b612e128185612dec565b9350612e22818560208601612995565b612e2b816127c9565b840191505092915050565b612e3f81612750565b82525050565b602082016000820151612e5b6000850182612e36565b50505050565b612e6a81612c89565b82525050565b612e7981612db0565b82525050565b612e8881612ba4565b82525050565b60006101a0830160008301518482036000860152612eac8282612dfd565b9150506020830151612ec16020860182612e36565b506040830151612ed46040860182612e45565b506060830151612ee76060860182612e36565b506080830151612efa6080860182612e36565b5060a0830151612f0d60a0860182612e61565b5060c0830151612f2060c0860182612e36565b5060e0830151612f3360e0860182612e70565b50610100830151612f48610100860182612e61565b50610120830151612f5d610120860182612e7f565b50610140830151612f72610140860182612e61565b50610160830151612f87610160860182612e36565b50610180830151612f9c610180860182612e36565b508091505092915050565b60006020820190508181036000830152612fc18184612e8e565b905092915050565b600060208284031215612fdf57612fde61278e565b5b6000612fed84828501612bcb565b91505092915050565b600060408201905061300b6000830185612c95565b6130186020830184612c95565b9392505050565b6000819050919050565b6130328161301f565b811461303d57600080fd5b50565b60008135905061304f81613029565b92915050565b60006020828403121561306b5761306a61278e565b5b600061307984828501613040565b91505092915050565b600081519050919050565b600082825260208201905092915050565b6000819050602082019050919050565b60006130ba8383612e36565b60208301905092915050565b6000602082019050919050565b60006130de82613082565b6130e8818561308d565b93506130f38361309e565b8060005b8381101561312457815161310b88826130ae565b9750613116836130c6565b9250506001810190506130f7565b5085935050505092915050565b60006040820190506131466000830185612c95565b818103602083015261315881846130d3565b90509392505050565b61316a81612db0565b811461317557600080fd5b50565b60008135905061318781613161565b92915050565b600080604083850312156131a4576131a361278e565b5b60006131b2858286016127af565b92505060206131c385828601613178565b9150509250929050565b600082825260208201905092915050565b60006131e982613082565b6131f381856131cd565b93506131fe8361309e565b8060005b8381101561322f57815161321688826130ae565b9750613221836130c6565b925050600181019050613202565b5085935050505092915050565b60006060830160008301516132546000860182612e61565b5060208301516132676020860182612e61565b506040830151848203604086015261327f82826131de565b9150508091505092915050565b600060208201905081810360008301526132a6818461323c565b905092915050565b6000602082840312156132c4576132c361278e565b5b60006132d284828501613178565b91505092915050565b6132e481612ba4565b82525050565b60006020820190506132ff60008301846132db565b92915050565b600060408201905061331a6000830185612dc2565b6133276020830184612dc2565b9392505050565b7f4e487b7100000000000000000000000000000000000000000000000000000000600052602260045260246000fd5b6000600282049050600182168061337557607f821691505b6020821081036133885761338761332e565b5b50919050565b7f5468652077696e6e657220616c726561647920636c61696d656420697473207060008201527f72697a652e000000000000000000000000000000000000000000000000000000602082015250565b60006133ea602583612984565b91506133f58261338e565b604082019050919050565b60006020820190508181036000830152613419816133dd565b9050919050565b7f54686973206c6f74746572792069736e27742066696e616c697a65642079657460008201527f2e00000000000000000000000000000000000000000000000000000000000000602082015250565b600061347c602183612984565b915061348782613420565b604082019050919050565b600060208201905081810360008301526134ab8161346f565b9050919050565b7f54686973206c6f7474657279206469646e27742067657420612077696e6e657260008201527f207965742e000000000000000000000000000000000000000000000000000000602082015250565b600061350e602583612984565b9150613519826134b2565b604082019050919050565b6000602082019050818103600083015261353d81613501565b9050919050565b7f596f75277265206e6f74207468652077696e6e65722e00000000000000000000600082015250565b600061357a601683612984565b915061358582613544565b602082019050919050565b600060208201905081810360008301526135a98161356d565b9050919050565b7f596f7520646f6e74206861766520616e79207469636b657420746f20636c616960008201527f6d20686572652e00000000000000000000000000000000000000000000000000602082015250565b600061360c602783612984565b9150613617826135b0565b604082019050919050565b6000602082019050818103600083015261363b816135ff565b9050919050565b7f596f75206861766520616c7265616420636c61696d656420796f75722070726960008201527f7a652e0000000000000000000000000000000000000000000000000000000000602082015250565b600061369e602383612984565b91506136a982613642565b604082019050919050565b600060208201905081810360008301526136cd81613691565b9050919050565b7f4e487b7100000000000000000000000000000000000000000000000000000000600052601160045260246000fd5b600061370e82612750565b915061371983612750565b9250828203905081811115613731576137306136d4565b5b92915050565b600060608201905061374c600083018661275a565b613759602083018561275a565b613766604083018461275a565b949350505050565b7f4e6f742072656164207965740000000000000000000000000000000000000000600082015250565b60006137a4600c83612984565b91506137af8261376e565b602082019050919050565b600060208201905081810360008301526137d381613797565b9050919050565b7f4665652063616e277420626520626574746572207468616e2033302500000000600082015250565b6000613810601c83612984565b915061381b826137da565b602082019050919050565b6000602082019050818103600083015261383f81613803565b9050919050565b600060c082019050818103600083015261386081896129bf565b905061386f602083018861275a565b61387c604083018761275a565b61388960608301866132db565b613896608083018561275a565b6138a360a083018461275a565b979650505050505050565b7f596f752063616e277420636c61696d206265666f72652074696d65546f436c6160008201527f696d2067657420657870697265642e0000000000000000000000000000000000602082015250565b600061390a602f83612984565b9150613915826138ae565b604082019050919050565b60006020820190508181036000830152613939816138fd565b9050919050565b60006060820190506139556000830186612dc2565b613962602083018561275a565b61396f604083018461275a565b949350505050565b7f72657175657374206e6f7420666f756e64000000000000000000000000000000600082015250565b60006139ad601183612984565b91506139b882613977565b602082019050919050565b600060208201905081810360008301526139dc816139a0565b9050919050565b7f54686973206c6f74746572792068617320616c72656164792066696e616c697a60008201527f65642c207761697420666f7220726573756c7473210000000000000000000000602082015250565b6000613a3f603583612984565b9150613a4a826139e3565b604082019050919050565b60006020820190508181036000830152613a6e81613a32565b9050919050565b7f596f75206e65656420746f20706179207468652065786163746c79207469636b60008201527f65742070726963652e0000000000000000000000000000000000000000000000602082015250565b6000613ad1602983612984565b9150613adc82613a75565b604082019050919050565b60006020820190508181036000830152613b0081613ac4565b9050919050565b6000613b1282612750565b9150613b1d83612750565b9250828201905080821115613b3557613b346136d4565b5b92915050565b6000608082019050613b50600083018761275a565b613b5d60208301866132db565b613b6a604083018561275a565b613b77606083018461275a565b95945050505050565b6000604082019050613b95600083018561275a565b613ba2602083018461275a565b9392505050565b7f4f776e61626c653a206e6577206f776e657220697320746865207a65726f206160008201527f6464726573730000000000000000000000000000000000000000000000000000602082015250565b6000613c05602683612984565b9150613c1082613ba9565b604082019050919050565b60006020820190508181036000830152613c3481613bf8565b9050919050565b7f4e487b7100000000000000000000000000000000000000000000000000000000600052603260045260246000fd5b7f4e487b7100000000000000000000000000000000000000000000000000000000600052601260045260246000fd5b6000613ca482612750565b9150613caf83612750565b925082613cbf57613cbe613c6a565b5b828206905092915050565b7f4c6f7474657279206e6565647320746f20626520726573657465640000000000600082015250565b6000613d00601b83612984565b9150613d0b82613cca565b602082019050919050565b60006020820190508181036000830152613d2f81613cf3565b9050919050565b7f5265656e7472616e637947756172643a207265656e7472616e742063616c6c00600082015250565b6000613d6c601f83612984565b9150613d7782613d36565b602082019050919050565b60006020820190508181036000830152613d9b81613d5f565b9050919050565b6000613dad82612750565b9150613db883612750565b9250828202613dc681612750565b91508282048414831517613ddd57613ddc6136d4565b5b5092915050565b6000613def82612750565b9150613dfa83612750565b925082613e0a57613e09613c6a565b5b828204905092915050565b7f4974204469646e74207265616368206d696e207469636b657473207965742e00600082015250565b6000613e4b601f83612984565b9150613e5682613e15565b602082019050919050565b60006020820190508181036000830152613e7a81613e3e565b9050919050565b7f4c6f747465727920616c72656164792066696e616c697a65642e000000000000600082015250565b6000613eb7601a83612984565b9150613ec282613e81565b602082019050919050565b60006020820190508181036000830152613ee681613eaa565b9050919050565b7f4f776e61626c653a2063616c6c6572206973206e6f7420746865206f776e6572600082015250565b6000613f23602083612984565b9150613f2e82613eed565b602082019050919050565b60006020820190508181036000830152613f5281613f16565b9050919050565b6000604082019050613f6e600083018561275a565b8181036020830152613f8081846130d3565b90509392505050565b600081549050613f988161335d565b9050919050565b60008190508160005260206000209050919050565b60008190508160005260206000209050919050565b60006020601f8301049050919050565b600082821b905092915050565b6000600883026140167fffffffffffffffffffffffffffffffffffffffffffffffffffffffffffffffff82613fd9565b6140208683613fd9565b95508019841693508086168417925050509392505050565b6000819050919050565b600061405d61405861405384612750565b614038565b612750565b9050919050565b6000819050919050565b61407783614042565b61408b61408382614064565b848454613fe6565b825550505050565b600090565b6140a0614093565b6140ab81848461406e565b505050565b5b818110156140cf576140c4600082614098565b6001810190506140b1565b5050565b601f821115614114576140e581613f9f565b6140ee84613fc9565b810160208510156140fd578190505b61411161410985613fc9565b8301826140b0565b50505b505050565b600082821c905092915050565b600061413760001984600802614119565b1980831691505092915050565b60006141508383614126565b9150826002028217905092915050565b81810361416e575050614246565b61417782613f89565b67ffffffffffffffff8111156141905761418f6127da565b5b61419a825461335d565b6141a58282856140d3565b6000601f8311600181146141d457600084156141c2578287015490505b6141cc8582614144565b86555061423f565b601f1984166141e287613fb4565b96506141ed86613f9f565b60005b82811015614215578489015482556001820191506001850194506020810190506141f0565b86831015614232578489015461422e601f891682614126565b8355505b6001600288020188555050505b5050505050505b565b6142518161301f565b82525050565b600067ffffffffffffffff82169050919050565b61427481614257565b82525050565b61428381612d29565b82525050565b600060a08201905061429e6000830188614248565b6142ab602083018761426b565b6142b8604083018661427a565b6142c560608301856132db565b6142d260808301846132db565b9695505050505050565b6000815190506142eb81612798565b92915050565b6000602082840312156143075761430661278e565b5b6000614315848285016142dc565b91505092915050565b6000604082019050614333600083018561275a565b61434060208301846132db565b939250505056fea264697066735822122015bef668a4cecabde8a33a0353c3a3f21de91b2e5deed58203aeb8da24a4bfbf64736f6c63430008110033",
  "immutableReferences": {
    "49": [
      {
        "length": 32,
        "start": 1606
      },
      {
        "length": 32,
        "start": 1690
      }
    ]
  },
  "source": "// SPDX-License-Identifier: MIT\npragma solidity ^0.8.17;\n\nimport \"@chainlink/contracts/src/v0.8/interfaces/VRFCoordinatorV2Interface.sol\";\nimport \"@chainlink/contracts/src/v0.8/VRFConsumerBaseV2.sol\";\nimport \"@chainlink/contracts/src/v0.8/AutomationCompatible.sol\";\n\nimport \"@openzeppelin/contracts/access/Ownable.sol\";\nimport \"@openzeppelin/contracts/utils/Counters.sol\";\nimport \"@openzeppelin/contracts/security/ReentrancyGuard.sol\";\n\nimport \"./VRFV2Consumer.sol\";\n\ncontract Lottery is\n    Ownable,\n    ReentrancyGuard,\n    VRFV2Consumer,\n    AutomationCompatibleInterface\n{\n    using Counters for Counters.Counter;\n\n    struct User {\n        bool hasTicket;\n        bool claimed;\n        uint256[] tickets;\n    }\n\n    struct LotteryStruct {\n        string name;\n        uint256 ticketPrice;\n        Counters.Counter ticketsCount;\n        uint256 startedTime;\n        uint256 balance;\n        bool finalized;\n        uint256 indexChainLink;\n        address winner;\n        bool claimed;\n        uint32 minTicket;\n        bool finishTrigger;\n        uint256 timeToFinish;\n        uint256 timeToClaim;\n    }\n\n    mapping(uint256 => mapping(address => User)) ticketOwners;\n    mapping(uint256 => mapping(uint256 => address)) tickets;\n    mapping(uint256 => LotteryStruct) lottery;\n\n    Counters.Counter public lotteryId;\n    uint256 public fee;\n    uint256 public configFinishTime;\n    uint256 public configTimeToClaim;\n    uint32 public minTicket;\n    uint256 public ticketPrice;\n    string public lotteryName;\n\n    event TicketBought(\n        address indexed buyer,\n        uint256 price,\n        uint256 ticketNumber\n    );\n    event MinTicketsReached(\n        uint256 ticketNumber,\n        uint32 minTickets,\n        uint256 balance,\n        uint256 finishTime\n    );\n    event LotteryFinalized(\n        address owner,\n        uint256 totalValue,\n        uint256 ticketAmount\n    );\n    event ClaimedPrize(\n        address indexed winner,\n        uint256 lotteryIndex,\n        uint256 totalPrize,\n        uint256 fee\n    );\n    event ClaimedExpiredPrize(\n        address indexed winner,\n        address owner,\n        uint256 lotteryIndex,\n        uint256 totalPrize\n    );\n    event ChangedProperties(\n        address indexed owner,\n        string name,\n        uint256 ticketPrize,\n        uint256 fee,\n        uint32 minTicket,\n        uint256 configFinishTime,\n        uint256 configTimeToClaim\n    );\n\n    constructor(\n        uint64 _subscriptionId,\n        address _cordinatorAddress,\n        bytes32 _keyHash,\n        string memory _name,\n        uint256 _ticketPrice,\n        uint32 _minTicket,\n        uint256 _fee\n    ) VRFV2Consumer(_subscriptionId, _cordinatorAddress, _keyHash) {\n        uint256 currentLottery = lotteryId.current();\n\n        lottery[currentLottery].name = _name;\n        lottery[currentLottery].ticketPrice = _ticketPrice;\n        lottery[currentLottery].minTicket = _minTicket;\n        lottery[currentLottery].startedTime = block.timestamp;\n\n        fee = _fee;\n        lotteryName = _name;\n        configFinishTime = 10 minutes;\n        configTimeToClaim = 7 days;\n        ticketPrice = _ticketPrice;\n        minTicket = _minTicket;\n    }\n\n    function buyTicket() external payable nonReentrant {\n        uint256 currentLottery = lotteryId.current();\n        require(\n            !lottery[currentLottery].finalized,\n            \"This lottery has already finalized, wait for results!\"\n        );\n        require(\n            lottery[currentLottery].ticketPrice == msg.value,\n            \"You need to pay the exactly ticket price.\"\n        );\n\n        uint256 currentLotteryPosition = lottery[currentLottery]\n            .ticketsCount\n            .current();\n        lottery[currentLottery].ticketsCount.increment();\n\n        ticketOwners[currentLottery][msg.sender].hasTicket = true;\n        ticketOwners[currentLottery][msg.sender].claimed = false;\n        ticketOwners[currentLottery][msg.sender].tickets.push(\n            currentLotteryPosition\n        );\n\n        tickets[currentLottery][currentLotteryPosition] = msg.sender;\n        lottery[currentLottery].balance += msg.value;\n\n        uint256 nextLotteryPosition = lottery[currentLottery]\n            .ticketsCount\n            .current();\n\n        if (\n            !lottery[currentLottery].finishTrigger &&\n            nextLotteryPosition >= lottery[currentLottery].minTicket\n        ) {\n            lottery[currentLottery].finishTrigger = true;\n            lottery[currentLottery].timeToFinish =\n                block.timestamp +\n                configFinishTime;\n\n            emit MinTicketsReached(\n                nextLotteryPosition,\n                lottery[currentLottery].minTicket,\n                lottery[currentLottery].balance,\n                lottery[currentLottery].timeToFinish\n            );\n        }\n\n        emit TicketBought(msg.sender, msg.value, currentLottery);\n    }\n\n    function finalizeLottery() private {\n        uint256 currentLottery = lotteryId.current();\n        uint256 currentLotteryPosition = lottery[currentLottery]\n            .ticketsCount\n            .current();\n\n        require(\n            lottery[currentLottery].minTicket <= currentLotteryPosition,\n            \"It Didnt reach min tickets yet.\"\n        );\n\n        require(\n            !lottery[currentLottery].finalized,\n            \"Lottery already finalized.\"\n        );\n\n        lottery[currentLottery].finalized = true;\n        lottery[currentLottery].indexChainLink = requestRandomWords(1);\n        emit LotteryFinalized(\n            msg.sender,\n            lottery[currentLottery].balance,\n            lottery[currentLottery].ticketsCount.current()\n        );\n    }\n\n    function fulfillRandomWords(\n        uint256 _requestId,\n        uint256[] memory _randomWords\n    ) internal override {\n        super.fulfillRandomWords(_requestId, _randomWords);\n        uint256 currentLottery = lotteryId.current();\n        uint256 currentLotteryPosition = lottery[currentLottery]\n            .ticketsCount\n            .current();\n        if (_requestId == lottery[currentLottery].indexChainLink) {\n            lottery[currentLottery].winner = tickets[currentLottery][\n                _randomWords[0] % currentLotteryPosition\n            ];\n            lottery[currentLottery].timeToClaim =\n                block.timestamp +\n                configFinishTime;\n            require(resetLottery(), \"Lottery needs to be reseted\");\n        }\n    }\n\n    function claim(uint256 lotteryIndex) external nonReentrant {\n        require(\n            !lottery[lotteryIndex].claimed,\n            \"The winner already claimed its prize.\"\n        );\n        require(\n            lottery[lotteryIndex].finalized,\n            \"This lottery isn't finalized yet.\"\n        );\n        require(\n            lottery[lotteryIndex].winner != address(0),\n            \"This lottery didn't get a winner yet.\"\n        );\n        require(\n            lottery[lotteryIndex].winner == msg.sender,\n            \"You're not the winner.\"\n        );\n        require(\n            ticketOwners[lotteryIndex][msg.sender].hasTicket,\n            \"You dont have any ticket to claim here.\"\n        );\n        require(\n            !ticketOwners[lotteryIndex][msg.sender].claimed,\n            \"You have alread claimed your prize.\"\n        );\n        lottery[lotteryIndex].claimed = true;\n        ticketOwners[lotteryIndex][msg.sender].hasTicket = false;\n        ticketOwners[lotteryIndex][msg.sender].claimed = true;\n\n        uint256 _feeAmount = _calcFee(lottery[lotteryIndex].balance);\n        uint256 prize = lottery[lotteryIndex].balance - _feeAmount;\n\n        payable(owner()).transfer(_feeAmount);\n        payable(msg.sender).transfer(prize);\n        emit ClaimedPrize(msg.sender, lotteryIndex, prize, _feeAmount);\n    }\n\n    function claimExpiredLottery(uint256 lotteryIndex) external onlyOwner {\n        require(\n            !lottery[lotteryIndex].claimed,\n            \"The winner already claimed its prize.\"\n        );\n        require(\n            lottery[lotteryIndex].finalized,\n            \"This lottery isn't finalized yet.\"\n        );\n        require(\n            lottery[lotteryIndex].winner != address(0),\n            \"This lottery didn't get a winner yet.\"\n        );\n        require(\n            lottery[lotteryIndex].timeToClaim < block.timestamp,\n            \"You can't claim before timeToClaim get expired.\"\n        );\n\n        lottery[lotteryIndex].claimed = true;\n\n        payable(owner()).transfer(lottery[lotteryIndex].balance);\n        emit ClaimedExpiredPrize(lottery[lotteryIndex].winner, msg.sender, lotteryIndex, lottery[lotteryIndex].balance);\n    }\n\n    function resetLottery() private returns (bool) {\n        lotteryId.increment();\n        uint256 nextLottery = lotteryId.current();\n\n        lottery[nextLottery].name = lotteryName;\n        lottery[nextLottery].ticketPrice = ticketPrice;\n        lottery[nextLottery].minTicket = minTicket;\n        lottery[nextLottery].startedTime = block.timestamp;\n\n        return true;\n    }\n\n    function _calcFee(uint256 amount) private view returns (uint256) {\n        return (amount * fee) / 100;\n    }\n\n    function setProperties(\n        string memory _name,\n        uint256 _ticketPrice,\n        uint32 _minTicket,\n        uint256 _configFinishTime,\n        uint256 _configTimeToClaim,\n        uint256 _fee\n    ) external onlyOwner {\n        require(_fee <= 30, \"Fee can't be better than 30%\");\n\n        fee = _fee;\n        configFinishTime = _configFinishTime;\n        configTimeToClaim = _configTimeToClaim;\n        ticketPrice = _ticketPrice;\n        minTicket = _minTicket;\n        emit ChangedProperties(\n            msg.sender,\n            _name,\n            _ticketPrice,\n            _fee,\n            _minTicket,\n            _configFinishTime,\n            _configTimeToClaim\n        );\n    }\n\n    function getLotteryStatus(\n        uint256 _lotteryId\n    ) public view returns (LotteryStruct memory _lottery) {\n        return lottery[_lotteryId];\n    }\n\n    function getUserStatus(\n        uint256 _lotteryId,\n        address _user\n    ) public view returns (User memory _returnedUser) {\n        return ticketOwners[_lotteryId][_user];\n    }\n\n    // Only if we have some problem to use this\n    function getAllBalance() external onlyOwner {\n        payable(msg.sender).transfer(address(this).balance);\n    }\n\n    function checkUpkeep(\n        bytes calldata /* checkData */\n    )\n        external\n        view\n        override\n        returns (bool upkeepNeeded, bytes memory /* performData */)\n    {\n        uint256 currentLottery = lotteryId.current();\n        upkeepNeeded = (lottery[currentLottery].finishTrigger &&\n            block.timestamp > lottery[currentLottery].timeToFinish);\n    }\n\n    function performUpkeep(bytes calldata /* performData */) external override {\n        uint256 currentLottery = lotteryId.current();\n\n        require(\n            (lottery[currentLottery].finishTrigger &&\n                block.timestamp > lottery[currentLottery].timeToFinish),\n            \"Not read yet\"\n        );\n        finalizeLottery();\n    }\n}\n",
  "sourcePath": "/home/kritosan/projetos/pessoais/LottoCrypto/Truffle/contracts/Lottery.sol",
  "compiler": {
    "name": "solc",
    "version": "0.8.17+commit.8df45f5f.Emscripten.clang"
  },
  "schemaVersion": "3.4.13",
  "updatedAt": "2023-03-09T21:29:35.796Z",
  "networkType": "ethereum",
  "devdoc": {
    "kind": "dev",
    "methods": {
      "owner()": {
        "details": "Returns the address of the current owner."
      },
      "renounceOwnership()": {
        "details": "Leaves the contract without owner. It will not be possible to call `onlyOwner` functions anymore. Can only be called by the current owner. NOTE: Renouncing ownership will leave the contract without an owner, thereby removing any functionality that is only available to the owner."
      },
      "transferOwnership(address)": {
        "details": "Transfers ownership of the contract to a new account (`newOwner`). Can only be called by the current owner."
      }
    },
    "version": 1
  },
  "userdoc": {
    "kind": "user",
    "methods": {},
    "version": 1
  }
}