{
  "contractName": "Lottery",
  "abi": [
    {
      "inputs": [
        {
          "internalType": "uint64",
          "name": "_subscriptionId",
          "type": "uint64"
        },
        {
          "internalType": "address",
          "name": "_cordinatorAddress",
          "type": "address"
        },
        {
          "internalType": "bytes32",
          "name": "_keyHash",
          "type": "bytes32"
        },
        {
          "internalType": "string",
          "name": "_name",
          "type": "string"
        },
        {
          "internalType": "uint256",
          "name": "_ticketPrice",
          "type": "uint256"
        },
        {
          "internalType": "uint256",
          "name": "_fee",
          "type": "uint256"
        }
      ],
      "stateMutability": "nonpayable",
      "type": "constructor"
    },
    {
      "inputs": [
        {
          "internalType": "address",
          "name": "have",
          "type": "address"
        },
        {
          "internalType": "address",
          "name": "want",
          "type": "address"
        }
      ],
      "name": "OnlyCoordinatorCanFulfill",
      "type": "error"
    },
    {
      "anonymous": false,
      "inputs": [
        {
          "indexed": true,
          "internalType": "address",
          "name": "owner",
          "type": "address"
        },
        {
          "indexed": false,
          "internalType": "string",
          "name": "name",
          "type": "string"
        },
        {
          "indexed": false,
          "internalType": "uint256",
          "name": "ticketPrize",
          "type": "uint256"
        },
        {
          "indexed": false,
          "internalType": "uint256",
          "name": "fee",
          "type": "uint256"
        }
      ],
      "name": "ChangedProperties",
      "type": "event"
    },
    {
      "anonymous": false,
      "inputs": [
        {
          "indexed": true,
          "internalType": "address",
          "name": "winner",
          "type": "address"
        },
        {
          "indexed": false,
          "internalType": "uint256",
          "name": "totalPrize",
          "type": "uint256"
        },
        {
          "indexed": false,
          "internalType": "uint256",
          "name": "fee",
          "type": "uint256"
        }
      ],
      "name": "ClaimedPrize",
      "type": "event"
    },
    {
      "anonymous": false,
      "inputs": [
        {
          "indexed": false,
          "internalType": "address",
          "name": "owner",
          "type": "address"
        },
        {
          "indexed": false,
          "internalType": "uint256",
          "name": "totalValue",
          "type": "uint256"
        },
        {
          "indexed": false,
          "internalType": "uint256",
          "name": "ticketAmount",
          "type": "uint256"
        }
      ],
      "name": "LotteryFinalized",
      "type": "event"
    },
    {
      "anonymous": false,
      "inputs": [
        {
          "indexed": true,
          "internalType": "address",
          "name": "previousOwner",
          "type": "address"
        },
        {
          "indexed": true,
          "internalType": "address",
          "name": "newOwner",
          "type": "address"
        }
      ],
      "name": "OwnershipTransferred",
      "type": "event"
    },
    {
      "anonymous": false,
      "inputs": [
        {
          "indexed": false,
          "internalType": "uint256",
          "name": "requestId",
          "type": "uint256"
        },
        {
          "indexed": false,
          "internalType": "uint256[]",
          "name": "randomWords",
          "type": "uint256[]"
        }
      ],
      "name": "RequestFulfilled",
      "type": "event"
    },
    {
      "anonymous": false,
      "inputs": [
        {
          "indexed": false,
          "internalType": "uint256",
          "name": "requestId",
          "type": "uint256"
        },
        {
          "indexed": false,
          "internalType": "uint32",
          "name": "numWords",
          "type": "uint32"
        }
      ],
      "name": "RequestSent",
      "type": "event"
    },
    {
      "anonymous": false,
      "inputs": [
        {
          "indexed": true,
          "internalType": "address",
          "name": "buyer",
          "type": "address"
        },
        {
          "indexed": false,
          "internalType": "uint256",
          "name": "price",
          "type": "uint256"
        },
        {
          "indexed": false,
          "internalType": "uint256",
          "name": "ticketNumber",
          "type": "uint256"
        }
      ],
      "name": "TicketBought",
      "type": "event"
    },
    {
      "inputs": [],
      "name": "fee",
      "outputs": [
        {
          "internalType": "uint256",
          "name": "",
          "type": "uint256"
        }
      ],
      "stateMutability": "view",
      "type": "function"
    },
    {
      "inputs": [
        {
          "internalType": "uint256",
          "name": "_requestId",
          "type": "uint256"
        }
      ],
      "name": "getRequestStatus",
      "outputs": [
        {
          "internalType": "bool",
          "name": "fulfilled",
          "type": "bool"
        },
        {
          "internalType": "uint256[]",
          "name": "randomWords",
          "type": "uint256[]"
        }
      ],
      "stateMutability": "view",
      "type": "function"
    },
    {
      "inputs": [],
      "name": "lastRequestId",
      "outputs": [
        {
          "internalType": "uint256",
          "name": "",
          "type": "uint256"
        }
      ],
      "stateMutability": "view",
      "type": "function"
    },
    {
      "inputs": [],
      "name": "lotteryId",
      "outputs": [
        {
          "internalType": "uint256",
          "name": "_value",
          "type": "uint256"
        }
      ],
      "stateMutability": "view",
      "type": "function"
    },
    {
      "inputs": [],
      "name": "owner",
      "outputs": [
        {
          "internalType": "address",
          "name": "",
          "type": "address"
        }
      ],
      "stateMutability": "view",
      "type": "function"
    },
    {
      "inputs": [
        {
          "internalType": "uint256",
          "name": "requestId",
          "type": "uint256"
        },
        {
          "internalType": "uint256[]",
          "name": "randomWords",
          "type": "uint256[]"
        }
      ],
      "name": "rawFulfillRandomWords",
      "outputs": [],
      "stateMutability": "nonpayable",
      "type": "function"
    },
    {
      "inputs": [],
      "name": "renounceOwnership",
      "outputs": [],
      "stateMutability": "nonpayable",
      "type": "function"
    },
    {
      "inputs": [
        {
          "internalType": "uint256",
          "name": "",
          "type": "uint256"
        }
      ],
      "name": "requestIds",
      "outputs": [
        {
          "internalType": "uint256",
          "name": "",
          "type": "uint256"
        }
      ],
      "stateMutability": "view",
      "type": "function"
    },
    {
      "inputs": [
        {
          "internalType": "uint256",
          "name": "",
          "type": "uint256"
        }
      ],
      "name": "s_requests",
      "outputs": [
        {
          "internalType": "bool",
          "name": "fulfilled",
          "type": "bool"
        },
        {
          "internalType": "bool",
          "name": "exists",
          "type": "bool"
        }
      ],
      "stateMutability": "view",
      "type": "function"
    },
    {
      "inputs": [
        {
          "internalType": "uint32",
          "name": "_callBackGasLimit",
          "type": "uint32"
        }
      ],
      "name": "setCallBackGasLimit",
      "outputs": [],
      "stateMutability": "nonpayable",
      "type": "function"
    },
    {
      "inputs": [
        {
          "internalType": "bytes32",
          "name": "_keyHash",
          "type": "bytes32"
        }
      ],
      "name": "setKeyHashValue",
      "outputs": [],
      "stateMutability": "nonpayable",
      "type": "function"
    },
    {
      "inputs": [
        {
          "internalType": "uint16",
          "name": "_requestConfirmations",
          "type": "uint16"
        }
      ],
      "name": "setRequestConfirmations",
      "outputs": [],
      "stateMutability": "nonpayable",
      "type": "function"
    },
    {
      "inputs": [
        {
          "internalType": "address",
          "name": "newOwner",
          "type": "address"
        }
      ],
      "name": "transferOwnership",
      "outputs": [],
      "stateMutability": "nonpayable",
      "type": "function"
    },
    {
      "inputs": [],
      "name": "buyTicket",
      "outputs": [],
      "stateMutability": "payable",
      "type": "function"
    },
    {
      "inputs": [],
      "name": "finalizeLottery",
      "outputs": [],
      "stateMutability": "nonpayable",
      "type": "function"
    },
    {
      "inputs": [
        {
          "internalType": "uint256",
          "name": "lotteryIndex",
          "type": "uint256"
        }
      ],
      "name": "claim",
      "outputs": [],
      "stateMutability": "nonpayable",
      "type": "function"
    },
    {
      "inputs": [
        {
          "internalType": "string",
          "name": "_name",
          "type": "string"
        },
        {
          "internalType": "uint256",
          "name": "_ticketPrice",
          "type": "uint256"
        },
        {
          "internalType": "uint256",
          "name": "_fee",
          "type": "uint256"
        }
      ],
      "name": "setProperties",
      "outputs": [],
      "stateMutability": "nonpayable",
      "type": "function"
    },
    {
      "inputs": [
        {
          "internalType": "uint256",
          "name": "_lotteryId",
          "type": "uint256"
        }
      ],
      "name": "getLotteryStatus",
      "outputs": [
        {
          "components": [
            {
              "internalType": "string",
              "name": "name",
              "type": "string"
            },
            {
              "internalType": "uint256",
              "name": "ticketPrice",
              "type": "uint256"
            },
            {
              "components": [
                {
                  "internalType": "uint256",
                  "name": "_value",
                  "type": "uint256"
                }
              ],
              "internalType": "struct Counters.Counter",
              "name": "ticketsCount",
              "type": "tuple"
            },
            {
              "internalType": "uint256",
              "name": "balance",
              "type": "uint256"
            },
            {
              "internalType": "bool",
              "name": "finalized",
              "type": "bool"
            },
            {
              "internalType": "uint256",
              "name": "indexChainLink",
              "type": "uint256"
            },
            {
              "internalType": "address",
              "name": "winner",
              "type": "address"
            },
            {
              "internalType": "bool",
              "name": "claimed",
              "type": "bool"
            }
          ],
          "internalType": "struct Lottery.LotteryStruct",
          "name": "_lottery",
          "type": "tuple"
        }
      ],
      "stateMutability": "view",
      "type": "function"
    },
    {
      "inputs": [
        {
          "internalType": "uint256",
          "name": "_lotteryId",
          "type": "uint256"
        },
        {
          "internalType": "address",
          "name": "_user",
          "type": "address"
        }
      ],
      "name": "getUserStatus",
      "outputs": [
        {
          "components": [
            {
              "internalType": "bool",
              "name": "hasTicket",
              "type": "bool"
            },
            {
              "internalType": "bool",
              "name": "claimed",
              "type": "bool"
            },
            {
              "internalType": "uint256[]",
              "name": "tickets",
              "type": "uint256[]"
            }
          ],
          "internalType": "struct Lottery.User",
          "name": "_returnedUser",
          "type": "tuple"
        }
      ],
      "stateMutability": "view",
      "type": "function"
    },
    {
      "inputs": [],
      "name": "getAllBalance",
      "outputs": [],
      "stateMutability": "nonpayable",
      "type": "function"
    }
  ],
  "bytecode": "0x60a06040523480156200001157600080fd5b5060405162003ed038038062003ed083398181016040528101906200003791906200054b565b858585818073ffffffffffffffffffffffffffffffffffffffff1660808173ffffffffffffffffffffffffffffffffffffffff1681525050506200009062000084620001be60201b60201c565b620001c660201b60201c565b81600260006101000a81548173ffffffffffffffffffffffffffffffffffffffff021916908373ffffffffffffffffffffffffffffffffffffffff16021790555082600260146101000a81548167ffffffffffffffff021916908367ffffffffffffffff160217905550806005819055506207a120600660006101000a81548163ffffffff021916908363ffffffff1602179055506003600660046101000a81548161ffff021916908361ffff1602179055505050506001600781905550600062000167600b6200028a60201b620015ab1760201c565b905083600a600083815260200190815260200160002060000190816200018e919062000847565b5082600a60008381526020019081526020016000206001018190555081600c81905550505050505050506200092e565b600033905090565b60008060009054906101000a900473ffffffffffffffffffffffffffffffffffffffff169050816000806101000a81548173ffffffffffffffffffffffffffffffffffffffff021916908373ffffffffffffffffffffffffffffffffffffffff1602179055508173ffffffffffffffffffffffffffffffffffffffff168173ffffffffffffffffffffffffffffffffffffffff167f8be0079c531659141344cd1fd0a4f28419497f9722a3daafe3b4186f6b6457e060405160405180910390a35050565b600081600001549050919050565b6000604051905090565b600080fd5b600080fd5b600067ffffffffffffffff82169050919050565b620002cb81620002ac565b8114620002d757600080fd5b50565b600081519050620002eb81620002c0565b92915050565b600073ffffffffffffffffffffffffffffffffffffffff82169050919050565b60006200031e82620002f1565b9050919050565b620003308162000311565b81146200033c57600080fd5b50565b600081519050620003508162000325565b92915050565b6000819050919050565b6200036b8162000356565b81146200037757600080fd5b50565b6000815190506200038b8162000360565b92915050565b600080fd5b600080fd5b6000601f19601f8301169050919050565b7f4e487b7100000000000000000000000000000000000000000000000000000000600052604160045260246000fd5b620003e6826200039b565b810181811067ffffffffffffffff82111715620004085762000407620003ac565b5b80604052505050565b60006200041d62000298565b90506200042b8282620003db565b919050565b600067ffffffffffffffff8211156200044e576200044d620003ac565b5b62000459826200039b565b9050602081019050919050565b60005b838110156200048657808201518184015260208101905062000469565b60008484015250505050565b6000620004a9620004a38462000430565b62000411565b905082815260208101848484011115620004c857620004c762000396565b5b620004d584828562000466565b509392505050565b600082601f830112620004f557620004f462000391565b5b81516200050784826020860162000492565b91505092915050565b6000819050919050565b620005258162000510565b81146200053157600080fd5b50565b60008151905062000545816200051a565b92915050565b60008060008060008060c087890312156200056b576200056a620002a2565b5b60006200057b89828a01620002da565b96505060206200058e89828a016200033f565b9550506040620005a189828a016200037a565b945050606087015167ffffffffffffffff811115620005c557620005c4620002a7565b5b620005d389828a01620004dd565b9350506080620005e689828a0162000534565b92505060a0620005f989828a0162000534565b9150509295509295509295565b600081519050919050565b7f4e487b7100000000000000000000000000000000000000000000000000000000600052602260045260246000fd5b600060028204905060018216806200065957607f821691505b6020821081036200066f576200066e62000611565b5b50919050565b60008190508160005260206000209050919050565b60006020601f8301049050919050565b600082821b905092915050565b600060088302620006d97fffffffffffffffffffffffffffffffffffffffffffffffffffffffffffffffff826200069a565b620006e586836200069a565b95508019841693508086168417925050509392505050565b6000819050919050565b600062000728620007226200071c8462000510565b620006fd565b62000510565b9050919050565b6000819050919050565b620007448362000707565b6200075c62000753826200072f565b848454620006a7565b825550505050565b600090565b6200077362000764565b6200078081848462000739565b505050565b5b81811015620007a8576200079c60008262000769565b60018101905062000786565b5050565b601f821115620007f757620007c18162000675565b620007cc846200068a565b81016020851015620007dc578190505b620007f4620007eb856200068a565b83018262000785565b50505b505050565b600082821c905092915050565b60006200081c60001984600802620007fc565b1980831691505092915050565b600062000837838362000809565b9150826002028217905092915050565b620008528262000606565b67ffffffffffffffff8111156200086e576200086d620003ac565b5b6200087a825462000640565b62000887828285620007ac565b600060209050601f831160018114620008bf5760008415620008aa578287015190505b620008b6858262000829565b86555062000926565b601f198416620008cf8662000675565b60005b82811015620008f957848901518255600182019150602085019450602081019050620008d2565b8683101562000919578489015162000915601f89168262000809565b8355505b6001600288020188555050505b505050505050565b60805161357f620009516000396000818161047301526104c7015261357f6000f3fe60806040526004361061011f5760003560e01c8063a168fa89116100a0578063e580f47b11610064578063e580f47b146103d1578063eb9969a8146103fc578063edca914c14610413578063f2fde38b1461041d578063fc2a88c3146104465761011f565b8063a168fa89146102c4578063a7348e5f14610302578063d8a4676f1461032b578063ddca3f4314610369578063e575df72146103945761011f565b80638796ba8c116100e75780638796ba8c146101cd5780638824f5a71461020a5780638da5cb5b146102335780638ff722931461025e578063982d80841461029b5761011f565b80631fe543e314610124578063379607f51461014d578063456c2892146101765780635e202d231461018d578063715018a6146101b6575b600080fd5b34801561013057600080fd5b5061014b60048036038101906101469190611f27565b610471565b005b34801561015957600080fd5b50610174600480360381019061016f9190611f83565b610531565b005b34801561018257600080fd5b5061018b610acc565b005b34801561019957600080fd5b506101b460048036038101906101af9190612065565b610c0a565b005b3480156101c257600080fd5b506101cb610cbe565b005b3480156101d957600080fd5b506101f460048036038101906101ef9190611f83565b610cd2565b60405161020191906120e3565b60405180910390f35b34801561021657600080fd5b50610231600480360381019061022c9190612138565b610cf6565b005b34801561023f57600080fd5b50610248610d1e565b60405161025591906121a6565b60405180910390f35b34801561026a57600080fd5b5061028560048036038101906102809190611f83565b610d47565b6040516102929190612345565b60405180910390f35b3480156102a757600080fd5b506102c260048036038101906102bd91906123a3565b610ecf565b005b3480156102d057600080fd5b506102eb60048036038101906102e69190611f83565b610efb565b6040516102f99291906123df565b60405180910390f35b34801561030e57600080fd5b506103296004803603810190610324919061243e565b610f39565b005b34801561033757600080fd5b50610352600480360381019061034d9190611f83565b610f4b565b60405161036092919061251a565b60405180910390f35b34801561037557600080fd5b5061037e611076565b60405161038b91906120e3565b60405180910390f35b3480156103a057600080fd5b506103bb60048036038101906103b69190612576565b61107c565b6040516103c89190612675565b60405180910390f35b3480156103dd57600080fd5b506103e6611175565b6040516103f391906120e3565b60405180910390f35b34801561040857600080fd5b50610411611181565b005b61041b6111d2565b005b34801561042957600080fd5b50610444600480360381019061043f9190612697565b611522565b005b34801561045257600080fd5b5061045b6115a5565b60405161046891906120e3565b60405180910390f35b7f000000000000000000000000000000000000000000000000000000000000000073ffffffffffffffffffffffffffffffffffffffff163373ffffffffffffffffffffffffffffffffffffffff161461052357337f00000000000000000000000000000000000000000000000000000000000000006040517f1cf993f400000000000000000000000000000000000000000000000000000000815260040161051a9291906126c4565b60405180910390fd5b61052d82826115b9565b5050565b6105396116df565b600a600082815260200190815260200160002060060160149054906101000a900460ff161561059d576040517f08c379a000000000000000000000000000000000000000000000000000000000815260040161059490612770565b60405180910390fd5b600a600082815260200190815260200160002060040160009054906101000a900460ff16610600576040517f08c379a00000000000000000000000000000000000000000000000000000000081526004016105f790612802565b60405180910390fd5b600073ffffffffffffffffffffffffffffffffffffffff16600a600083815260200190815260200160002060060160009054906101000a900473ffffffffffffffffffffffffffffffffffffffff1673ffffffffffffffffffffffffffffffffffffffff16036106a5576040517f08c379a000000000000000000000000000000000000000000000000000000000815260040161069c90612894565b60405180910390fd5b3373ffffffffffffffffffffffffffffffffffffffff16600a600083815260200190815260200160002060060160009054906101000a900473ffffffffffffffffffffffffffffffffffffffff1673ffffffffffffffffffffffffffffffffffffffff1614610749576040517f08c379a000000000000000000000000000000000000000000000000000000000815260040161074090612900565b60405180910390fd5b6008600082815260200190815260200160002060003373ffffffffffffffffffffffffffffffffffffffff1673ffffffffffffffffffffffffffffffffffffffff16815260200190815260200160002060000160009054906101000a900460ff166107e9576040517f08c379a00000000000000000000000000000000000000000000000000000000081526004016107e090612992565b60405180910390fd5b6008600082815260200190815260200160002060003373ffffffffffffffffffffffffffffffffffffffff1673ffffffffffffffffffffffffffffffffffffffff16815260200190815260200160002060000160019054906101000a900460ff161561088a576040517f08c379a000000000000000000000000000000000000000000000000000000000815260040161088190612a24565b60405180910390fd5b6001600a600083815260200190815260200160002060060160146101000a81548160ff02191690831515021790555060006008600083815260200190815260200160002060003373ffffffffffffffffffffffffffffffffffffffff1673ffffffffffffffffffffffffffffffffffffffff16815260200190815260200160002060000160006101000a81548160ff02191690831515021790555060016008600083815260200190815260200160002060003373ffffffffffffffffffffffffffffffffffffffff1673ffffffffffffffffffffffffffffffffffffffff16815260200190815260200160002060000160016101000a81548160ff02191690831515021790555060006109b2600a60008481526020019081526020016000206003015461172e565b9050600081600a6000858152602001908152602001600020600301546109d89190612a73565b90506109e2610d1e565b73ffffffffffffffffffffffffffffffffffffffff166108fc839081150290604051600060405180830381858888f19350505050158015610a27573d6000803e3d6000fd5b503373ffffffffffffffffffffffffffffffffffffffff166108fc829081150290604051600060405180830381858888f19350505050158015610a6e573d6000803e3d6000fd5b503373ffffffffffffffffffffffffffffffffffffffff167f958da08b85b84cbd2625af831fdd0b864642d0b1da0401a911437355aa9812558284604051610ab7929190612aa7565b60405180910390a25050610ac9611751565b50565b610ad461175b565b6000610ae0600b6115ab565b9050600a600082815260200190815260200160002060040160009054906101000a900460ff1615610b46576040517f08c379a0000000000000000000000000000000000000000000000000000000008152600401610b3d90612b1c565b60405180910390fd5b6001600a600083815260200190815260200160002060040160006101000a81548160ff021916908315150217905550610b7f60016117d9565b600a6000838152602001908152602001600020600501819055507f9337fa876371ba7a2ae0a3fd96612bed9a9baaff955d10f3c0168d544f7a053733600a600084815260200190815260200160002060030154610bf0600a60008681526020019081526020016000206002016115ab565b604051610bff93929190612b3c565b60405180910390a150565b610c1261175b565b6000610c1e600b6115ab565b905083600a60008381526020019081526020016000206000019081610c439190612d7f565b5082600a60008381526020019081526020016000206001018190555081600c819055503373ffffffffffffffffffffffffffffffffffffffff167fecb1eec63d4ebf3b14551490524517a630719c73afe6fa65e9d5ee88990d2c1e858585604051610cb093929190612e8a565b60405180910390a250505050565b610cc661175b565b610cd06000611a08565b565b60038181548110610ce257600080fd5b906000526020600020016000915090505481565b610cfe61175b565b80600660046101000a81548161ffff021916908361ffff16021790555050565b60008060009054906101000a900473ffffffffffffffffffffffffffffffffffffffff16905090565b610d4f611c7d565b600a600083815260200190815260200160002060405180610100016040529081600082018054610d7e90612ba2565b80601f0160208091040260200160405190810160405280929190818152602001828054610daa90612ba2565b8015610df75780601f10610dcc57610100808354040283529160200191610df7565b820191906000526020600020905b815481529060010190602001808311610dda57829003601f168201915b5050505050815260200160018201548152602001600282016040518060200160405290816000820154815250508152602001600382015481526020016004820160009054906101000a900460ff16151515158152602001600582015481526020016006820160009054906101000a900473ffffffffffffffffffffffffffffffffffffffff1673ffffffffffffffffffffffffffffffffffffffff1673ffffffffffffffffffffffffffffffffffffffff1681526020016006820160149054906101000a900460ff1615151515815250509050919050565b610ed761175b565b80600660006101000a81548163ffffffff021916908363ffffffff16021790555050565b60016020528060005260406000206000915090508060000160009054906101000a900460ff16908060000160019054906101000a900460ff16905082565b610f4161175b565b8060058190555050565b600060606001600084815260200190815260200160002060000160019054906101000a900460ff16610fb2576040517f08c379a0000000000000000000000000000000000000000000000000000000008152600401610fa990612f14565b60405180910390fd5b6000600160008581526020019081526020016000206040518060600160405290816000820160009054906101000a900460ff161515151581526020016000820160019054906101000a900460ff161515151581526020016001820180548060200260200160405190810160405280929190818152602001828054801561105757602002820191906000526020600020905b815481526020019060010190808311611043575b5050505050815250509050806000015181604001519250925050915091565b600c5481565b611084611ce2565b6008600084815260200190815260200160002060008373ffffffffffffffffffffffffffffffffffffffff1673ffffffffffffffffffffffffffffffffffffffff1681526020019081526020016000206040518060600160405290816000820160009054906101000a900460ff161515151581526020016000820160019054906101000a900460ff161515151581526020016001820180548060200260200160405190810160405280929190818152602001828054801561116457602002820191906000526020600020905b815481526020019060010190808311611150575b505050505081525050905092915050565b600b8060000154905081565b61118961175b565b3373ffffffffffffffffffffffffffffffffffffffff166108fc479081150290604051600060405180830381858888f193505050501580156111cf573d6000803e3d6000fd5b50565b6111da6116df565b60006111e6600b6115ab565b9050600a600082815260200190815260200160002060040160009054906101000a900460ff161561124c576040517f08c379a000000000000000000000000000000000000000000000000000000000815260040161124390612fa6565b60405180910390fd5b34600a600083815260200190815260200160002060010154146112a4576040517f08c379a000000000000000000000000000000000000000000000000000000000815260040161129b90613038565b60405180910390fd5b60006112c4600a60008481526020019081526020016000206002016115ab565b90506112e4600a6000848152602001908152602001600020600201611acc565b60016008600084815260200190815260200160002060003373ffffffffffffffffffffffffffffffffffffffff1673ffffffffffffffffffffffffffffffffffffffff16815260200190815260200160002060000160006101000a81548160ff02191690831515021790555060006008600084815260200190815260200160002060003373ffffffffffffffffffffffffffffffffffffffff1673ffffffffffffffffffffffffffffffffffffffff16815260200190815260200160002060000160016101000a81548160ff0219169083151502179055506008600083815260200190815260200160002060003373ffffffffffffffffffffffffffffffffffffffff1673ffffffffffffffffffffffffffffffffffffffff1681526020019081526020016000206001018190806001815401808255809150506001900390600052602060002001600090919091909150553360096000848152602001908152602001600020600083815260200190815260200160002060006101000a81548173ffffffffffffffffffffffffffffffffffffffff021916908373ffffffffffffffffffffffffffffffffffffffff16021790555034600a600084815260200190815260200160002060030160008282546114bf9190613058565b925050819055503373ffffffffffffffffffffffffffffffffffffffff167f97fac0ce6558f4accbb4696915809c0ef7023ffe7ba9454e94d49fb652aae1d5348460405161150e929190612aa7565b60405180910390a25050611520611751565b565b61152a61175b565b600073ffffffffffffffffffffffffffffffffffffffff168173ffffffffffffffffffffffffffffffffffffffff1603611599576040517f08c379a0000000000000000000000000000000000000000000000000000000008152600401611590906130fe565b60405180910390fd5b6115a281611a08565b50565b60045481565b600081600001549050919050565b6115c38282611ae2565b60006115cf600b6115ab565b905060006115f1600a60008481526020019081526020016000206002016115ab565b9050600a60008381526020019081526020016000206005015484036116d957600960008381526020019081526020016000206000828560008151811061163a5761163961311e565b5b602002602001015161164c919061317c565b815260200190815260200160002060009054906101000a900473ffffffffffffffffffffffffffffffffffffffff16600a600084815260200190815260200160002060060160006101000a81548173ffffffffffffffffffffffffffffffffffffffff021916908373ffffffffffffffffffffffffffffffffffffffff1602179055506116d7611bdb565b505b50505050565b600260075403611724576040517f08c379a000000000000000000000000000000000000000000000000000000000815260040161171b906131f9565b60405180910390fd5b6002600781905550565b60006064600c54836117409190613219565b61174a919061325b565b9050919050565b6001600781905550565b611763611c75565b73ffffffffffffffffffffffffffffffffffffffff16611781610d1e565b73ffffffffffffffffffffffffffffffffffffffff16146117d7576040517f08c379a00000000000000000000000000000000000000000000000000000000081526004016117ce906132d8565b60405180910390fd5b565b6000600260009054906101000a900473ffffffffffffffffffffffffffffffffffffffff1673ffffffffffffffffffffffffffffffffffffffff16635d3b1d30600554600260149054906101000a900467ffffffffffffffff16600660049054906101000a900461ffff16600660009054906101000a900463ffffffff16876040518663ffffffff1660e01b8152600401611878959493929190613348565b6020604051808303816000875af1158015611897573d6000803e3d6000fd5b505050506040513d601f19601f820116820180604052508101906118bb91906133b0565b90506040518060600160405280600015158152602001600115158152602001600067ffffffffffffffff8111156118f5576118f4611de4565b5b6040519080825280602002602001820160405280156119235781602001602082028036833780820191505090505b508152506001600083815260200190815260200160002060008201518160000160006101000a81548160ff02191690831515021790555060208201518160000160016101000a81548160ff0219169083151502179055506040820151816001019080519060200190611996929190611d07565b509050506003819080600181540180825580915050600190039060005260206000200160009091909190915055806004819055507fcc58b13ad3eab50626c6a6300b1d139cd6ebb1688a7cced9461c2f7e762665ee81836040516119fb9291906133dd565b60405180910390a1919050565b60008060009054906101000a900473ffffffffffffffffffffffffffffffffffffffff169050816000806101000a81548173ffffffffffffffffffffffffffffffffffffffff021916908373ffffffffffffffffffffffffffffffffffffffff1602179055508173ffffffffffffffffffffffffffffffffffffffff168173ffffffffffffffffffffffffffffffffffffffff167f8be0079c531659141344cd1fd0a4f28419497f9722a3daafe3b4186f6b6457e060405160405180910390a35050565b6001816000016000828254019250508190555050565b6001600083815260200190815260200160002060000160019054906101000a900460ff16611b45576040517f08c379a0000000000000000000000000000000000000000000000000000000008152600401611b3c90612f14565b60405180910390fd5b600180600084815260200190815260200160002060000160006101000a81548160ff02191690831515021790555080600160008481526020019081526020016000206001019080519060200190611b9d929190611d07565b507ffe2e2d779dba245964d4e3ef9b994be63856fd568bf7d3ca9e224755cb1bd54d8282604051611bcf929190613406565b60405180910390a15050565b600080611be8600b6115ab565b9050611bf4600b611acc565b6000611c00600b6115ab565b9050600a6000838152602001908152602001600020600001600a60008381526020019081526020016000206000019081611c3a9190613461565b50600a600083815260200190815260200160002060010154600a60008381526020019081526020016000206001018190555060019250505090565b600033905090565b6040518061010001604052806060815260200160008152602001611c9f611d54565b81526020016000815260200160001515815260200160008152602001600073ffffffffffffffffffffffffffffffffffffffff1681526020016000151581525090565b6040518060600160405280600015158152602001600015158152602001606081525090565b828054828255906000526020600020908101928215611d43579160200282015b82811115611d42578251825591602001919060010190611d27565b5b509050611d509190611d67565b5090565b6040518060200160405280600081525090565b5b80821115611d80576000816000905550600101611d68565b5090565b6000604051905090565b600080fd5b600080fd5b6000819050919050565b611dab81611d98565b8114611db657600080fd5b50565b600081359050611dc881611da2565b92915050565b600080fd5b6000601f19601f8301169050919050565b7f4e487b7100000000000000000000000000000000000000000000000000000000600052604160045260246000fd5b611e1c82611dd3565b810181811067ffffffffffffffff82111715611e3b57611e3a611de4565b5b80604052505050565b6000611e4e611d84565b9050611e5a8282611e13565b919050565b600067ffffffffffffffff821115611e7a57611e79611de4565b5b602082029050602081019050919050565b600080fd5b6000611ea3611e9e84611e5f565b611e44565b90508083825260208201905060208402830185811115611ec657611ec5611e8b565b5b835b81811015611eef5780611edb8882611db9565b845260208401935050602081019050611ec8565b5050509392505050565b600082601f830112611f0e57611f0d611dce565b5b8135611f1e848260208601611e90565b91505092915050565b60008060408385031215611f3e57611f3d611d8e565b5b6000611f4c85828601611db9565b925050602083013567ffffffffffffffff811115611f6d57611f6c611d93565b5b611f7985828601611ef9565b9150509250929050565b600060208284031215611f9957611f98611d8e565b5b6000611fa784828501611db9565b91505092915050565b600080fd5b600067ffffffffffffffff821115611fd057611fcf611de4565b5b611fd982611dd3565b9050602081019050919050565b82818337600083830152505050565b600061200861200384611fb5565b611e44565b90508281526020810184848401111561202457612023611fb0565b5b61202f848285611fe6565b509392505050565b600082601f83011261204c5761204b611dce565b5b813561205c848260208601611ff5565b91505092915050565b60008060006060848603121561207e5761207d611d8e565b5b600084013567ffffffffffffffff81111561209c5761209b611d93565b5b6120a886828701612037565b93505060206120b986828701611db9565b92505060406120ca86828701611db9565b9150509250925092565b6120dd81611d98565b82525050565b60006020820190506120f860008301846120d4565b92915050565b600061ffff82169050919050565b612115816120fe565b811461212057600080fd5b50565b6000813590506121328161210c565b92915050565b60006020828403121561214e5761214d611d8e565b5b600061215c84828501612123565b91505092915050565b600073ffffffffffffffffffffffffffffffffffffffff82169050919050565b600061219082612165565b9050919050565b6121a081612185565b82525050565b60006020820190506121bb6000830184612197565b92915050565b600081519050919050565b600082825260208201905092915050565b60005b838110156121fb5780820151818401526020810190506121e0565b60008484015250505050565b6000612212826121c1565b61221c81856121cc565b935061222c8185602086016121dd565b61223581611dd3565b840191505092915050565b61224981611d98565b82525050565b6020820160008201516122656000850182612240565b50505050565b60008115159050919050565b6122808161226b565b82525050565b61228f81612185565b82525050565b60006101008301600083015184820360008601526122b38282612207565b91505060208301516122c86020860182612240565b5060408301516122db604086018261224f565b5060608301516122ee6060860182612240565b5060808301516123016080860182612277565b5060a083015161231460a0860182612240565b5060c083015161232760c0860182612286565b5060e083015161233a60e0860182612277565b508091505092915050565b6000602082019050818103600083015261235f8184612295565b905092915050565b600063ffffffff82169050919050565b61238081612367565b811461238b57600080fd5b50565b60008135905061239d81612377565b92915050565b6000602082840312156123b9576123b8611d8e565b5b60006123c78482850161238e565b91505092915050565b6123d98161226b565b82525050565b60006040820190506123f460008301856123d0565b61240160208301846123d0565b9392505050565b6000819050919050565b61241b81612408565b811461242657600080fd5b50565b60008135905061243881612412565b92915050565b60006020828403121561245457612453611d8e565b5b600061246284828501612429565b91505092915050565b600081519050919050565b600082825260208201905092915050565b6000819050602082019050919050565b60006124a38383612240565b60208301905092915050565b6000602082019050919050565b60006124c78261246b565b6124d18185612476565b93506124dc83612487565b8060005b8381101561250d5781516124f48882612497565b97506124ff836124af565b9250506001810190506124e0565b5085935050505092915050565b600060408201905061252f60008301856123d0565b818103602083015261254181846124bc565b90509392505050565b61255381612185565b811461255e57600080fd5b50565b6000813590506125708161254a565b92915050565b6000806040838503121561258d5761258c611d8e565b5b600061259b85828601611db9565b92505060206125ac85828601612561565b9150509250929050565b600082825260208201905092915050565b60006125d28261246b565b6125dc81856125b6565b93506125e783612487565b8060005b838110156126185781516125ff8882612497565b975061260a836124af565b9250506001810190506125eb565b5085935050505092915050565b600060608301600083015161263d6000860182612277565b5060208301516126506020860182612277565b506040830151848203604086015261266882826125c7565b9150508091505092915050565b6000602082019050818103600083015261268f8184612625565b905092915050565b6000602082840312156126ad576126ac611d8e565b5b60006126bb84828501612561565b91505092915050565b60006040820190506126d96000830185612197565b6126e66020830184612197565b9392505050565b600082825260208201905092915050565b7f5468652077696e6e657220616c726561647920636c61696d656420697473207060008201527f72697a652e000000000000000000000000000000000000000000000000000000602082015250565b600061275a6025836126ed565b9150612765826126fe565b604082019050919050565b600060208201905081810360008301526127898161274d565b9050919050565b7f54686973206c6f74746572792069736e27742066696e616c697a65642079657460008201527f2e00000000000000000000000000000000000000000000000000000000000000602082015250565b60006127ec6021836126ed565b91506127f782612790565b604082019050919050565b6000602082019050818103600083015261281b816127df565b9050919050565b7f54686973206c6f7474657279206469646e27742067657420612077696e6e657260008201527f207965742e000000000000000000000000000000000000000000000000000000602082015250565b600061287e6025836126ed565b915061288982612822565b604082019050919050565b600060208201905081810360008301526128ad81612871565b9050919050565b7f596f75277265206e6f74207468652077696e6e65722e00000000000000000000600082015250565b60006128ea6016836126ed565b91506128f5826128b4565b602082019050919050565b60006020820190508181036000830152612919816128dd565b9050919050565b7f596f7520646f6e74206861766520616e79207469636b657420746f20636c616960008201527f6d20686572652e00000000000000000000000000000000000000000000000000602082015250565b600061297c6027836126ed565b915061298782612920565b604082019050919050565b600060208201905081810360008301526129ab8161296f565b9050919050565b7f596f75206861766520616c7265616420636c61696d656420796f75722070726960008201527f7a652e0000000000000000000000000000000000000000000000000000000000602082015250565b6000612a0e6023836126ed565b9150612a19826129b2565b604082019050919050565b60006020820190508181036000830152612a3d81612a01565b9050919050565b7f4e487b7100000000000000000000000000000000000000000000000000000000600052601160045260246000fd5b6000612a7e82611d98565b9150612a8983611d98565b9250828203905081811115612aa157612aa0612a44565b5b92915050565b6000604082019050612abc60008301856120d4565b612ac960208301846120d4565b9392505050565b7f4c6f747465727920616c72656164792066696e616c697a65642e000000000000600082015250565b6000612b06601a836126ed565b9150612b1182612ad0565b602082019050919050565b60006020820190508181036000830152612b3581612af9565b9050919050565b6000606082019050612b516000830186612197565b612b5e60208301856120d4565b612b6b60408301846120d4565b949350505050565b7f4e487b7100000000000000000000000000000000000000000000000000000000600052602260045260246000fd5b60006002820490506001821680612bba57607f821691505b602082108103612bcd57612bcc612b73565b5b50919050565b60008190508160005260206000209050919050565b60006020601f8301049050919050565b600082821b905092915050565b600060088302612c357fffffffffffffffffffffffffffffffffffffffffffffffffffffffffffffffff82612bf8565b612c3f8683612bf8565b95508019841693508086168417925050509392505050565b6000819050919050565b6000612c7c612c77612c7284611d98565b612c57565b611d98565b9050919050565b6000819050919050565b612c9683612c61565b612caa612ca282612c83565b848454612c05565b825550505050565b600090565b612cbf612cb2565b612cca818484612c8d565b505050565b5b81811015612cee57612ce3600082612cb7565b600181019050612cd0565b5050565b601f821115612d3357612d0481612bd3565b612d0d84612be8565b81016020851015612d1c578190505b612d30612d2885612be8565b830182612ccf565b50505b505050565b600082821c905092915050565b6000612d5660001984600802612d38565b1980831691505092915050565b6000612d6f8383612d45565b9150826002028217905092915050565b612d88826121c1565b67ffffffffffffffff811115612da157612da0611de4565b5b612dab8254612ba2565b612db6828285612cf2565b600060209050601f831160018114612de95760008415612dd7578287015190505b612de18582612d63565b865550612e49565b601f198416612df786612bd3565b60005b82811015612e1f57848901518255600182019150602085019450602081019050612dfa565b86831015612e3c5784890151612e38601f891682612d45565b8355505b6001600288020188555050505b505050505050565b6000612e5c826121c1565b612e6681856126ed565b9350612e768185602086016121dd565b612e7f81611dd3565b840191505092915050565b60006060820190508181036000830152612ea48186612e51565b9050612eb360208301856120d4565b612ec060408301846120d4565b949350505050565b7f72657175657374206e6f7420666f756e64000000000000000000000000000000600082015250565b6000612efe6011836126ed565b9150612f0982612ec8565b602082019050919050565b60006020820190508181036000830152612f2d81612ef1565b9050919050565b7f54686973206c6f74746572792068617320616c72656164792066696e616c697a60008201527f65642c207761697420666f7220726573756c7473210000000000000000000000602082015250565b6000612f906035836126ed565b9150612f9b82612f34565b604082019050919050565b60006020820190508181036000830152612fbf81612f83565b9050919050565b7f596f75206e65656420746f20706179207468652065786163746c79207469636b60008201527f65742070726963652e0000000000000000000000000000000000000000000000602082015250565b60006130226029836126ed565b915061302d82612fc6565b604082019050919050565b6000602082019050818103600083015261305181613015565b9050919050565b600061306382611d98565b915061306e83611d98565b925082820190508082111561308657613085612a44565b5b92915050565b7f4f776e61626c653a206e6577206f776e657220697320746865207a65726f206160008201527f6464726573730000000000000000000000000000000000000000000000000000602082015250565b60006130e86026836126ed565b91506130f38261308c565b604082019050919050565b60006020820190508181036000830152613117816130db565b9050919050565b7f4e487b7100000000000000000000000000000000000000000000000000000000600052603260045260246000fd5b7f4e487b7100000000000000000000000000000000000000000000000000000000600052601260045260246000fd5b600061318782611d98565b915061319283611d98565b9250826131a2576131a161314d565b5b828206905092915050565b7f5265656e7472616e637947756172643a207265656e7472616e742063616c6c00600082015250565b60006131e3601f836126ed565b91506131ee826131ad565b602082019050919050565b60006020820190508181036000830152613212816131d6565b9050919050565b600061322482611d98565b915061322f83611d98565b925082820261323d81611d98565b9150828204841483151761325457613253612a44565b5b5092915050565b600061326682611d98565b915061327183611d98565b9250826132815761328061314d565b5b828204905092915050565b7f4f776e61626c653a2063616c6c6572206973206e6f7420746865206f776e6572600082015250565b60006132c26020836126ed565b91506132cd8261328c565b602082019050919050565b600060208201905081810360008301526132f1816132b5565b9050919050565b61330181612408565b82525050565b600067ffffffffffffffff82169050919050565b61332481613307565b82525050565b613333816120fe565b82525050565b61334281612367565b82525050565b600060a08201905061335d60008301886132f8565b61336a602083018761331b565b613377604083018661332a565b6133846060830185613339565b6133916080830184613339565b9695505050505050565b6000815190506133aa81611da2565b92915050565b6000602082840312156133c6576133c5611d8e565b5b60006133d48482850161339b565b91505092915050565b60006040820190506133f260008301856120d4565b6133ff6020830184613339565b9392505050565b600060408201905061341b60008301856120d4565b818103602083015261342d81846124bc565b90509392505050565b60008154905061344581612ba2565b9050919050565b60008190508160005260206000209050919050565b81810361346f575050613547565b61347882613436565b67ffffffffffffffff81111561349157613490611de4565b5b61349b8254612ba2565b6134a6828285612cf2565b6000601f8311600181146134d557600084156134c3578287015490505b6134cd8582612d63565b865550613540565b601f1984166134e38761344c565b96506134ee86612bd3565b60005b82811015613516578489015482556001820191506001850194506020810190506134f1565b86831015613533578489015461352f601f891682612d45565b8355505b6001600288020188555050505b5050505050505b56fea26469706673582212201eab90cf6a13dd98fb728d2c5ceb71398c848c8b714edd31f49507601d33304164736f6c63430008110033",
  "immutableReferences": {
    "10": [
      {
        "length": 32,
        "start": 1139
      },
      {
        "length": 32,
        "start": 1223
      }
    ]
  },
  "source": "// SPDX-License-Identifier: MIT\r\npragma solidity ^0.8.17;\r\n\r\nimport \"@chainlink/contracts/src/v0.8/interfaces/VRFCoordinatorV2Interface.sol\";\r\nimport \"@chainlink/contracts/src/v0.8/VRFConsumerBaseV2.sol\";\r\n\r\nimport \"@openzeppelin/contracts/access/Ownable.sol\";\r\nimport \"@openzeppelin/contracts/utils/Counters.sol\";\r\nimport \"@openzeppelin/contracts/security/ReentrancyGuard.sol\";\r\n\r\nimport \"./VRFV2Consumer.sol\";\r\n\r\ncontract Lottery is Ownable, VRFV2Consumer, ReentrancyGuard {\r\n    using Counters for Counters.Counter;\r\n\r\n    struct User {\r\n        bool hasTicket;\r\n        bool claimed;\r\n        uint256 [] tickets;\r\n    }\r\n\r\n    struct LotteryStruct {\r\n        string name;\r\n        uint256 ticketPrice;\r\n        Counters.Counter ticketsCount;\r\n        uint256 balance;\r\n        bool finalized;\r\n        uint256 indexChainLink;\r\n        address winner;\r\n        bool claimed;\r\n    }\r\n\r\n    mapping(uint256 => mapping(address => User)) ticketOwners;\r\n    mapping(uint256 => mapping(uint256 => address)) tickets;\r\n    mapping(uint256 => LotteryStruct) lottery;\r\n\r\n    Counters.Counter public lotteryId;\r\n    uint256 public fee;\r\n\r\n    event TicketBought(address indexed buyer, uint256 price, uint256 ticketNumber);\r\n    event LotteryFinalized(address owner, uint256 totalValue, uint256 ticketAmount);\r\n    event ClaimedPrize(address indexed winner, uint256 totalPrize, uint256 fee);\r\n    event ChangedProperties(address indexed owner, string name, uint256 ticketPrize, uint256 fee);\r\n\r\n    constructor(\r\n        uint64 _subscriptionId,\r\n        address _cordinatorAddress,\r\n        bytes32 _keyHash,\r\n        string memory _name,\r\n        uint256 _ticketPrice,\r\n        uint256 _fee\r\n    ) VRFV2Consumer(_subscriptionId, _cordinatorAddress, _keyHash) {\r\n        uint256 currentLottery = lotteryId.current();\r\n        lottery[currentLottery].name = _name;\r\n        lottery[currentLottery].ticketPrice = _ticketPrice;\r\n        fee = _fee;\r\n    }\r\n\r\n    function buyTicket() external payable nonReentrant {\r\n        uint256 currentLottery = lotteryId.current();\r\n        require(\r\n            !lottery[currentLottery].finalized,\r\n            \"This lottery has already finalized, wait for results!\"\r\n        );\r\n        require(\r\n            lottery[currentLottery].ticketPrice == msg.value,\r\n            \"You need to pay the exactly ticket price.\"\r\n        );\r\n\r\n        uint256 currentLotteryPosition = lottery[currentLottery].ticketsCount.current();\r\n        lottery[currentLottery].ticketsCount.increment();\r\n\r\n        ticketOwners[currentLottery][msg.sender].hasTicket = true;\r\n        ticketOwners[currentLottery][msg.sender].claimed = false;\r\n        ticketOwners[currentLottery][msg.sender].tickets.push(currentLotteryPosition);\r\n\r\n        tickets[currentLottery][currentLotteryPosition] = msg.sender;\r\n        lottery[currentLottery].balance += msg.value;\r\n\r\n        emit TicketBought(msg.sender, msg.value, currentLottery);\r\n    }\r\n\r\n    function finalizeLottery() external onlyOwner {\r\n        uint256 currentLottery = lotteryId.current();\r\n        require(!lottery[currentLottery].finalized, \"Lottery already finalized.\");\r\n        lottery[currentLottery].finalized = true;\r\n\r\n        lottery[currentLottery].indexChainLink = requestRandomWords(1);\r\n        emit LotteryFinalized(msg.sender, lottery[currentLottery].balance, lottery[currentLottery].ticketsCount.current());\r\n    }\r\n\r\n    function fulfillRandomWords(\r\n        uint256 _requestId,\r\n        uint256[] memory _randomWords\r\n    ) internal override {\r\n        super.fulfillRandomWords(_requestId, _randomWords);\r\n        uint256 currentLottery = lotteryId.current();\r\n        uint256 currentLotteryPosition = lottery[currentLottery].ticketsCount.current();\r\n        if (_requestId == lottery[currentLottery].indexChainLink) {\r\n            lottery[currentLottery].winner = tickets[currentLottery][\r\n                _randomWords[0] % currentLotteryPosition\r\n            ];\r\n            resetLottery();\r\n        }\r\n    }\r\n\r\n    function claim(uint256 lotteryIndex) external nonReentrant {\r\n\r\n        require(!lottery[lotteryIndex].claimed, \"The winner already claimed its prize.\");\r\n        require(lottery[lotteryIndex].finalized, \"This lottery isn't finalized yet.\");\r\n        require(\r\n            lottery[lotteryIndex].winner != address(0),\r\n            \"This lottery didn't get a winner yet.\"\r\n        );\r\n        require(lottery[lotteryIndex].winner == msg.sender, \"You're not the winner.\");\r\n        require(\r\n            ticketOwners[lotteryIndex][msg.sender].hasTicket,\r\n            \"You dont have any ticket to claim here.\"\r\n        );\r\n        require(\r\n            !ticketOwners[lotteryIndex][msg.sender].claimed,\r\n            \"You have alread claimed your prize.\"\r\n        );\r\n        lottery[lotteryIndex].claimed = true;\r\n        ticketOwners[lotteryIndex][msg.sender].hasTicket = false;\r\n        ticketOwners[lotteryIndex][msg.sender].claimed = true;\r\n\r\n        uint256 _feeAmount = _calcFee(lottery[lotteryIndex].balance);\r\n        uint256 prize = lottery[lotteryIndex].balance - _feeAmount;\r\n\r\n        payable(owner()).transfer(_feeAmount);\r\n        payable(msg.sender).transfer(prize);\r\n        emit ClaimedPrize(msg.sender, prize, _feeAmount);\r\n    }\r\n\r\n    function resetLottery() private returns (bool) {\r\n        // Change the pointer to the next position.\r\n        uint256 currentLottery = lotteryId.current();\r\n        lotteryId.increment();\r\n        uint256 nextLottery = lotteryId.current();\r\n\r\n        // Get last lottery price and name to set the next one.\r\n        lottery[nextLottery].name = lottery[currentLottery].name;\r\n        lottery[nextLottery].ticketPrice = lottery[currentLottery].ticketPrice;\r\n\r\n        return true;       \r\n    }\r\n\r\n    function _calcFee(uint256 amount) private view returns (uint256) {\r\n        return (amount * fee) / 100;\r\n    }\r\n\r\n    function setProperties(string memory _name, uint256 _ticketPrice, uint256 _fee)\r\n        external\r\n        onlyOwner\r\n    {\r\n        uint256 currentLottery = lotteryId.current();\r\n        lottery[currentLottery].name = _name;\r\n        lottery[currentLottery].ticketPrice = _ticketPrice;\r\n        fee = _fee;\r\n\r\n        emit ChangedProperties(msg.sender, _name, _ticketPrice, _fee);\r\n    }\r\n\r\n    function getLotteryStatus(uint256 _lotteryId) public view returns(LotteryStruct memory _lottery) {\r\n        return lottery[_lotteryId];\r\n    }\r\n\r\n    function getUserStatus(uint256 _lotteryId, address _user) public view returns(User memory _returnedUser) {\r\n        return ticketOwners[_lotteryId][_user];\r\n    }\r\n\r\n    // Only if we have some problem to use this \r\n    function getAllBalance() external onlyOwner {\r\n       payable(msg.sender).transfer(address(this).balance);\r\n    }\r\n}\r\n",
  "sourcePath": "C:\\lucas_blockchain\\Projetos\\LottoCrypto\\Truffle\\contracts\\Lottery.sol",
  "compiler": {
    "name": "solc",
    "version": "0.8.17+commit.8df45f5f.Emscripten.clang"
  },
  "schemaVersion": "3.4.10",
  "updatedAt": "2023-03-07T17:30:24.543Z",
  "devdoc": {
    "kind": "dev",
    "methods": {
      "owner()": {
        "details": "Returns the address of the current owner."
      },
      "renounceOwnership()": {
        "details": "Leaves the contract without owner. It will not be possible to call `onlyOwner` functions anymore. Can only be called by the current owner. NOTE: Renouncing ownership will leave the contract without an owner, thereby removing any functionality that is only available to the owner."
      },
      "transferOwnership(address)": {
        "details": "Transfers ownership of the contract to a new account (`newOwner`). Can only be called by the current owner."
      }
    },
    "version": 1
  },
  "userdoc": {
    "kind": "user",
    "methods": {},
    "version": 1
  }
}