{
  "contractName": "Lottery",
  "abi": [
    {
      "inputs": [
        {
          "internalType": "uint64",
          "name": "_subscriptionId",
          "type": "uint64"
        },
        {
          "internalType": "address",
          "name": "_cordinatorAddress",
          "type": "address"
        },
        {
          "internalType": "bytes32",
          "name": "_keyHash",
          "type": "bytes32"
        },
        {
          "internalType": "string",
          "name": "_name",
          "type": "string"
        },
        {
          "internalType": "uint256",
          "name": "_ticketPrice",
          "type": "uint256"
        },
        {
          "internalType": "uint256",
          "name": "_fee",
          "type": "uint256"
        }
      ],
      "stateMutability": "nonpayable",
      "type": "constructor"
    },
    {
      "inputs": [
        {
          "internalType": "address",
          "name": "have",
          "type": "address"
        },
        {
          "internalType": "address",
          "name": "want",
          "type": "address"
        }
      ],
      "name": "OnlyCoordinatorCanFulfill",
      "type": "error"
    },
    {
      "anonymous": false,
      "inputs": [
        {
          "indexed": true,
          "internalType": "address",
          "name": "owner",
          "type": "address"
        },
        {
          "indexed": false,
          "internalType": "string",
          "name": "name",
          "type": "string"
        },
        {
          "indexed": false,
          "internalType": "uint256",
          "name": "ticketPrize",
          "type": "uint256"
        },
        {
          "indexed": false,
          "internalType": "uint256",
          "name": "fee",
          "type": "uint256"
        }
      ],
      "name": "ChangedProperties",
      "type": "event"
    },
    {
      "anonymous": false,
      "inputs": [
        {
          "indexed": true,
          "internalType": "address",
          "name": "winner",
          "type": "address"
        },
        {
          "indexed": false,
          "internalType": "uint256",
          "name": "totalPrize",
          "type": "uint256"
        },
        {
          "indexed": false,
          "internalType": "uint256",
          "name": "fee",
          "type": "uint256"
        }
      ],
      "name": "ClaimedPrize",
      "type": "event"
    },
    {
      "anonymous": false,
      "inputs": [
        {
          "indexed": false,
          "internalType": "address",
          "name": "owner",
          "type": "address"
        },
        {
          "indexed": false,
          "internalType": "uint256",
          "name": "totalValue",
          "type": "uint256"
        },
        {
          "indexed": false,
          "internalType": "uint256",
          "name": "ticketAmount",
          "type": "uint256"
        }
      ],
      "name": "LotteryFinalized",
      "type": "event"
    },
    {
      "anonymous": false,
      "inputs": [
        {
          "indexed": true,
          "internalType": "address",
          "name": "previousOwner",
          "type": "address"
        },
        {
          "indexed": true,
          "internalType": "address",
          "name": "newOwner",
          "type": "address"
        }
      ],
      "name": "OwnershipTransferred",
      "type": "event"
    },
    {
      "anonymous": false,
      "inputs": [
        {
          "indexed": false,
          "internalType": "uint256",
          "name": "requestId",
          "type": "uint256"
        },
        {
          "indexed": false,
          "internalType": "uint256[]",
          "name": "randomWords",
          "type": "uint256[]"
        }
      ],
      "name": "RequestFulfilled",
      "type": "event"
    },
    {
      "anonymous": false,
      "inputs": [
        {
          "indexed": false,
          "internalType": "uint256",
          "name": "requestId",
          "type": "uint256"
        },
        {
          "indexed": false,
          "internalType": "uint32",
          "name": "numWords",
          "type": "uint32"
        }
      ],
      "name": "RequestSent",
      "type": "event"
    },
    {
      "anonymous": false,
      "inputs": [
        {
          "indexed": true,
          "internalType": "address",
          "name": "buyer",
          "type": "address"
        },
        {
          "indexed": false,
          "internalType": "uint256",
          "name": "price",
          "type": "uint256"
        },
        {
          "indexed": false,
          "internalType": "uint256",
          "name": "ticketNumber",
          "type": "uint256"
        }
      ],
      "name": "TicketBought",
      "type": "event"
    },
    {
      "inputs": [],
      "name": "fee",
      "outputs": [
        {
          "internalType": "uint256",
          "name": "",
          "type": "uint256"
        }
      ],
      "stateMutability": "view",
      "type": "function",
      "constant": true
    },
    {
      "inputs": [
        {
          "internalType": "uint256",
          "name": "_requestId",
          "type": "uint256"
        }
      ],
      "name": "getRequestStatus",
      "outputs": [
        {
          "internalType": "bool",
          "name": "fulfilled",
          "type": "bool"
        },
        {
          "internalType": "uint256[]",
          "name": "randomWords",
          "type": "uint256[]"
        }
      ],
      "stateMutability": "view",
      "type": "function",
      "constant": true
    },
    {
      "inputs": [],
      "name": "lastRequestId",
      "outputs": [
        {
          "internalType": "uint256",
          "name": "",
          "type": "uint256"
        }
      ],
      "stateMutability": "view",
      "type": "function",
      "constant": true
    },
    {
      "inputs": [],
      "name": "lotteryId",
      "outputs": [
        {
          "internalType": "uint256",
          "name": "_value",
          "type": "uint256"
        }
      ],
      "stateMutability": "view",
      "type": "function",
      "constant": true
    },
    {
      "inputs": [],
      "name": "owner",
      "outputs": [
        {
          "internalType": "address",
          "name": "",
          "type": "address"
        }
      ],
      "stateMutability": "view",
      "type": "function",
      "constant": true
    },
    {
      "inputs": [
        {
          "internalType": "uint256",
          "name": "requestId",
          "type": "uint256"
        },
        {
          "internalType": "uint256[]",
          "name": "randomWords",
          "type": "uint256[]"
        }
      ],
      "name": "rawFulfillRandomWords",
      "outputs": [],
      "stateMutability": "nonpayable",
      "type": "function"
    },
    {
      "inputs": [],
      "name": "renounceOwnership",
      "outputs": [],
      "stateMutability": "nonpayable",
      "type": "function"
    },
    {
      "inputs": [
        {
          "internalType": "uint256",
          "name": "",
          "type": "uint256"
        }
      ],
      "name": "requestIds",
      "outputs": [
        {
          "internalType": "uint256",
          "name": "",
          "type": "uint256"
        }
      ],
      "stateMutability": "view",
      "type": "function",
      "constant": true
    },
    {
      "inputs": [
        {
          "internalType": "uint256",
          "name": "",
          "type": "uint256"
        }
      ],
      "name": "s_requests",
      "outputs": [
        {
          "internalType": "bool",
          "name": "fulfilled",
          "type": "bool"
        },
        {
          "internalType": "bool",
          "name": "exists",
          "type": "bool"
        }
      ],
      "stateMutability": "view",
      "type": "function",
      "constant": true
    },
    {
      "inputs": [
        {
          "internalType": "address",
          "name": "newOwner",
          "type": "address"
        }
      ],
      "name": "transferOwnership",
      "outputs": [],
      "stateMutability": "nonpayable",
      "type": "function"
    },
    {
      "inputs": [],
      "name": "buyTicket",
      "outputs": [],
      "stateMutability": "payable",
      "type": "function",
      "payable": true
    },
    {
      "inputs": [],
      "name": "finalizeLottery",
      "outputs": [],
      "stateMutability": "nonpayable",
      "type": "function"
    },
    {
      "inputs": [
        {
          "internalType": "uint256",
          "name": "lotteryIndex",
          "type": "uint256"
        }
      ],
      "name": "claim",
      "outputs": [],
      "stateMutability": "nonpayable",
      "type": "function"
    },
    {
      "inputs": [
        {
          "internalType": "string",
          "name": "_name",
          "type": "string"
        },
        {
          "internalType": "uint256",
          "name": "_ticketPrice",
          "type": "uint256"
        },
        {
          "internalType": "uint256",
          "name": "_fee",
          "type": "uint256"
        }
      ],
      "name": "setProperties",
      "outputs": [],
      "stateMutability": "nonpayable",
      "type": "function"
    },
    {
      "inputs": [
        {
          "internalType": "uint256",
          "name": "_lotteryId",
          "type": "uint256"
        }
      ],
      "name": "getLotteryStatus",
      "outputs": [
        {
          "components": [
            {
              "internalType": "string",
              "name": "name",
              "type": "string"
            },
            {
              "internalType": "uint256",
              "name": "ticketPrice",
              "type": "uint256"
            },
            {
              "components": [
                {
                  "internalType": "uint256",
                  "name": "_value",
                  "type": "uint256"
                }
              ],
              "internalType": "struct Counters.Counter",
              "name": "ticketsCount",
              "type": "tuple"
            },
            {
              "internalType": "uint256",
              "name": "balance",
              "type": "uint256"
            },
            {
              "internalType": "bool",
              "name": "finalized",
              "type": "bool"
            },
            {
              "internalType": "uint256",
              "name": "indexChainLink",
              "type": "uint256"
            },
            {
              "internalType": "address",
              "name": "winner",
              "type": "address"
            },
            {
              "internalType": "bool",
              "name": "claimed",
              "type": "bool"
            }
          ],
          "internalType": "struct Lottery.LotteryStruct",
          "name": "_lottery",
          "type": "tuple"
        }
      ],
      "stateMutability": "view",
      "type": "function",
      "constant": true
    },
    {
      "inputs": [],
      "name": "getAllBalance",
      "outputs": [],
      "stateMutability": "nonpayable",
      "type": "function"
    }
  ],
  "bytecode": "0x60a06040526207a120600660006101000a81548163ffffffff021916908363ffffffff1602179055506003600660046101000a81548161ffff021916908361ffff1602179055503480156200005357600080fd5b5060405162003ac738038062003ac783398181016040528101906200007991906200054b565b858585818073ffffffffffffffffffffffffffffffffffffffff1660808173ffffffffffffffffffffffffffffffffffffffff168152505050620000d2620000c6620001be60201b60201c565b620001c660201b60201c565b81600260006101000a81548173ffffffffffffffffffffffffffffffffffffffff021916908373ffffffffffffffffffffffffffffffffffffffff16021790555082600260146101000a81548167ffffffffffffffff021916908367ffffffffffffffff160217905550806005819055505050506001600781905550600062000167600b6200028a60201b620013901760201c565b905083600a600083815260200190815260200160002060000190816200018e919062000847565b5082600a60008381526020019081526020016000206001018190555081600c81905550505050505050506200092e565b600033905090565b60008060009054906101000a900473ffffffffffffffffffffffffffffffffffffffff169050816000806101000a81548173ffffffffffffffffffffffffffffffffffffffff021916908373ffffffffffffffffffffffffffffffffffffffff1602179055508173ffffffffffffffffffffffffffffffffffffffff168173ffffffffffffffffffffffffffffffffffffffff167f8be0079c531659141344cd1fd0a4f28419497f9722a3daafe3b4186f6b6457e060405160405180910390a35050565b600081600001549050919050565b6000604051905090565b600080fd5b600080fd5b600067ffffffffffffffff82169050919050565b620002cb81620002ac565b8114620002d757600080fd5b50565b600081519050620002eb81620002c0565b92915050565b600073ffffffffffffffffffffffffffffffffffffffff82169050919050565b60006200031e82620002f1565b9050919050565b620003308162000311565b81146200033c57600080fd5b50565b600081519050620003508162000325565b92915050565b6000819050919050565b6200036b8162000356565b81146200037757600080fd5b50565b6000815190506200038b8162000360565b92915050565b600080fd5b600080fd5b6000601f19601f8301169050919050565b7f4e487b7100000000000000000000000000000000000000000000000000000000600052604160045260246000fd5b620003e6826200039b565b810181811067ffffffffffffffff82111715620004085762000407620003ac565b5b80604052505050565b60006200041d62000298565b90506200042b8282620003db565b919050565b600067ffffffffffffffff8211156200044e576200044d620003ac565b5b62000459826200039b565b9050602081019050919050565b60005b838110156200048657808201518184015260208101905062000469565b60008484015250505050565b6000620004a9620004a38462000430565b62000411565b905082815260208101848484011115620004c857620004c762000396565b5b620004d584828562000466565b509392505050565b600082601f830112620004f557620004f462000391565b5b81516200050784826020860162000492565b91505092915050565b6000819050919050565b620005258162000510565b81146200053157600080fd5b50565b60008151905062000545816200051a565b92915050565b60008060008060008060c087890312156200056b576200056a620002a2565b5b60006200057b89828a01620002da565b96505060206200058e89828a016200033f565b9550506040620005a189828a016200037a565b945050606087015167ffffffffffffffff811115620005c557620005c4620002a7565b5b620005d389828a01620004dd565b9350506080620005e689828a0162000534565b92505060a0620005f989828a0162000534565b9150509295509295509295565b600081519050919050565b7f4e487b7100000000000000000000000000000000000000000000000000000000600052602260045260246000fd5b600060028204905060018216806200065957607f821691505b6020821081036200066f576200066e62000611565b5b50919050565b60008190508160005260206000209050919050565b60006020601f8301049050919050565b600082821b905092915050565b600060088302620006d97fffffffffffffffffffffffffffffffffffffffffffffffffffffffffffffffff826200069a565b620006e586836200069a565b95508019841693508086168417925050509392505050565b6000819050919050565b600062000728620007226200071c8462000510565b620006fd565b62000510565b9050919050565b6000819050919050565b620007448362000707565b6200075c62000753826200072f565b848454620006a7565b825550505050565b600090565b6200077362000764565b6200078081848462000739565b505050565b5b81811015620007a8576200079c60008262000769565b60018101905062000786565b5050565b601f821115620007f757620007c18162000675565b620007cc846200068a565b81016020851015620007dc578190505b620007f4620007eb856200068a565b83018262000785565b50505b505050565b600082821c905092915050565b60006200081c60001984600802620007fc565b1980831691505092915050565b600062000837838362000809565b9150826002028217905092915050565b620008528262000606565b67ffffffffffffffff8111156200086e576200086d620003ac565b5b6200087a825462000640565b62000887828285620007ac565b600060209050601f831160018114620008bf5760008415620008aa578287015190505b620008b6858262000829565b86555062000926565b601f198416620008cf8662000675565b60005b82811015620008f957848901518255600182019150602085019450602081019050620008d2565b8683101562000919578489015162000915601f89168262000809565b8355505b6001600288020188555050505b505050505050565b608051613176620009516000396000818161038f01526103e301526131766000f3fe6080604052600436106100f35760003560e01c8063a168fa891161008a578063eb9969a811610059578063eb9969a814610318578063edca914c1461032f578063f2fde38b14610339578063fc2a88c314610362576100f3565b8063a168fa8914610246578063d8a4676f14610284578063ddca3f43146102c2578063e580f47b146102ed576100f3565b8063715018a6116100c6578063715018a61461018a5780638796ba8c146101a15780638da5cb5b146101de5780638ff7229314610209576100f3565b80631fe543e3146100f8578063379607f514610121578063456c28921461014a5780635e202d2314610161575b600080fd5b34801561010457600080fd5b5061011f600480360381019061011a9190611cde565b61038d565b005b34801561012d57600080fd5b5061014860048036038101906101439190611d3a565b61044d565b005b34801561015657600080fd5b5061015f610a2f565b005b34801561016d57600080fd5b5061018860048036038101906101839190611e1c565b610b6d565b005b34801561019657600080fd5b5061019f610c21565b005b3480156101ad57600080fd5b506101c860048036038101906101c39190611d3a565b610c35565b6040516101d59190611e9a565b60405180910390f35b3480156101ea57600080fd5b506101f3610c59565b6040516102009190611ef6565b60405180910390f35b34801561021557600080fd5b50610230600480360381019061022b9190611d3a565b610c82565b60405161023d9190612095565b60405180910390f35b34801561025257600080fd5b5061026d60048036038101906102689190611d3a565b610e0a565b60405161027b9291906120c6565b60405180910390f35b34801561029057600080fd5b506102ab60048036038101906102a69190611d3a565b610e48565b6040516102b992919061219e565b60405180910390f35b3480156102ce57600080fd5b506102d7610f73565b6040516102e49190611e9a565b60405180910390f35b3480156102f957600080fd5b50610302610f79565b60405161030f9190611e9a565b60405180910390f35b34801561032457600080fd5b5061032d610f85565b005b610337610fd6565b005b34801561034557600080fd5b50610360600480360381019061035b91906121fa565b611307565b005b34801561036e57600080fd5b5061037761138a565b6040516103849190611e9a565b60405180910390f35b7f000000000000000000000000000000000000000000000000000000000000000073ffffffffffffffffffffffffffffffffffffffff163373ffffffffffffffffffffffffffffffffffffffff161461043f57337f00000000000000000000000000000000000000000000000000000000000000006040517f1cf993f4000000000000000000000000000000000000000000000000000000008152600401610436929190612227565b60405180910390fd5b610449828261139e565b5050565b6104556114bb565b600a600082815260200190815260200160002060060160149054906101000a900460ff16156104b9576040517f08c379a00000000000000000000000000000000000000000000000000000000081526004016104b0906122d3565b60405180910390fd5b600a600082815260200190815260200160002060040160009054906101000a900460ff1661051c576040517f08c379a000000000000000000000000000000000000000000000000000000000815260040161051390612365565b60405180910390fd5b600073ffffffffffffffffffffffffffffffffffffffff16600a600083815260200190815260200160002060060160009054906101000a900473ffffffffffffffffffffffffffffffffffffffff1673ffffffffffffffffffffffffffffffffffffffff16036105c1576040517f08c379a00000000000000000000000000000000000000000000000000000000081526004016105b8906123f7565b60405180910390fd5b6008600082815260200190815260200160002060003373ffffffffffffffffffffffffffffffffffffffff1673ffffffffffffffffffffffffffffffffffffffff16815260200190815260200160002060000160009054906101000a900460ff16610661576040517f08c379a000000000000000000000000000000000000000000000000000000000815260040161065890612489565b60405180910390fd5b6008600082815260200190815260200160002060003373ffffffffffffffffffffffffffffffffffffffff1673ffffffffffffffffffffffffffffffffffffffff16815260200190815260200160002060000160019054906101000a900460ff1615610702576040517f08c379a00000000000000000000000000000000000000000000000000000000081526004016106f99061251b565b60405180910390fd5b3373ffffffffffffffffffffffffffffffffffffffff16600a600083815260200190815260200160002060060160009054906101000a900473ffffffffffffffffffffffffffffffffffffffff1673ffffffffffffffffffffffffffffffffffffffff16146107a6576040517f08c379a000000000000000000000000000000000000000000000000000000000815260040161079d90612587565b60405180910390fd5b6001600a600083815260200190815260200160002060060160146101000a81548160ff02191690831515021790555060006008600083815260200190815260200160002060003373ffffffffffffffffffffffffffffffffffffffff1673ffffffffffffffffffffffffffffffffffffffff16815260200190815260200160002060000160006101000a81548160ff02191690831515021790555060016008600083815260200190815260200160002060003373ffffffffffffffffffffffffffffffffffffffff1673ffffffffffffffffffffffffffffffffffffffff16815260200190815260200160002060000160016101000a81548160ff02191690831515021790555060006108ce600a60008481526020019081526020016000206003015461150a565b9050600081600a6000858152602001908152602001600020600301546108f491906125d6565b90506108fe61152d565b61093d576040517f08c379a000000000000000000000000000000000000000000000000000000000815260040161093490612656565b60405180910390fd5b610945610c59565b73ffffffffffffffffffffffffffffffffffffffff166108fc839081150290604051600060405180830381858888f1935050505015801561098a573d6000803e3d6000fd5b503373ffffffffffffffffffffffffffffffffffffffff166108fc829081150290604051600060405180830381858888f193505050501580156109d1573d6000803e3d6000fd5b503373ffffffffffffffffffffffffffffffffffffffff167f958da08b85b84cbd2625af831fdd0b864642d0b1da0401a911437355aa9812558284604051610a1a929190612676565b60405180910390a25050610a2c6115c7565b50565b610a376115d1565b6000610a43600b611390565b9050600a600082815260200190815260200160002060040160009054906101000a900460ff1615610aa9576040517f08c379a0000000000000000000000000000000000000000000000000000000008152600401610aa0906126eb565b60405180910390fd5b6001600a600083815260200190815260200160002060040160006101000a81548160ff021916908315150217905550610ae2600161164f565b600a6000838152602001908152602001600020600501819055507f9337fa876371ba7a2ae0a3fd96612bed9a9baaff955d10f3c0168d544f7a053733600a600084815260200190815260200160002060030154610b53600a6000868152602001908152602001600020600201611390565b604051610b629392919061270b565b60405180910390a150565b610b756115d1565b6000610b81600b611390565b905083600a60008381526020019081526020016000206000019081610ba6919061294e565b5082600a60008381526020019081526020016000206001018190555081600c819055503373ffffffffffffffffffffffffffffffffffffffff167fecb1eec63d4ebf3b14551490524517a630719c73afe6fa65e9d5ee88990d2c1e858585604051610c1393929190612a59565b60405180910390a250505050565b610c296115d1565b610c33600061187e565b565b60038181548110610c4557600080fd5b906000526020600020016000915090505481565b60008060009054906101000a900473ffffffffffffffffffffffffffffffffffffffff16905090565b610c8a611a59565b600a600083815260200190815260200160002060405180610100016040529081600082018054610cb990612771565b80601f0160208091040260200160405190810160405280929190818152602001828054610ce590612771565b8015610d325780601f10610d0757610100808354040283529160200191610d32565b820191906000526020600020905b815481529060010190602001808311610d1557829003601f168201915b5050505050815260200160018201548152602001600282016040518060200160405290816000820154815250508152602001600382015481526020016004820160009054906101000a900460ff16151515158152602001600582015481526020016006820160009054906101000a900473ffffffffffffffffffffffffffffffffffffffff1673ffffffffffffffffffffffffffffffffffffffff1673ffffffffffffffffffffffffffffffffffffffff1681526020016006820160149054906101000a900460ff1615151515815250509050919050565b60016020528060005260406000206000915090508060000160009054906101000a900460ff16908060000160019054906101000a900460ff16905082565b600060606001600084815260200190815260200160002060000160019054906101000a900460ff16610eaf576040517f08c379a0000000000000000000000000000000000000000000000000000000008152600401610ea690612ae3565b60405180910390fd5b6000600160008581526020019081526020016000206040518060600160405290816000820160009054906101000a900460ff161515151581526020016000820160019054906101000a900460ff1615151515815260200160018201805480602002602001604051908101604052809291908181526020018280548015610f5457602002820191906000526020600020905b815481526020019060010190808311610f40575b5050505050815250509050806000015181604001519250925050915091565b600c5481565b600b8060000154905081565b610f8d6115d1565b3373ffffffffffffffffffffffffffffffffffffffff166108fc479081150290604051600060405180830381858888f19350505050158015610fd3573d6000803e3d6000fd5b50565b610fde6114bb565b6000610fea600b611390565b9050600a600082815260200190815260200160002060040160009054906101000a900460ff1615611050576040517f08c379a000000000000000000000000000000000000000000000000000000000815260040161104790612b75565b60405180910390fd5b34600a600083815260200190815260200160002060010154146110a8576040517f08c379a000000000000000000000000000000000000000000000000000000000815260040161109f90612c07565b60405180910390fd5b60006110c8600a6000848152602001908152602001600020600201611390565b90506110e8600a6000848152602001908152602001600020600201611942565b60016008600084815260200190815260200160002060003373ffffffffffffffffffffffffffffffffffffffff1673ffffffffffffffffffffffffffffffffffffffff16815260200190815260200160002060000160006101000a81548160ff0219169083151502179055506111af6008600084815260200190815260200160002060003373ffffffffffffffffffffffffffffffffffffffff1673ffffffffffffffffffffffffffffffffffffffff168152602001908152602001600020600101611942565b60006008600084815260200190815260200160002060003373ffffffffffffffffffffffffffffffffffffffff1673ffffffffffffffffffffffffffffffffffffffff16815260200190815260200160002060000160016101000a81548160ff0219169083151502179055503360096000848152602001908152602001600020600083815260200190815260200160002060006101000a81548173ffffffffffffffffffffffffffffffffffffffff021916908373ffffffffffffffffffffffffffffffffffffffff16021790555034600a600084815260200190815260200160002060030160008282546112a49190612c27565b925050819055503373ffffffffffffffffffffffffffffffffffffffff167f97fac0ce6558f4accbb4696915809c0ef7023ffe7ba9454e94d49fb652aae1d534846040516112f3929190612676565b60405180910390a250506113056115c7565b565b61130f6115d1565b600073ffffffffffffffffffffffffffffffffffffffff168173ffffffffffffffffffffffffffffffffffffffff160361137e576040517f08c379a000000000000000000000000000000000000000000000000000000000815260040161137590612ccd565b60405180910390fd5b6113878161187e565b50565b60045481565b600081600001549050919050565b6113a88282611958565b60006113b4600b611390565b905060006113d6600a6000848152602001908152602001600020600201611390565b9050600a60008381526020019081526020016000206005015484036114b557600960008381526020019081526020016000206000828560008151811061141f5761141e612ced565b5b60200260200101516114319190612d4b565b815260200190815260200160002060009054906101000a900473ffffffffffffffffffffffffffffffffffffffff16600a600084815260200190815260200160002060060160006101000a81548173ffffffffffffffffffffffffffffffffffffffff021916908373ffffffffffffffffffffffffffffffffffffffff1602179055505b50505050565b600260075403611500576040517f08c379a00000000000000000000000000000000000000000000000000000000081526004016114f790612dc8565b60405180910390fd5b6002600781905550565b60006064600c548361151c9190612de8565b6115269190612e2a565b9050919050565b60008061153a600b611390565b9050611546600b611942565b6000611552600b611390565b9050600a6000838152602001908152602001600020600001600a6000838152602001908152602001600020600001908161158c9190612e86565b50600a600083815260200190815260200160002060010154600a60008381526020019081526020016000206001018190555060019250505090565b6001600781905550565b6115d9611a51565b73ffffffffffffffffffffffffffffffffffffffff166115f7610c59565b73ffffffffffffffffffffffffffffffffffffffff161461164d576040517f08c379a000000000000000000000000000000000000000000000000000000000815260040161164490612fba565b60405180910390fd5b565b6000600260009054906101000a900473ffffffffffffffffffffffffffffffffffffffff1673ffffffffffffffffffffffffffffffffffffffff16635d3b1d30600554600260149054906101000a900467ffffffffffffffff16600660049054906101000a900461ffff16600660009054906101000a900463ffffffff16876040518663ffffffff1660e01b81526004016116ee959493929190613052565b6020604051808303816000875af115801561170d573d6000803e3d6000fd5b505050506040513d601f19601f8201168201806040525081019061173191906130ba565b90506040518060600160405280600015158152602001600115158152602001600067ffffffffffffffff81111561176b5761176a611b9b565b5b6040519080825280602002602001820160405280156117995781602001602082028036833780820191505090505b508152506001600083815260200190815260200160002060008201518160000160006101000a81548160ff02191690831515021790555060208201518160000160016101000a81548160ff021916908315150217905550604082015181600101908051906020019061180c929190611abe565b509050506003819080600181540180825580915050600190039060005260206000200160009091909190915055806004819055507fcc58b13ad3eab50626c6a6300b1d139cd6ebb1688a7cced9461c2f7e762665ee81836040516118719291906130e7565b60405180910390a1919050565b60008060009054906101000a900473ffffffffffffffffffffffffffffffffffffffff169050816000806101000a81548173ffffffffffffffffffffffffffffffffffffffff021916908373ffffffffffffffffffffffffffffffffffffffff1602179055508173ffffffffffffffffffffffffffffffffffffffff168173ffffffffffffffffffffffffffffffffffffffff167f8be0079c531659141344cd1fd0a4f28419497f9722a3daafe3b4186f6b6457e060405160405180910390a35050565b6001816000016000828254019250508190555050565b6001600083815260200190815260200160002060000160019054906101000a900460ff166119bb576040517f08c379a00000000000000000000000000000000000000000000000000000000081526004016119b290612ae3565b60405180910390fd5b600180600084815260200190815260200160002060000160006101000a81548160ff02191690831515021790555080600160008481526020019081526020016000206001019080519060200190611a13929190611abe565b507ffe2e2d779dba245964d4e3ef9b994be63856fd568bf7d3ca9e224755cb1bd54d8282604051611a45929190613110565b60405180910390a15050565b600033905090565b6040518061010001604052806060815260200160008152602001611a7b611b0b565b81526020016000815260200160001515815260200160008152602001600073ffffffffffffffffffffffffffffffffffffffff1681526020016000151581525090565b828054828255906000526020600020908101928215611afa579160200282015b82811115611af9578251825591602001919060010190611ade565b5b509050611b079190611b1e565b5090565b6040518060200160405280600081525090565b5b80821115611b37576000816000905550600101611b1f565b5090565b6000604051905090565b600080fd5b600080fd5b6000819050919050565b611b6281611b4f565b8114611b6d57600080fd5b50565b600081359050611b7f81611b59565b92915050565b600080fd5b6000601f19601f8301169050919050565b7f4e487b7100000000000000000000000000000000000000000000000000000000600052604160045260246000fd5b611bd382611b8a565b810181811067ffffffffffffffff82111715611bf257611bf1611b9b565b5b80604052505050565b6000611c05611b3b565b9050611c118282611bca565b919050565b600067ffffffffffffffff821115611c3157611c30611b9b565b5b602082029050602081019050919050565b600080fd5b6000611c5a611c5584611c16565b611bfb565b90508083825260208201905060208402830185811115611c7d57611c7c611c42565b5b835b81811015611ca65780611c928882611b70565b845260208401935050602081019050611c7f565b5050509392505050565b600082601f830112611cc557611cc4611b85565b5b8135611cd5848260208601611c47565b91505092915050565b60008060408385031215611cf557611cf4611b45565b5b6000611d0385828601611b70565b925050602083013567ffffffffffffffff811115611d2457611d23611b4a565b5b611d3085828601611cb0565b9150509250929050565b600060208284031215611d5057611d4f611b45565b5b6000611d5e84828501611b70565b91505092915050565b600080fd5b600067ffffffffffffffff821115611d8757611d86611b9b565b5b611d9082611b8a565b9050602081019050919050565b82818337600083830152505050565b6000611dbf611dba84611d6c565b611bfb565b905082815260208101848484011115611ddb57611dda611d67565b5b611de6848285611d9d565b509392505050565b600082601f830112611e0357611e02611b85565b5b8135611e13848260208601611dac565b91505092915050565b600080600060608486031215611e3557611e34611b45565b5b600084013567ffffffffffffffff811115611e5357611e52611b4a565b5b611e5f86828701611dee565b9350506020611e7086828701611b70565b9250506040611e8186828701611b70565b9150509250925092565b611e9481611b4f565b82525050565b6000602082019050611eaf6000830184611e8b565b92915050565b600073ffffffffffffffffffffffffffffffffffffffff82169050919050565b6000611ee082611eb5565b9050919050565b611ef081611ed5565b82525050565b6000602082019050611f0b6000830184611ee7565b92915050565b600081519050919050565b600082825260208201905092915050565b60005b83811015611f4b578082015181840152602081019050611f30565b60008484015250505050565b6000611f6282611f11565b611f6c8185611f1c565b9350611f7c818560208601611f2d565b611f8581611b8a565b840191505092915050565b611f9981611b4f565b82525050565b602082016000820151611fb56000850182611f90565b50505050565b60008115159050919050565b611fd081611fbb565b82525050565b611fdf81611ed5565b82525050565b60006101008301600083015184820360008601526120038282611f57565b91505060208301516120186020860182611f90565b50604083015161202b6040860182611f9f565b50606083015161203e6060860182611f90565b5060808301516120516080860182611fc7565b5060a083015161206460a0860182611f90565b5060c083015161207760c0860182611fd6565b5060e083015161208a60e0860182611fc7565b508091505092915050565b600060208201905081810360008301526120af8184611fe5565b905092915050565b6120c081611fbb565b82525050565b60006040820190506120db60008301856120b7565b6120e860208301846120b7565b9392505050565b600081519050919050565b600082825260208201905092915050565b6000819050602082019050919050565b60006121278383611f90565b60208301905092915050565b6000602082019050919050565b600061214b826120ef565b61215581856120fa565b93506121608361210b565b8060005b83811015612191578151612178888261211b565b975061218383612133565b925050600181019050612164565b5085935050505092915050565b60006040820190506121b360008301856120b7565b81810360208301526121c58184612140565b90509392505050565b6121d781611ed5565b81146121e257600080fd5b50565b6000813590506121f4816121ce565b92915050565b6000602082840312156122105761220f611b45565b5b600061221e848285016121e5565b91505092915050565b600060408201905061223c6000830185611ee7565b6122496020830184611ee7565b9392505050565b600082825260208201905092915050565b7f5468652077696e6e657220616c726561647920636c61696d656420697473207060008201527f72697a652e000000000000000000000000000000000000000000000000000000602082015250565b60006122bd602583612250565b91506122c882612261565b604082019050919050565b600060208201905081810360008301526122ec816122b0565b9050919050565b7f54686973206c6f74746572792069736e27742066696e616c697a65642079657460008201527f2e00000000000000000000000000000000000000000000000000000000000000602082015250565b600061234f602183612250565b915061235a826122f3565b604082019050919050565b6000602082019050818103600083015261237e81612342565b9050919050565b7f54686973206c6f7474657279206469646e27742067657420612077696e6e657260008201527f207965742e000000000000000000000000000000000000000000000000000000602082015250565b60006123e1602583612250565b91506123ec82612385565b604082019050919050565b60006020820190508181036000830152612410816123d4565b9050919050565b7f596f7520646f6e74206861766520616e79207469636b657420746f20636c616960008201527f6d20686572652e00000000000000000000000000000000000000000000000000602082015250565b6000612473602783612250565b915061247e82612417565b604082019050919050565b600060208201905081810360008301526124a281612466565b9050919050565b7f596f75206861766520616c7265616420636c61696d656420796f75722070726960008201527f7a652e0000000000000000000000000000000000000000000000000000000000602082015250565b6000612505602383612250565b9150612510826124a9565b604082019050919050565b60006020820190508181036000830152612534816124f8565b9050919050565b7f596f75277265206e6f74207468652077696e6e65722e00000000000000000000600082015250565b6000612571601683612250565b915061257c8261253b565b602082019050919050565b600060208201905081810360008301526125a081612564565b9050919050565b7f4e487b7100000000000000000000000000000000000000000000000000000000600052601160045260246000fd5b60006125e182611b4f565b91506125ec83611b4f565b9250828203905081811115612604576126036125a7565b5b92915050565b7f4c6f7474657279206e6565647320746f20626520726573657465642e00000000600082015250565b6000612640601c83612250565b915061264b8261260a565b602082019050919050565b6000602082019050818103600083015261266f81612633565b9050919050565b600060408201905061268b6000830185611e8b565b6126986020830184611e8b565b9392505050565b7f4c6f747465727920616c72656164792066696e616c697a65642e000000000000600082015250565b60006126d5601a83612250565b91506126e08261269f565b602082019050919050565b60006020820190508181036000830152612704816126c8565b9050919050565b60006060820190506127206000830186611ee7565b61272d6020830185611e8b565b61273a6040830184611e8b565b949350505050565b7f4e487b7100000000000000000000000000000000000000000000000000000000600052602260045260246000fd5b6000600282049050600182168061278957607f821691505b60208210810361279c5761279b612742565b5b50919050565b60008190508160005260206000209050919050565b60006020601f8301049050919050565b600082821b905092915050565b6000600883026128047fffffffffffffffffffffffffffffffffffffffffffffffffffffffffffffffff826127c7565b61280e86836127c7565b95508019841693508086168417925050509392505050565b6000819050919050565b600061284b61284661284184611b4f565b612826565b611b4f565b9050919050565b6000819050919050565b61286583612830565b61287961287182612852565b8484546127d4565b825550505050565b600090565b61288e612881565b61289981848461285c565b505050565b5b818110156128bd576128b2600082612886565b60018101905061289f565b5050565b601f821115612902576128d3816127a2565b6128dc846127b7565b810160208510156128eb578190505b6128ff6128f7856127b7565b83018261289e565b50505b505050565b600082821c905092915050565b600061292560001984600802612907565b1980831691505092915050565b600061293e8383612914565b9150826002028217905092915050565b61295782611f11565b67ffffffffffffffff8111156129705761296f611b9b565b5b61297a8254612771565b6129858282856128c1565b600060209050601f8311600181146129b857600084156129a6578287015190505b6129b08582612932565b865550612a18565b601f1984166129c6866127a2565b60005b828110156129ee578489015182556001820191506020850194506020810190506129c9565b86831015612a0b5784890151612a07601f891682612914565b8355505b6001600288020188555050505b505050505050565b6000612a2b82611f11565b612a358185612250565b9350612a45818560208601611f2d565b612a4e81611b8a565b840191505092915050565b60006060820190508181036000830152612a738186612a20565b9050612a826020830185611e8b565b612a8f6040830184611e8b565b949350505050565b7f72657175657374206e6f7420666f756e64000000000000000000000000000000600082015250565b6000612acd601183612250565b9150612ad882612a97565b602082019050919050565b60006020820190508181036000830152612afc81612ac0565b9050919050565b7f54686973206c6f74746572792068617320616c72656164792066696e616c697a60008201527f65642c207761697420666f7220726573756c7473210000000000000000000000602082015250565b6000612b5f603583612250565b9150612b6a82612b03565b604082019050919050565b60006020820190508181036000830152612b8e81612b52565b9050919050565b7f596f75206e65656420746f20706179207468652065786163746c79207469636b60008201527f65742070726963652e0000000000000000000000000000000000000000000000602082015250565b6000612bf1602983612250565b9150612bfc82612b95565b604082019050919050565b60006020820190508181036000830152612c2081612be4565b9050919050565b6000612c3282611b4f565b9150612c3d83611b4f565b9250828201905080821115612c5557612c546125a7565b5b92915050565b7f4f776e61626c653a206e6577206f776e657220697320746865207a65726f206160008201527f6464726573730000000000000000000000000000000000000000000000000000602082015250565b6000612cb7602683612250565b9150612cc282612c5b565b604082019050919050565b60006020820190508181036000830152612ce681612caa565b9050919050565b7f4e487b7100000000000000000000000000000000000000000000000000000000600052603260045260246000fd5b7f4e487b7100000000000000000000000000000000000000000000000000000000600052601260045260246000fd5b6000612d5682611b4f565b9150612d6183611b4f565b925082612d7157612d70612d1c565b5b828206905092915050565b7f5265656e7472616e637947756172643a207265656e7472616e742063616c6c00600082015250565b6000612db2601f83612250565b9150612dbd82612d7c565b602082019050919050565b60006020820190508181036000830152612de181612da5565b9050919050565b6000612df382611b4f565b9150612dfe83611b4f565b9250828202612e0c81611b4f565b91508282048414831517612e2357612e226125a7565b5b5092915050565b6000612e3582611b4f565b9150612e4083611b4f565b925082612e5057612e4f612d1c565b5b828204905092915050565b600081549050612e6a81612771565b9050919050565b60008190508160005260206000209050919050565b818103612e94575050612f6c565b612e9d82612e5b565b67ffffffffffffffff811115612eb657612eb5611b9b565b5b612ec08254612771565b612ecb8282856128c1565b6000601f831160018114612efa5760008415612ee8578287015490505b612ef28582612932565b865550612f65565b601f198416612f0887612e71565b9650612f13866127a2565b60005b82811015612f3b57848901548255600182019150600185019450602081019050612f16565b86831015612f585784890154612f54601f891682612914565b8355505b6001600288020188555050505b5050505050505b565b7f4f776e61626c653a2063616c6c6572206973206e6f7420746865206f776e6572600082015250565b6000612fa4602083612250565b9150612faf82612f6e565b602082019050919050565b60006020820190508181036000830152612fd381612f97565b9050919050565b6000819050919050565b612fed81612fda565b82525050565b600067ffffffffffffffff82169050919050565b61301081612ff3565b82525050565b600061ffff82169050919050565b61302d81613016565b82525050565b600063ffffffff82169050919050565b61304c81613033565b82525050565b600060a0820190506130676000830188612fe4565b6130746020830187613007565b6130816040830186613024565b61308e6060830185613043565b61309b6080830184613043565b9695505050505050565b6000815190506130b481611b59565b92915050565b6000602082840312156130d0576130cf611b45565b5b60006130de848285016130a5565b91505092915050565b60006040820190506130fc6000830185611e8b565b6131096020830184613043565b9392505050565b60006040820190506131256000830185611e8b565b81810360208301526131378184612140565b9050939250505056fea2646970667358221220551a84f8fdf39c24d0b10ef70a9636ffb6c7498cb607fd5eebe26a5bf986689864736f6c63430008110033",
  "immutableReferences": {
    "10": [
      {
        "length": 32,
        "start": 911
      },
      {
        "length": 32,
        "start": 995
      }
    ]
  },
  "source": "// SPDX-License-Identifier: MIT\r\npragma solidity ^0.8.17;\r\n\r\nimport \"@chainlink/contracts/src/v0.8/interfaces/VRFCoordinatorV2Interface.sol\";\r\nimport \"@chainlink/contracts/src/v0.8/VRFConsumerBaseV2.sol\";\r\n\r\nimport \"@openzeppelin/contracts/access/Ownable.sol\";\r\nimport \"@openzeppelin/contracts/utils/Counters.sol\";\r\nimport \"@openzeppelin/contracts/security/ReentrancyGuard.sol\";\r\n\r\nimport \"./VRFV2Consumer.sol\";\r\n\r\ncontract Lottery is Ownable, VRFV2Consumer, ReentrancyGuard {\r\n    using Counters for Counters.Counter;\r\n\r\n    struct User {\r\n        bool hasTicket;\r\n        bool claimed;\r\n        Counters.Counter ticketsCount;\r\n    }\r\n\r\n    struct LotteryStruct {\r\n        string name;\r\n        uint256 ticketPrice;\r\n        Counters.Counter ticketsCount;\r\n        uint256 balance;\r\n        bool finalized;\r\n        uint256 indexChainLink;\r\n        address winner;\r\n        bool claimed;\r\n    }\r\n\r\n    mapping(uint256 => mapping(address => User)) ticketOwners;\r\n    mapping(uint256 => mapping(uint256 => address)) tickets;\r\n    mapping(uint256 => LotteryStruct) lottery;\r\n\r\n    Counters.Counter public lotteryId;\r\n    uint256 public fee;\r\n\r\n    event TicketBought(address indexed buyer, uint256 price, uint256 ticketNumber);\r\n    event LotteryFinalized(address owner, uint256 totalValue, uint256 ticketAmount);\r\n    event ClaimedPrize(address indexed winner, uint256 totalPrize, uint256 fee);\r\n    event ChangedProperties(address indexed owner, string name, uint256 ticketPrize, uint256 fee);\r\n\r\n    constructor(\r\n        uint64 _subscriptionId,\r\n        address _cordinatorAddress,\r\n        bytes32 _keyHash,\r\n        string memory _name,\r\n        uint256 _ticketPrice,\r\n        uint256 _fee\r\n    ) VRFV2Consumer(_subscriptionId, _cordinatorAddress, _keyHash) {\r\n        uint256 currentLottery = lotteryId.current();\r\n        lottery[currentLottery].name = _name;\r\n        lottery[currentLottery].ticketPrice = _ticketPrice;\r\n        fee = _fee;\r\n    }\r\n\r\n    function buyTicket() external payable nonReentrant {\r\n        uint256 currentLottery = lotteryId.current();\r\n        require(\r\n            !lottery[currentLottery].finalized,\r\n            \"This lottery has already finalized, wait for results!\"\r\n        );\r\n        require(\r\n            lottery[currentLottery].ticketPrice == msg.value,\r\n            \"You need to pay the exactly ticket price.\"\r\n        );\r\n\r\n        uint256 currentLotteryPosition = lottery[currentLottery].ticketsCount.current();\r\n        lottery[currentLottery].ticketsCount.increment();\r\n\r\n        ticketOwners[currentLottery][msg.sender].hasTicket = true;\r\n        ticketOwners[currentLottery][msg.sender].ticketsCount.increment();\r\n        ticketOwners[currentLottery][msg.sender].claimed = false;\r\n        tickets[currentLottery][currentLotteryPosition] = msg.sender;\r\n\r\n        lottery[currentLottery].balance += msg.value;\r\n\r\n        emit TicketBought(msg.sender, msg.value, currentLottery);\r\n    }\r\n\r\n    function finalizeLottery() external onlyOwner {\r\n        uint256 currentLottery = lotteryId.current();\r\n        require(!lottery[currentLottery].finalized, \"Lottery already finalized.\");\r\n        lottery[currentLottery].finalized = true;\r\n\r\n        lottery[currentLottery].indexChainLink = requestRandomWords(1);\r\n        emit LotteryFinalized(msg.sender, lottery[currentLottery].balance, lottery[currentLottery].ticketsCount.current());\r\n    }\r\n\r\n    function fulfillRandomWords(\r\n        uint256 _requestId,\r\n        uint256[] memory _randomWords\r\n    ) internal override {\r\n        super.fulfillRandomWords(_requestId, _randomWords);\r\n        uint256 currentLottery = lotteryId.current();\r\n        uint256 currentLotteryPosition = lottery[currentLottery].ticketsCount.current();\r\n        if (_requestId == lottery[currentLottery].indexChainLink) {\r\n            lottery[currentLottery].winner = tickets[currentLottery][\r\n                _randomWords[0] % currentLotteryPosition\r\n            ];\r\n        }\r\n    }\r\n\r\n    function claim(uint256 lotteryIndex) external nonReentrant {\r\n\r\n        require(!lottery[lotteryIndex].claimed, \"The winner already claimed its prize.\");\r\n        require(lottery[lotteryIndex].finalized, \"This lottery isn't finalized yet.\");\r\n        require(\r\n            lottery[lotteryIndex].winner != address(0),\r\n            \"This lottery didn't get a winner yet.\"\r\n        );\r\n        require(\r\n            ticketOwners[lotteryIndex][msg.sender].hasTicket,\r\n            \"You dont have any ticket to claim here.\"\r\n        );\r\n        require(\r\n            !ticketOwners[lotteryIndex][msg.sender].claimed,\r\n            \"You have alread claimed your prize.\"\r\n        );\r\n        require(lottery[lotteryIndex].winner == msg.sender, \"You're not the winner.\");\r\n        lottery[lotteryIndex].claimed = true;\r\n        ticketOwners[lotteryIndex][msg.sender].hasTicket = false;\r\n        ticketOwners[lotteryIndex][msg.sender].claimed = true;\r\n\r\n        uint256 _feeAmount = _calcFee(lottery[lotteryIndex].balance);\r\n        uint256 prize = lottery[lotteryIndex].balance - _feeAmount;\r\n\r\n        require(resetLottery(), \"Lottery needs to be reseted.\");\r\n\r\n        payable(owner()).transfer(_feeAmount);\r\n        payable(msg.sender).transfer(prize);\r\n        emit ClaimedPrize(msg.sender, prize, _feeAmount);\r\n    }\r\n\r\n    function resetLottery() private returns (bool) {\r\n        // Change the pointer to the next position.\r\n        uint256 currentLottery = lotteryId.current();\r\n        lotteryId.increment();\r\n        uint256 nextLottery = lotteryId.current();\r\n\r\n        // Get last lottery price and name to set the next one.\r\n        lottery[nextLottery].name = lottery[currentLottery].name;\r\n        lottery[nextLottery].ticketPrice = lottery[currentLottery].ticketPrice;\r\n\r\n        return true;       \r\n    }\r\n\r\n    function _calcFee(uint256 amount) private view returns (uint256) {\r\n        return (amount * fee) / 100;\r\n    }\r\n\r\n    function setProperties(string memory _name, uint256 _ticketPrice, uint256 _fee)\r\n        external\r\n        onlyOwner\r\n    {\r\n        uint256 currentLottery = lotteryId.current();\r\n        lottery[currentLottery].name = _name;\r\n        lottery[currentLottery].ticketPrice = _ticketPrice;\r\n        fee = _fee;\r\n\r\n        emit ChangedProperties(msg.sender, _name, _ticketPrice, _fee);\r\n    }\r\n\r\n    function getLotteryStatus(uint256 _lotteryId) public view returns(LotteryStruct memory _lottery) {\r\n        return lottery[_lotteryId];\r\n    }\r\n\r\n    // Only if we have some problem to use this \r\n    function getAllBalance() external onlyOwner {\r\n       payable(msg.sender).transfer(address(this).balance);\r\n    }\r\n}\r\n",
  "sourcePath": "C:\\lucas_blockchain\\Projetos\\LottoCrypto\\Truffle\\contracts\\Lottery.sol",
  "compiler": {
    "name": "solc",
    "version": "0.8.17+commit.8df45f5f.Emscripten.clang"
  },
  "schemaVersion": "3.4.11",
  "updatedAt": "2023-03-02T14:28:21.657Z",
  "networkType": "ethereum",
  "devdoc": {
    "kind": "dev",
    "methods": {
      "owner()": {
        "details": "Returns the address of the current owner."
      },
      "renounceOwnership()": {
        "details": "Leaves the contract without owner. It will not be possible to call `onlyOwner` functions anymore. Can only be called by the current owner. NOTE: Renouncing ownership will leave the contract without an owner, thereby removing any functionality that is only available to the owner."
      },
      "transferOwnership(address)": {
        "details": "Transfers ownership of the contract to a new account (`newOwner`). Can only be called by the current owner."
      }
    },
    "version": 1
  },
  "userdoc": {
    "kind": "user",
    "methods": {},
    "version": 1
  }
}