{
  "contractName": "Lottery",
  "abi": [
    {
      "inputs": [
        {
          "internalType": "uint64",
          "name": "_subscriptionId",
          "type": "uint64"
        },
        {
          "internalType": "address",
          "name": "_cordinatorAddress",
          "type": "address"
        },
        {
          "internalType": "bytes32",
          "name": "_keyHash",
          "type": "bytes32"
        },
        {
          "internalType": "string",
          "name": "_name",
          "type": "string"
        },
        {
          "internalType": "uint256",
          "name": "_ticketPrice",
          "type": "uint256"
        },
        {
          "internalType": "uint32",
          "name": "_minTicket",
          "type": "uint32"
        },
        {
          "internalType": "uint256",
          "name": "_fee",
          "type": "uint256"
        }
      ],
      "stateMutability": "nonpayable",
      "type": "constructor"
    },
    {
      "inputs": [
        {
          "internalType": "address",
          "name": "have",
          "type": "address"
        },
        {
          "internalType": "address",
          "name": "want",
          "type": "address"
        }
      ],
      "name": "OnlyCoordinatorCanFulfill",
      "type": "error"
    },
    {
      "anonymous": false,
      "inputs": [
        {
          "indexed": true,
          "internalType": "address",
          "name": "owner",
          "type": "address"
        },
        {
          "indexed": false,
          "internalType": "string",
          "name": "name",
          "type": "string"
        },
        {
          "indexed": false,
          "internalType": "uint256",
          "name": "ticketPrize",
          "type": "uint256"
        },
        {
          "indexed": false,
          "internalType": "uint256",
          "name": "fee",
          "type": "uint256"
        },
        {
          "indexed": false,
          "internalType": "uint32",
          "name": "minTicket",
          "type": "uint32"
        },
        {
          "indexed": false,
          "internalType": "uint256",
          "name": "configFinishTime",
          "type": "uint256"
        }
      ],
      "name": "ChangedProperties",
      "type": "event"
    },
    {
      "anonymous": false,
      "inputs": [
        {
          "indexed": true,
          "internalType": "address",
          "name": "winner",
          "type": "address"
        },
        {
          "indexed": false,
          "internalType": "uint256",
          "name": "totalPrize",
          "type": "uint256"
        },
        {
          "indexed": false,
          "internalType": "uint256",
          "name": "fee",
          "type": "uint256"
        }
      ],
      "name": "ClaimedPrize",
      "type": "event"
    },
    {
      "anonymous": false,
      "inputs": [
        {
          "indexed": false,
          "internalType": "address",
          "name": "owner",
          "type": "address"
        },
        {
          "indexed": false,
          "internalType": "uint256",
          "name": "totalValue",
          "type": "uint256"
        },
        {
          "indexed": false,
          "internalType": "uint256",
          "name": "ticketAmount",
          "type": "uint256"
        }
      ],
      "name": "LotteryFinalized",
      "type": "event"
    },
    {
      "anonymous": false,
      "inputs": [
        {
          "indexed": false,
          "internalType": "uint256",
          "name": "ticketNumber",
          "type": "uint256"
        },
        {
          "indexed": false,
          "internalType": "uint32",
          "name": "minTickets",
          "type": "uint32"
        },
        {
          "indexed": false,
          "internalType": "uint256",
          "name": "balance",
          "type": "uint256"
        },
        {
          "indexed": false,
          "internalType": "uint256",
          "name": "finishTime",
          "type": "uint256"
        }
      ],
      "name": "MinTicketsReached",
      "type": "event"
    },
    {
      "anonymous": false,
      "inputs": [
        {
          "indexed": true,
          "internalType": "address",
          "name": "previousOwner",
          "type": "address"
        },
        {
          "indexed": true,
          "internalType": "address",
          "name": "newOwner",
          "type": "address"
        }
      ],
      "name": "OwnershipTransferred",
      "type": "event"
    },
    {
      "anonymous": false,
      "inputs": [
        {
          "indexed": false,
          "internalType": "uint256",
          "name": "requestId",
          "type": "uint256"
        },
        {
          "indexed": false,
          "internalType": "uint256[]",
          "name": "randomWords",
          "type": "uint256[]"
        }
      ],
      "name": "RequestFulfilled",
      "type": "event"
    },
    {
      "anonymous": false,
      "inputs": [
        {
          "indexed": false,
          "internalType": "uint256",
          "name": "requestId",
          "type": "uint256"
        },
        {
          "indexed": false,
          "internalType": "uint32",
          "name": "numWords",
          "type": "uint32"
        }
      ],
      "name": "RequestSent",
      "type": "event"
    },
    {
      "anonymous": false,
      "inputs": [
        {
          "indexed": true,
          "internalType": "address",
          "name": "buyer",
          "type": "address"
        },
        {
          "indexed": false,
          "internalType": "uint256",
          "name": "price",
          "type": "uint256"
        },
        {
          "indexed": false,
          "internalType": "uint256",
          "name": "ticketNumber",
          "type": "uint256"
        }
      ],
      "name": "TicketBought",
      "type": "event"
    },
    {
      "inputs": [],
      "name": "configFinishTime",
      "outputs": [
        {
          "internalType": "uint256",
          "name": "",
          "type": "uint256"
        }
      ],
      "stateMutability": "view",
      "type": "function",
      "constant": true
    },
    {
      "inputs": [],
      "name": "fee",
      "outputs": [
        {
          "internalType": "uint256",
          "name": "",
          "type": "uint256"
        }
      ],
      "stateMutability": "view",
      "type": "function",
      "constant": true
    },
    {
      "inputs": [
        {
          "internalType": "uint256",
          "name": "_requestId",
          "type": "uint256"
        }
      ],
      "name": "getRequestStatus",
      "outputs": [
        {
          "internalType": "bool",
          "name": "fulfilled",
          "type": "bool"
        },
        {
          "internalType": "uint256[]",
          "name": "randomWords",
          "type": "uint256[]"
        }
      ],
      "stateMutability": "view",
      "type": "function",
      "constant": true
    },
    {
      "inputs": [],
      "name": "lastRequestId",
      "outputs": [
        {
          "internalType": "uint256",
          "name": "",
          "type": "uint256"
        }
      ],
      "stateMutability": "view",
      "type": "function",
      "constant": true
    },
    {
      "inputs": [],
      "name": "lotteryId",
      "outputs": [
        {
          "internalType": "uint256",
          "name": "_value",
          "type": "uint256"
        }
      ],
      "stateMutability": "view",
      "type": "function",
      "constant": true
    },
    {
      "inputs": [],
      "name": "lotteryName",
      "outputs": [
        {
          "internalType": "string",
          "name": "",
          "type": "string"
        }
      ],
      "stateMutability": "view",
      "type": "function",
      "constant": true
    },
    {
      "inputs": [],
      "name": "minTicket",
      "outputs": [
        {
          "internalType": "uint32",
          "name": "",
          "type": "uint32"
        }
      ],
      "stateMutability": "view",
      "type": "function",
      "constant": true
    },
    {
      "inputs": [],
      "name": "owner",
      "outputs": [
        {
          "internalType": "address",
          "name": "",
          "type": "address"
        }
      ],
      "stateMutability": "view",
      "type": "function",
      "constant": true
    },
    {
      "inputs": [
        {
          "internalType": "uint256",
          "name": "requestId",
          "type": "uint256"
        },
        {
          "internalType": "uint256[]",
          "name": "randomWords",
          "type": "uint256[]"
        }
      ],
      "name": "rawFulfillRandomWords",
      "outputs": [],
      "stateMutability": "nonpayable",
      "type": "function"
    },
    {
      "inputs": [],
      "name": "renounceOwnership",
      "outputs": [],
      "stateMutability": "nonpayable",
      "type": "function"
    },
    {
      "inputs": [
        {
          "internalType": "uint256",
          "name": "",
          "type": "uint256"
        }
      ],
      "name": "requestIds",
      "outputs": [
        {
          "internalType": "uint256",
          "name": "",
          "type": "uint256"
        }
      ],
      "stateMutability": "view",
      "type": "function",
      "constant": true
    },
    {
      "inputs": [
        {
          "internalType": "uint256",
          "name": "",
          "type": "uint256"
        }
      ],
      "name": "s_requests",
      "outputs": [
        {
          "internalType": "bool",
          "name": "fulfilled",
          "type": "bool"
        },
        {
          "internalType": "bool",
          "name": "exists",
          "type": "bool"
        }
      ],
      "stateMutability": "view",
      "type": "function",
      "constant": true
    },
    {
      "inputs": [
        {
          "internalType": "uint32",
          "name": "_callBackGasLimit",
          "type": "uint32"
        }
      ],
      "name": "setCallBackGasLimit",
      "outputs": [],
      "stateMutability": "nonpayable",
      "type": "function"
    },
    {
      "inputs": [
        {
          "internalType": "bytes32",
          "name": "_keyHash",
          "type": "bytes32"
        }
      ],
      "name": "setKeyHashValue",
      "outputs": [],
      "stateMutability": "nonpayable",
      "type": "function"
    },
    {
      "inputs": [
        {
          "internalType": "uint16",
          "name": "_requestConfirmations",
          "type": "uint16"
        }
      ],
      "name": "setRequestConfirmations",
      "outputs": [],
      "stateMutability": "nonpayable",
      "type": "function"
    },
    {
      "inputs": [],
      "name": "ticketPrice",
      "outputs": [
        {
          "internalType": "uint256",
          "name": "",
          "type": "uint256"
        }
      ],
      "stateMutability": "view",
      "type": "function",
      "constant": true
    },
    {
      "inputs": [
        {
          "internalType": "address",
          "name": "newOwner",
          "type": "address"
        }
      ],
      "name": "transferOwnership",
      "outputs": [],
      "stateMutability": "nonpayable",
      "type": "function"
    },
    {
      "inputs": [],
      "name": "buyTicket",
      "outputs": [],
      "stateMutability": "payable",
      "type": "function",
      "payable": true
    },
    {
      "inputs": [
        {
          "internalType": "uint256",
          "name": "lotteryIndex",
          "type": "uint256"
        }
      ],
      "name": "claim",
      "outputs": [],
      "stateMutability": "nonpayable",
      "type": "function"
    },
    {
      "inputs": [
        {
          "internalType": "string",
          "name": "_name",
          "type": "string"
        },
        {
          "internalType": "uint256",
          "name": "_ticketPrice",
          "type": "uint256"
        },
        {
          "internalType": "uint32",
          "name": "_minTicket",
          "type": "uint32"
        },
        {
          "internalType": "uint256",
          "name": "_configFinishTime",
          "type": "uint256"
        },
        {
          "internalType": "uint256",
          "name": "_fee",
          "type": "uint256"
        }
      ],
      "name": "setProperties",
      "outputs": [],
      "stateMutability": "nonpayable",
      "type": "function"
    },
    {
      "inputs": [
        {
          "internalType": "uint256",
          "name": "_lotteryId",
          "type": "uint256"
        }
      ],
      "name": "getLotteryStatus",
      "outputs": [
        {
          "components": [
            {
              "internalType": "string",
              "name": "name",
              "type": "string"
            },
            {
              "internalType": "uint256",
              "name": "ticketPrice",
              "type": "uint256"
            },
            {
              "components": [
                {
                  "internalType": "uint256",
                  "name": "_value",
                  "type": "uint256"
                }
              ],
              "internalType": "struct Counters.Counter",
              "name": "ticketsCount",
              "type": "tuple"
            },
            {
              "internalType": "uint256",
              "name": "balance",
              "type": "uint256"
            },
            {
              "internalType": "bool",
              "name": "finalized",
              "type": "bool"
            },
            {
              "internalType": "uint256",
              "name": "indexChainLink",
              "type": "uint256"
            },
            {
              "internalType": "address",
              "name": "winner",
              "type": "address"
            },
            {
              "internalType": "bool",
              "name": "claimed",
              "type": "bool"
            },
            {
              "internalType": "uint32",
              "name": "minTicket",
              "type": "uint32"
            },
            {
              "internalType": "bool",
              "name": "finishTrigger",
              "type": "bool"
            },
            {
              "internalType": "uint256",
              "name": "timeToFinish",
              "type": "uint256"
            }
          ],
          "internalType": "struct Lottery.LotteryStruct",
          "name": "_lottery",
          "type": "tuple"
        }
      ],
      "stateMutability": "view",
      "type": "function",
      "constant": true
    },
    {
      "inputs": [
        {
          "internalType": "uint256",
          "name": "_lotteryId",
          "type": "uint256"
        },
        {
          "internalType": "address",
          "name": "_user",
          "type": "address"
        }
      ],
      "name": "getUserStatus",
      "outputs": [
        {
          "components": [
            {
              "internalType": "bool",
              "name": "hasTicket",
              "type": "bool"
            },
            {
              "internalType": "bool",
              "name": "claimed",
              "type": "bool"
            },
            {
              "internalType": "uint256[]",
              "name": "tickets",
              "type": "uint256[]"
            }
          ],
          "internalType": "struct Lottery.User",
          "name": "_returnedUser",
          "type": "tuple"
        }
      ],
      "stateMutability": "view",
      "type": "function",
      "constant": true
    },
    {
      "inputs": [],
      "name": "getAllBalance",
      "outputs": [],
      "stateMutability": "nonpayable",
      "type": "function"
    },
    {
      "inputs": [
        {
          "internalType": "bytes",
          "name": "",
          "type": "bytes"
        }
      ],
      "name": "checkUpkeep",
      "outputs": [
        {
          "internalType": "bool",
          "name": "upkeepNeeded",
          "type": "bool"
        },
        {
          "internalType": "bytes",
          "name": "",
          "type": "bytes"
        }
      ],
      "stateMutability": "view",
      "type": "function",
      "constant": true
    },
    {
      "inputs": [
        {
          "internalType": "bytes",
          "name": "",
          "type": "bytes"
        }
      ],
      "name": "performUpkeep",
      "outputs": [],
      "stateMutability": "nonpayable",
      "type": "function"
    }
  ],
  "bytecode": "0x60a06040523480156200001157600080fd5b50604051620047d9380380620047d9833981810160405281019062000037919062000604565b868686818073ffffffffffffffffffffffffffffffffffffffff1660808173ffffffffffffffffffffffffffffffffffffffff16815250505062000090620000846200023660201b60201c565b6200023e60201b60201c565b6001808190555081600360006101000a81548173ffffffffffffffffffffffffffffffffffffffff021916908373ffffffffffffffffffffffffffffffffffffffff16021790555082600360146101000a81548167ffffffffffffffff021916908367ffffffffffffffff160217905550806006819055506207a120600760006101000a81548163ffffffff021916908363ffffffff1602179055506003600760046101000a81548161ffff021916908361ffff160217905550505050600062000166600b6200030260201b620018fe1760201c565b905084600a600083815260200190815260200160002060000190816200018d919062000917565b5083600a60008381526020019081526020016000206001018190555082600a600083815260200190815260200160002060060160156101000a81548163ffffffff021916908363ffffffff16021790555081600c819055508460109081620001f6919062000917565b50610258600d8190555083600f8190555082600e60006101000a81548163ffffffff021916908363ffffffff1602179055505050505050505050620009fe565b600033905090565b60008060009054906101000a900473ffffffffffffffffffffffffffffffffffffffff169050816000806101000a81548173ffffffffffffffffffffffffffffffffffffffff021916908373ffffffffffffffffffffffffffffffffffffffff1602179055508173ffffffffffffffffffffffffffffffffffffffff168173ffffffffffffffffffffffffffffffffffffffff167f8be0079c531659141344cd1fd0a4f28419497f9722a3daafe3b4186f6b6457e060405160405180910390a35050565b600081600001549050919050565b6000604051905090565b600080fd5b600080fd5b600067ffffffffffffffff82169050919050565b620003438162000324565b81146200034f57600080fd5b50565b600081519050620003638162000338565b92915050565b600073ffffffffffffffffffffffffffffffffffffffff82169050919050565b6000620003968262000369565b9050919050565b620003a88162000389565b8114620003b457600080fd5b50565b600081519050620003c8816200039d565b92915050565b6000819050919050565b620003e381620003ce565b8114620003ef57600080fd5b50565b6000815190506200040381620003d8565b92915050565b600080fd5b600080fd5b6000601f19601f8301169050919050565b7f4e487b7100000000000000000000000000000000000000000000000000000000600052604160045260246000fd5b6200045e8262000413565b810181811067ffffffffffffffff8211171562000480576200047f62000424565b5b80604052505050565b60006200049562000310565b9050620004a3828262000453565b919050565b600067ffffffffffffffff821115620004c657620004c562000424565b5b620004d18262000413565b9050602081019050919050565b60005b83811015620004fe578082015181840152602081019050620004e1565b60008484015250505050565b6000620005216200051b84620004a8565b62000489565b90508281526020810184848401111562000540576200053f6200040e565b5b6200054d848285620004de565b509392505050565b600082601f8301126200056d576200056c62000409565b5b81516200057f8482602086016200050a565b91505092915050565b6000819050919050565b6200059d8162000588565b8114620005a957600080fd5b50565b600081519050620005bd8162000592565b92915050565b600063ffffffff82169050919050565b620005de81620005c3565b8114620005ea57600080fd5b50565b600081519050620005fe81620005d3565b92915050565b600080600080600080600060e0888a0312156200062657620006256200031a565b5b6000620006368a828b0162000352565b9750506020620006498a828b01620003b7565b96505060406200065c8a828b01620003f2565b955050606088015167ffffffffffffffff81111562000680576200067f6200031f565b5b6200068e8a828b0162000555565b9450506080620006a18a828b01620005ac565b93505060a0620006b48a828b01620005ed565b92505060c0620006c78a828b01620005ac565b91505092959891949750929550565b600081519050919050565b7f4e487b7100000000000000000000000000000000000000000000000000000000600052602260045260246000fd5b600060028204905060018216806200072957607f821691505b6020821081036200073f576200073e620006e1565b5b50919050565b60008190508160005260206000209050919050565b60006020601f8301049050919050565b600082821b905092915050565b600060088302620007a97fffffffffffffffffffffffffffffffffffffffffffffffffffffffffffffffff826200076a565b620007b586836200076a565b95508019841693508086168417925050509392505050565b6000819050919050565b6000620007f8620007f2620007ec8462000588565b620007cd565b62000588565b9050919050565b6000819050919050565b6200081483620007d7565b6200082c6200082382620007ff565b84845462000777565b825550505050565b600090565b6200084362000834565b6200085081848462000809565b505050565b5b8181101562000878576200086c60008262000839565b60018101905062000856565b5050565b601f821115620008c757620008918162000745565b6200089c846200075a565b81016020851015620008ac578190505b620008c4620008bb856200075a565b83018262000855565b50505b505050565b600082821c905092915050565b6000620008ec60001984600802620008cc565b1980831691505092915050565b6000620009078383620008d9565b9150826002028217905092915050565b6200092282620006d6565b67ffffffffffffffff8111156200093e576200093d62000424565b5b6200094a825462000710565b620009578282856200087c565b600060209050601f8311600181146200098f57600084156200097a578287015190505b620009868582620008f9565b865550620009f6565b601f1984166200099f8662000745565b60005b82811015620009c957848901518255600182019150602085019450602081019050620009a2565b86831015620009e95784890151620009e5601f891682620008d9565b8355505b6001600288020188555050505b505050505050565b608051613db862000a21600039600081816105bc01526106100152613db86000f3fe6080604052600436106101665760003560e01c80638ff72293116100d1578063e575df721161008a578063edca914c11610064578063edca914c1461052b578063f2fde38b14610535578063f6a30e3e1461055e578063fc2a88c31461058957610166565b8063e575df72146104ac578063e580f47b146104e9578063eb9969a81461051457610166565b80638ff7229314610376578063982d8084146103b3578063a168fa89146103dc578063a7348e5f1461041a578063d8a4676f14610443578063ddca3f431461048157610166565b80636e04ff0d116101235780636e04ff0d14610265578063715018a6146102a35780637cbcbd3c146102ba5780638796ba8c146102e55780638824f5a7146103225780638da5cb5b1461034b57610166565b80631209b1f61461016b5780631fe543e31461019657806323d14149146101bf5780632de4b98e146101ea578063379607f5146102135780634585e33b1461023c575b600080fd5b34801561017757600080fd5b506101806105b4565b60405161018d9190612323565b60405180910390f35b3480156101a257600080fd5b506101bd60048036038101906101b891906124d7565b6105ba565b005b3480156101cb57600080fd5b506101d461067a565b6040516101e191906125b2565b60405180910390f35b3480156101f657600080fd5b50610211600480360381019061020c91906126c5565b610708565b005b34801561021f57600080fd5b5061023a6004803603810190610235919061275c565b6107a3565b005b34801561024857600080fd5b50610263600480360381019061025e91906127e4565b610d3e565b005b34801561027157600080fd5b5061028c600480360381019061028791906127e4565b610ddd565b60405161029a9291906128a1565b60405180910390f35b3480156102af57600080fd5b506102b8610e3e565b005b3480156102c657600080fd5b506102cf610e52565b6040516102dc9190612323565b60405180910390f35b3480156102f157600080fd5b5061030c6004803603810190610307919061275c565b610e58565b6040516103199190612323565b60405180910390f35b34801561032e57600080fd5b506103496004803603810190610344919061290b565b610e7c565b005b34801561035757600080fd5b50610360610ea4565b60405161036d9190612979565b60405180910390f35b34801561038257600080fd5b5061039d6004803603810190610398919061275c565b610ecd565b6040516103aa9190612b25565b60405180910390f35b3480156103bf57600080fd5b506103da60048036038101906103d59190612b47565b6110a0565b005b3480156103e857600080fd5b5061040360048036038101906103fe919061275c565b6110cc565b604051610411929190612b74565b60405180910390f35b34801561042657600080fd5b50610441600480360381019061043c9190612bd3565b61110a565b005b34801561044f57600080fd5b5061046a6004803603810190610465919061275c565b61111c565b604051610478929190612caf565b60405180910390f35b34801561048d57600080fd5b50610496611247565b6040516104a39190612323565b60405180910390f35b3480156104b857600080fd5b506104d360048036038101906104ce9190612d0b565b61124d565b6040516104e09190612e0a565b60405180910390f35b3480156104f557600080fd5b506104fe611346565b60405161050b9190612323565b60405180910390f35b34801561052057600080fd5b50610529611352565b005b6105336113a3565b005b34801561054157600080fd5b5061055c60048036038101906105579190612e2c565b61185f565b005b34801561056a57600080fd5b506105736118e2565b6040516105809190612e68565b60405180910390f35b34801561059557600080fd5b5061059e6118f8565b6040516105ab9190612323565b60405180910390f35b600f5481565b7f000000000000000000000000000000000000000000000000000000000000000073ffffffffffffffffffffffffffffffffffffffff163373ffffffffffffffffffffffffffffffffffffffff161461066c57337f00000000000000000000000000000000000000000000000000000000000000006040517f1cf993f4000000000000000000000000000000000000000000000000000000008152600401610663929190612e83565b60405180910390fd5b610676828261190c565b5050565b6010805461068790612edb565b80601f01602080910402602001604051908101604052809291908181526020018280546106b390612edb565b80156107005780601f106106d557610100808354040283529160200191610700565b820191906000526020600020905b8154815290600101906020018083116106e357829003601f168201915b505050505081565b610710611a70565b80600c8190555081600d8190555083600f8190555082600e60006101000a81548163ffffffff021916908363ffffffff1602179055503373ffffffffffffffffffffffffffffffffffffffff167fb10268c486bac05245eea577b9ac1b6d0fd3e52edd56cda56af785fb427aec8a8686848787604051610794959493929190612f0c565b60405180910390a25050505050565b6107ab611aee565b600a600082815260200190815260200160002060060160149054906101000a900460ff161561080f576040517f08c379a000000000000000000000000000000000000000000000000000000000815260040161080690612fd8565b60405180910390fd5b600a600082815260200190815260200160002060040160009054906101000a900460ff16610872576040517f08c379a00000000000000000000000000000000000000000000000000000000081526004016108699061306a565b60405180910390fd5b600073ffffffffffffffffffffffffffffffffffffffff16600a600083815260200190815260200160002060060160009054906101000a900473ffffffffffffffffffffffffffffffffffffffff1673ffffffffffffffffffffffffffffffffffffffff1603610917576040517f08c379a000000000000000000000000000000000000000000000000000000000815260040161090e906130fc565b60405180910390fd5b3373ffffffffffffffffffffffffffffffffffffffff16600a600083815260200190815260200160002060060160009054906101000a900473ffffffffffffffffffffffffffffffffffffffff1673ffffffffffffffffffffffffffffffffffffffff16146109bb576040517f08c379a00000000000000000000000000000000000000000000000000000000081526004016109b290613168565b60405180910390fd5b6008600082815260200190815260200160002060003373ffffffffffffffffffffffffffffffffffffffff1673ffffffffffffffffffffffffffffffffffffffff16815260200190815260200160002060000160009054906101000a900460ff16610a5b576040517f08c379a0000000000000000000000000000000000000000000000000000000008152600401610a52906131fa565b60405180910390fd5b6008600082815260200190815260200160002060003373ffffffffffffffffffffffffffffffffffffffff1673ffffffffffffffffffffffffffffffffffffffff16815260200190815260200160002060000160019054906101000a900460ff1615610afc576040517f08c379a0000000000000000000000000000000000000000000000000000000008152600401610af39061328c565b60405180910390fd5b6001600a600083815260200190815260200160002060060160146101000a81548160ff02191690831515021790555060006008600083815260200190815260200160002060003373ffffffffffffffffffffffffffffffffffffffff1673ffffffffffffffffffffffffffffffffffffffff16815260200190815260200160002060000160006101000a81548160ff02191690831515021790555060016008600083815260200190815260200160002060003373ffffffffffffffffffffffffffffffffffffffff1673ffffffffffffffffffffffffffffffffffffffff16815260200190815260200160002060000160016101000a81548160ff0219169083151502179055506000610c24600a600084815260200190815260200160002060030154611b3d565b9050600081600a600085815260200190815260200160002060030154610c4a91906132db565b9050610c54610ea4565b73ffffffffffffffffffffffffffffffffffffffff166108fc839081150290604051600060405180830381858888f19350505050158015610c99573d6000803e3d6000fd5b503373ffffffffffffffffffffffffffffffffffffffff166108fc829081150290604051600060405180830381858888f19350505050158015610ce0573d6000803e3d6000fd5b503373ffffffffffffffffffffffffffffffffffffffff167f958da08b85b84cbd2625af831fdd0b864642d0b1da0401a911437355aa9812558284604051610d2992919061330f565b60405180910390a25050610d3b611b60565b50565b6000610d4a600b6118fe565b9050600a600082815260200190815260200160002060060160199054906101000a900460ff168015610d915750600a60008281526020019081526020016000206007015442115b610dd0576040517f08c379a0000000000000000000000000000000000000000000000000000000008152600401610dc790613384565b60405180910390fd5b610dd8611b69565b505050565b600060606000610ded600b6118fe565b9050600a600082815260200190815260200160002060060160199054906101000a900460ff168015610e345750600a60008281526020019081526020016000206007015442115b9250509250929050565b610e46611a70565b610e506000611d30565b565b600d5481565b60048181548110610e6857600080fd5b906000526020600020016000915090505481565b610e84611a70565b80600760046101000a81548161ffff021916908361ffff16021790555050565b60008060009054906101000a900473ffffffffffffffffffffffffffffffffffffffff16905090565b610ed56121e6565b600a600083815260200190815260200160002060405180610160016040529081600082018054610f0490612edb565b80601f0160208091040260200160405190810160405280929190818152602001828054610f3090612edb565b8015610f7d5780601f10610f5257610100808354040283529160200191610f7d565b820191906000526020600020905b815481529060010190602001808311610f6057829003601f168201915b5050505050815260200160018201548152602001600282016040518060200160405290816000820154815250508152602001600382015481526020016004820160009054906101000a900460ff16151515158152602001600582015481526020016006820160009054906101000a900473ffffffffffffffffffffffffffffffffffffffff1673ffffffffffffffffffffffffffffffffffffffff1673ffffffffffffffffffffffffffffffffffffffff1681526020016006820160149054906101000a900460ff161515151581526020016006820160159054906101000a900463ffffffff1663ffffffff1663ffffffff1681526020016006820160199054906101000a900460ff161515151581526020016007820154815250509050919050565b6110a8611a70565b80600760006101000a81548163ffffffff021916908363ffffffff16021790555050565b60026020528060005260406000206000915090508060000160009054906101000a900460ff16908060000160019054906101000a900460ff16905082565b611112611a70565b8060068190555050565b600060606002600084815260200190815260200160002060000160019054906101000a900460ff16611183576040517f08c379a000000000000000000000000000000000000000000000000000000000815260040161117a906133f0565b60405180910390fd5b6000600260008581526020019081526020016000206040518060600160405290816000820160009054906101000a900460ff161515151581526020016000820160019054906101000a900460ff161515151581526020016001820180548060200260200160405190810160405280929190818152602001828054801561122857602002820191906000526020600020905b815481526020019060010190808311611214575b5050505050815250509050806000015181604001519250925050915091565b600c5481565b611255612268565b6008600084815260200190815260200160002060008373ffffffffffffffffffffffffffffffffffffffff1673ffffffffffffffffffffffffffffffffffffffff1681526020019081526020016000206040518060600160405290816000820160009054906101000a900460ff161515151581526020016000820160019054906101000a900460ff161515151581526020016001820180548060200260200160405190810160405280929190818152602001828054801561133557602002820191906000526020600020905b815481526020019060010190808311611321575b505050505081525050905092915050565b600b8060000154905081565b61135a611a70565b3373ffffffffffffffffffffffffffffffffffffffff166108fc479081150290604051600060405180830381858888f193505050501580156113a0573d6000803e3d6000fd5b50565b6113ab611aee565b60006113b7600b6118fe565b9050600a600082815260200190815260200160002060040160009054906101000a900460ff161561141d576040517f08c379a000000000000000000000000000000000000000000000000000000000815260040161141490613482565b60405180910390fd5b34600a60008381526020019081526020016000206001015414611475576040517f08c379a000000000000000000000000000000000000000000000000000000000815260040161146c90613514565b60405180910390fd5b6000611495600a60008481526020019081526020016000206002016118fe565b90506114b5600a6000848152602001908152602001600020600201611df4565b60016008600084815260200190815260200160002060003373ffffffffffffffffffffffffffffffffffffffff1673ffffffffffffffffffffffffffffffffffffffff16815260200190815260200160002060000160006101000a81548160ff02191690831515021790555060006008600084815260200190815260200160002060003373ffffffffffffffffffffffffffffffffffffffff1673ffffffffffffffffffffffffffffffffffffffff16815260200190815260200160002060000160016101000a81548160ff0219169083151502179055506008600083815260200190815260200160002060003373ffffffffffffffffffffffffffffffffffffffff1673ffffffffffffffffffffffffffffffffffffffff1681526020019081526020016000206001018190806001815401808255809150506001900390600052602060002001600090919091909150553360096000848152602001908152602001600020600083815260200190815260200160002060006101000a81548173ffffffffffffffffffffffffffffffffffffffff021916908373ffffffffffffffffffffffffffffffffffffffff16021790555034600a600084815260200190815260200160002060030160008282546116909190613534565b9250508190555060006116b7600a60008581526020019081526020016000206002016118fe565b9050600a600084815260200190815260200160002060060160199054906101000a900460ff161580156117165750600a600084815260200190815260200160002060060160159054906101000a900463ffffffff1663ffffffff168110155b15611802576001600a600085815260200190815260200160002060060160196101000a81548160ff021916908315150217905550600d54426117589190613534565b600a6000858152602001908152602001600020600701819055507f3dcdfcde0ffa80946025c1000bff52fe117ec934dfc3c45fc9cfaa064c91c18c81600a600086815260200190815260200160002060060160159054906101000a900463ffffffff16600a600087815260200190815260200160002060030154600a6000888152602001908152602001600020600701546040516117f99493929190613568565b60405180910390a15b3373ffffffffffffffffffffffffffffffffffffffff167f97fac0ce6558f4accbb4696915809c0ef7023ffe7ba9454e94d49fb652aae1d5348560405161184a92919061330f565b60405180910390a250505061185d611b60565b565b611867611a70565b600073ffffffffffffffffffffffffffffffffffffffff168173ffffffffffffffffffffffffffffffffffffffff16036118d6576040517f08c379a00000000000000000000000000000000000000000000000000000000081526004016118cd9061361f565b60405180910390fd5b6118df81611d30565b50565b600e60009054906101000a900463ffffffff1681565b60055481565b600081600001549050919050565b6119168282611e0a565b6000611922600b6118fe565b90506000611944600a60008481526020019081526020016000206002016118fe565b9050600a6000838152602001908152602001600020600501548403611a6a57600960008381526020019081526020016000206000828560008151811061198d5761198c61363f565b5b602002602001015161199f919061369d565b815260200190815260200160002060009054906101000a900473ffffffffffffffffffffffffffffffffffffffff16600a600084815260200190815260200160002060060160006101000a81548173ffffffffffffffffffffffffffffffffffffffff021916908373ffffffffffffffffffffffffffffffffffffffff160217905550611a2a611f04565b611a69576040517f08c379a0000000000000000000000000000000000000000000000000000000008152600401611a609061371a565b60405180910390fd5b5b50505050565b611a78611faf565b73ffffffffffffffffffffffffffffffffffffffff16611a96610ea4565b73ffffffffffffffffffffffffffffffffffffffff1614611aec576040517f08c379a0000000000000000000000000000000000000000000000000000000008152600401611ae390613786565b60405180910390fd5b565b600260015403611b33576040517f08c379a0000000000000000000000000000000000000000000000000000000008152600401611b2a906137f2565b60405180910390fd5b6002600181905550565b60006064600c5483611b4f9190613812565b611b599190613854565b9050919050565b60018081905550565b6000611b75600b6118fe565b90506000611b97600a60008481526020019081526020016000206002016118fe565b905080600a600084815260200190815260200160002060060160159054906101000a900463ffffffff1663ffffffff1610611c07576040517f08c379a0000000000000000000000000000000000000000000000000000000008152600401611bfe906138d1565b60405180910390fd5b600a600083815260200190815260200160002060040160009054906101000a900460ff1615611c6b576040517f08c379a0000000000000000000000000000000000000000000000000000000008152600401611c629061393d565b60405180910390fd5b6001600a600084815260200190815260200160002060040160006101000a81548160ff021916908315150217905550611ca46001611fb7565b600a6000848152602001908152602001600020600501819055507f9337fa876371ba7a2ae0a3fd96612bed9a9baaff955d10f3c0168d544f7a053733600a600085815260200190815260200160002060030154611d15600a60008781526020019081526020016000206002016118fe565b604051611d249392919061395d565b60405180910390a15050565b60008060009054906101000a900473ffffffffffffffffffffffffffffffffffffffff169050816000806101000a81548173ffffffffffffffffffffffffffffffffffffffff021916908373ffffffffffffffffffffffffffffffffffffffff1602179055508173ffffffffffffffffffffffffffffffffffffffff168173ffffffffffffffffffffffffffffffffffffffff167f8be0079c531659141344cd1fd0a4f28419497f9722a3daafe3b4186f6b6457e060405160405180910390a35050565b6001816000016000828254019250508190555050565b6002600083815260200190815260200160002060000160019054906101000a900460ff16611e6d576040517f08c379a0000000000000000000000000000000000000000000000000000000008152600401611e64906133f0565b60405180910390fd5b60016002600084815260200190815260200160002060000160006101000a81548160ff02191690831515021790555080600260008481526020019081526020016000206001019080519060200190611ec692919061228d565b507ffe2e2d779dba245964d4e3ef9b994be63856fd568bf7d3ca9e224755cb1bd54d8282604051611ef8929190613994565b60405180910390a15050565b6000611f10600b611df4565b6000611f1c600b6118fe565b90506010600a60008381526020019081526020016000206000019081611f429190613b9b565b50600f54600a600083815260200190815260200160002060010181905550600e60009054906101000a900463ffffffff16600a600083815260200190815260200160002060060160156101000a81548163ffffffff021916908363ffffffff160217905550600191505090565b600033905090565b6000600360009054906101000a900473ffffffffffffffffffffffffffffffffffffffff1673ffffffffffffffffffffffffffffffffffffffff16635d3b1d30600654600360149054906101000a900467ffffffffffffffff16600760049054906101000a900461ffff16600760009054906101000a900463ffffffff16876040518663ffffffff1660e01b8152600401612056959493929190613cc4565b6020604051808303816000875af1158015612075573d6000803e3d6000fd5b505050506040513d601f19601f820116820180604052508101906120999190613d2c565b90506040518060600160405280600015158152602001600115158152602001600067ffffffffffffffff8111156120d3576120d2612394565b5b6040519080825280602002602001820160405280156121015781602001602082028036833780820191505090505b508152506002600083815260200190815260200160002060008201518160000160006101000a81548160ff02191690831515021790555060208201518160000160016101000a81548160ff021916908315150217905550604082015181600101908051906020019061217492919061228d565b509050506004819080600181540180825580915050600190039060005260206000200160009091909190915055806005819055507fcc58b13ad3eab50626c6a6300b1d139cd6ebb1688a7cced9461c2f7e762665ee81836040516121d9929190613d59565b60405180910390a1919050565b60405180610160016040528060608152602001600081526020016122086122da565b81526020016000815260200160001515815260200160008152602001600073ffffffffffffffffffffffffffffffffffffffff168152602001600015158152602001600063ffffffff168152602001600015158152602001600081525090565b6040518060600160405280600015158152602001600015158152602001606081525090565b8280548282559060005260206000209081019282156122c9579160200282015b828111156122c85782518255916020019190600101906122ad565b5b5090506122d691906122ed565b5090565b6040518060200160405280600081525090565b5b808211156123065760008160009055506001016122ee565b5090565b6000819050919050565b61231d8161230a565b82525050565b60006020820190506123386000830184612314565b92915050565b6000604051905090565b600080fd5b600080fd5b61235b8161230a565b811461236657600080fd5b50565b60008135905061237881612352565b92915050565b600080fd5b6000601f19601f8301169050919050565b7f4e487b7100000000000000000000000000000000000000000000000000000000600052604160045260246000fd5b6123cc82612383565b810181811067ffffffffffffffff821117156123eb576123ea612394565b5b80604052505050565b60006123fe61233e565b905061240a82826123c3565b919050565b600067ffffffffffffffff82111561242a57612429612394565b5b602082029050602081019050919050565b600080fd5b600061245361244e8461240f565b6123f4565b905080838252602082019050602084028301858111156124765761247561243b565b5b835b8181101561249f578061248b8882612369565b845260208401935050602081019050612478565b5050509392505050565b600082601f8301126124be576124bd61237e565b5b81356124ce848260208601612440565b91505092915050565b600080604083850312156124ee576124ed612348565b5b60006124fc85828601612369565b925050602083013567ffffffffffffffff81111561251d5761251c61234d565b5b612529858286016124a9565b9150509250929050565b600081519050919050565b600082825260208201905092915050565b60005b8381101561256d578082015181840152602081019050612552565b60008484015250505050565b600061258482612533565b61258e818561253e565b935061259e81856020860161254f565b6125a781612383565b840191505092915050565b600060208201905081810360008301526125cc8184612579565b905092915050565b600080fd5b600067ffffffffffffffff8211156125f4576125f3612394565b5b6125fd82612383565b9050602081019050919050565b82818337600083830152505050565b600061262c612627846125d9565b6123f4565b905082815260208101848484011115612648576126476125d4565b5b61265384828561260a565b509392505050565b600082601f8301126126705761266f61237e565b5b8135612680848260208601612619565b91505092915050565b600063ffffffff82169050919050565b6126a281612689565b81146126ad57600080fd5b50565b6000813590506126bf81612699565b92915050565b600080600080600060a086880312156126e1576126e0612348565b5b600086013567ffffffffffffffff8111156126ff576126fe61234d565b5b61270b8882890161265b565b955050602061271c88828901612369565b945050604061272d888289016126b0565b935050606061273e88828901612369565b925050608061274f88828901612369565b9150509295509295909350565b60006020828403121561277257612771612348565b5b600061278084828501612369565b91505092915050565b600080fd5b60008083601f8401126127a4576127a361237e565b5b8235905067ffffffffffffffff8111156127c1576127c0612789565b5b6020830191508360018202830111156127dd576127dc61243b565b5b9250929050565b600080602083850312156127fb576127fa612348565b5b600083013567ffffffffffffffff8111156128195761281861234d565b5b6128258582860161278e565b92509250509250929050565b60008115159050919050565b61284681612831565b82525050565b600081519050919050565b600082825260208201905092915050565b60006128738261284c565b61287d8185612857565b935061288d81856020860161254f565b61289681612383565b840191505092915050565b60006040820190506128b6600083018561283d565b81810360208301526128c88184612868565b90509392505050565b600061ffff82169050919050565b6128e8816128d1565b81146128f357600080fd5b50565b600081359050612905816128df565b92915050565b60006020828403121561292157612920612348565b5b600061292f848285016128f6565b91505092915050565b600073ffffffffffffffffffffffffffffffffffffffff82169050919050565b600061296382612938565b9050919050565b61297381612958565b82525050565b600060208201905061298e600083018461296a565b92915050565b600082825260208201905092915050565b60006129b082612533565b6129ba8185612994565b93506129ca81856020860161254f565b6129d381612383565b840191505092915050565b6129e78161230a565b82525050565b602082016000820151612a0360008501826129de565b50505050565b612a1281612831565b82525050565b612a2181612958565b82525050565b612a3081612689565b82525050565b6000610160830160008301518482036000860152612a5482826129a5565b9150506020830151612a6960208601826129de565b506040830151612a7c60408601826129ed565b506060830151612a8f60608601826129de565b506080830151612aa26080860182612a09565b5060a0830151612ab560a08601826129de565b5060c0830151612ac860c0860182612a18565b5060e0830151612adb60e0860182612a09565b50610100830151612af0610100860182612a27565b50610120830151612b05610120860182612a09565b50610140830151612b1a6101408601826129de565b508091505092915050565b60006020820190508181036000830152612b3f8184612a36565b905092915050565b600060208284031215612b5d57612b5c612348565b5b6000612b6b848285016126b0565b91505092915050565b6000604082019050612b89600083018561283d565b612b96602083018461283d565b9392505050565b6000819050919050565b612bb081612b9d565b8114612bbb57600080fd5b50565b600081359050612bcd81612ba7565b92915050565b600060208284031215612be957612be8612348565b5b6000612bf784828501612bbe565b91505092915050565b600081519050919050565b600082825260208201905092915050565b6000819050602082019050919050565b6000612c3883836129de565b60208301905092915050565b6000602082019050919050565b6000612c5c82612c00565b612c668185612c0b565b9350612c7183612c1c565b8060005b83811015612ca2578151612c898882612c2c565b9750612c9483612c44565b925050600181019050612c75565b5085935050505092915050565b6000604082019050612cc4600083018561283d565b8181036020830152612cd68184612c51565b90509392505050565b612ce881612958565b8114612cf357600080fd5b50565b600081359050612d0581612cdf565b92915050565b60008060408385031215612d2257612d21612348565b5b6000612d3085828601612369565b9250506020612d4185828601612cf6565b9150509250929050565b600082825260208201905092915050565b6000612d6782612c00565b612d718185612d4b565b9350612d7c83612c1c565b8060005b83811015612dad578151612d948882612c2c565b9750612d9f83612c44565b925050600181019050612d80565b5085935050505092915050565b6000606083016000830151612dd26000860182612a09565b506020830151612de56020860182612a09565b5060408301518482036040860152612dfd8282612d5c565b9150508091505092915050565b60006020820190508181036000830152612e248184612dba565b905092915050565b600060208284031215612e4257612e41612348565b5b6000612e5084828501612cf6565b91505092915050565b612e6281612689565b82525050565b6000602082019050612e7d6000830184612e59565b92915050565b6000604082019050612e98600083018561296a565b612ea5602083018461296a565b9392505050565b7f4e487b7100000000000000000000000000000000000000000000000000000000600052602260045260246000fd5b60006002820490506001821680612ef357607f821691505b602082108103612f0657612f05612eac565b5b50919050565b600060a0820190508181036000830152612f268188612579565b9050612f356020830187612314565b612f426040830186612314565b612f4f6060830185612e59565b612f5c6080830184612314565b9695505050505050565b7f5468652077696e6e657220616c726561647920636c61696d656420697473207060008201527f72697a652e000000000000000000000000000000000000000000000000000000602082015250565b6000612fc260258361253e565b9150612fcd82612f66565b604082019050919050565b60006020820190508181036000830152612ff181612fb5565b9050919050565b7f54686973206c6f74746572792069736e27742066696e616c697a65642079657460008201527f2e00000000000000000000000000000000000000000000000000000000000000602082015250565b600061305460218361253e565b915061305f82612ff8565b604082019050919050565b6000602082019050818103600083015261308381613047565b9050919050565b7f54686973206c6f7474657279206469646e27742067657420612077696e6e657260008201527f207965742e000000000000000000000000000000000000000000000000000000602082015250565b60006130e660258361253e565b91506130f18261308a565b604082019050919050565b60006020820190508181036000830152613115816130d9565b9050919050565b7f596f75277265206e6f74207468652077696e6e65722e00000000000000000000600082015250565b600061315260168361253e565b915061315d8261311c565b602082019050919050565b6000602082019050818103600083015261318181613145565b9050919050565b7f596f7520646f6e74206861766520616e79207469636b657420746f20636c616960008201527f6d20686572652e00000000000000000000000000000000000000000000000000602082015250565b60006131e460278361253e565b91506131ef82613188565b604082019050919050565b60006020820190508181036000830152613213816131d7565b9050919050565b7f596f75206861766520616c7265616420636c61696d656420796f75722070726960008201527f7a652e0000000000000000000000000000000000000000000000000000000000602082015250565b600061327660238361253e565b91506132818261321a565b604082019050919050565b600060208201905081810360008301526132a581613269565b9050919050565b7f4e487b7100000000000000000000000000000000000000000000000000000000600052601160045260246000fd5b60006132e68261230a565b91506132f18361230a565b9250828203905081811115613309576133086132ac565b5b92915050565b60006040820190506133246000830185612314565b6133316020830184612314565b9392505050565b7f4e6f742072656164207965740000000000000000000000000000000000000000600082015250565b600061336e600c8361253e565b915061337982613338565b602082019050919050565b6000602082019050818103600083015261339d81613361565b9050919050565b7f72657175657374206e6f7420666f756e64000000000000000000000000000000600082015250565b60006133da60118361253e565b91506133e5826133a4565b602082019050919050565b60006020820190508181036000830152613409816133cd565b9050919050565b7f54686973206c6f74746572792068617320616c72656164792066696e616c697a60008201527f65642c207761697420666f7220726573756c7473210000000000000000000000602082015250565b600061346c60358361253e565b915061347782613410565b604082019050919050565b6000602082019050818103600083015261349b8161345f565b9050919050565b7f596f75206e65656420746f20706179207468652065786163746c79207469636b60008201527f65742070726963652e0000000000000000000000000000000000000000000000602082015250565b60006134fe60298361253e565b9150613509826134a2565b604082019050919050565b6000602082019050818103600083015261352d816134f1565b9050919050565b600061353f8261230a565b915061354a8361230a565b9250828201905080821115613562576135616132ac565b5b92915050565b600060808201905061357d6000830187612314565b61358a6020830186612e59565b6135976040830185612314565b6135a46060830184612314565b95945050505050565b7f4f776e61626c653a206e6577206f776e657220697320746865207a65726f206160008201527f6464726573730000000000000000000000000000000000000000000000000000602082015250565b600061360960268361253e565b9150613614826135ad565b604082019050919050565b60006020820190508181036000830152613638816135fc565b9050919050565b7f4e487b7100000000000000000000000000000000000000000000000000000000600052603260045260246000fd5b7f4e487b7100000000000000000000000000000000000000000000000000000000600052601260045260246000fd5b60006136a88261230a565b91506136b38361230a565b9250826136c3576136c261366e565b5b828206905092915050565b7f4c6f7474657279206e6565647320746f20626520726573657465640000000000600082015250565b6000613704601b8361253e565b915061370f826136ce565b602082019050919050565b60006020820190508181036000830152613733816136f7565b9050919050565b7f4f776e61626c653a2063616c6c6572206973206e6f7420746865206f776e6572600082015250565b600061377060208361253e565b915061377b8261373a565b602082019050919050565b6000602082019050818103600083015261379f81613763565b9050919050565b7f5265656e7472616e637947756172643a207265656e7472616e742063616c6c00600082015250565b60006137dc601f8361253e565b91506137e7826137a6565b602082019050919050565b6000602082019050818103600083015261380b816137cf565b9050919050565b600061381d8261230a565b91506138288361230a565b92508282026138368161230a565b9150828204841483151761384d5761384c6132ac565b5b5092915050565b600061385f8261230a565b915061386a8361230a565b92508261387a5761387961366e565b5b828204905092915050565b7f4974204469646e74207265616368206d696e207469636b657473207965742e00600082015250565b60006138bb601f8361253e565b91506138c682613885565b602082019050919050565b600060208201905081810360008301526138ea816138ae565b9050919050565b7f4c6f747465727920616c72656164792066696e616c697a65642e000000000000600082015250565b6000613927601a8361253e565b9150613932826138f1565b602082019050919050565b600060208201905081810360008301526139568161391a565b9050919050565b6000606082019050613972600083018661296a565b61397f6020830185612314565b61398c6040830184612314565b949350505050565b60006040820190506139a96000830185612314565b81810360208301526139bb8184612c51565b90509392505050565b6000815490506139d381612edb565b9050919050565b60008190508160005260206000209050919050565b60008190508160005260206000209050919050565b60006020601f8301049050919050565b600082821b905092915050565b600060088302613a517fffffffffffffffffffffffffffffffffffffffffffffffffffffffffffffffff82613a14565b613a5b8683613a14565b95508019841693508086168417925050509392505050565b6000819050919050565b6000613a98613a93613a8e8461230a565b613a73565b61230a565b9050919050565b6000819050919050565b613ab283613a7d565b613ac6613abe82613a9f565b848454613a21565b825550505050565b600090565b613adb613ace565b613ae6818484613aa9565b505050565b5b81811015613b0a57613aff600082613ad3565b600181019050613aec565b5050565b601f821115613b4f57613b20816139da565b613b2984613a04565b81016020851015613b38578190505b613b4c613b4485613a04565b830182613aeb565b50505b505050565b600082821c905092915050565b6000613b7260001984600802613b54565b1980831691505092915050565b6000613b8b8383613b61565b9150826002028217905092915050565b818103613ba9575050613c81565b613bb2826139c4565b67ffffffffffffffff811115613bcb57613bca612394565b5b613bd58254612edb565b613be0828285613b0e565b6000601f831160018114613c0f5760008415613bfd578287015490505b613c078582613b7f565b865550613c7a565b601f198416613c1d876139ef565b9650613c28866139da565b60005b82811015613c5057848901548255600182019150600185019450602081019050613c2b565b86831015613c6d5784890154613c69601f891682613b61565b8355505b6001600288020188555050505b5050505050505b565b613c8c81612b9d565b82525050565b600067ffffffffffffffff82169050919050565b613caf81613c92565b82525050565b613cbe816128d1565b82525050565b600060a082019050613cd96000830188613c83565b613ce66020830187613ca6565b613cf36040830186613cb5565b613d006060830185612e59565b613d0d6080830184612e59565b9695505050505050565b600081519050613d2681612352565b92915050565b600060208284031215613d4257613d41612348565b5b6000613d5084828501613d17565b91505092915050565b6000604082019050613d6e6000830185612314565b613d7b6020830184612e59565b939250505056fea26469706673582212200084738abf84d7e6056c9ffa75a6bb08c7d023b728c2f1173a543263dc60287b64736f6c63430008110033",
  "immutableReferences": {
    "49": [
      {
        "length": 32,
        "start": 1468
      },
      {
        "length": 32,
        "start": 1552
      }
    ]
  },
  "source": "// SPDX-License-Identifier: MIT\r\npragma solidity ^0.8.17;\r\n\r\nimport \"@chainlink/contracts/src/v0.8/interfaces/VRFCoordinatorV2Interface.sol\";\r\nimport \"@chainlink/contracts/src/v0.8/VRFConsumerBaseV2.sol\";\r\nimport \"@chainlink/contracts/src/v0.8/AutomationCompatible.sol\";\r\n\r\nimport \"@openzeppelin/contracts/access/Ownable.sol\";\r\nimport \"@openzeppelin/contracts/utils/Counters.sol\";\r\nimport \"@openzeppelin/contracts/security/ReentrancyGuard.sol\";\r\n\r\nimport \"./VRFV2Consumer.sol\";\r\n\r\ncontract Lottery is\r\n    Ownable,\r\n    ReentrancyGuard,\r\n    VRFV2Consumer,\r\n    AutomationCompatibleInterface\r\n{\r\n    using Counters for Counters.Counter;\r\n\r\n    struct User {\r\n        bool hasTicket;\r\n        bool claimed;\r\n        uint256[] tickets;\r\n    }\r\n\r\n    struct LotteryStruct {\r\n        string name;\r\n        uint256 ticketPrice;\r\n        Counters.Counter ticketsCount;\r\n        uint256 balance;\r\n        bool finalized;\r\n        uint256 indexChainLink;\r\n        address winner;\r\n        bool claimed;\r\n        uint32 minTicket;\r\n        bool finishTrigger;\r\n        uint256 timeToFinish;\r\n    }\r\n\r\n    mapping(uint256 => mapping(address => User)) ticketOwners;\r\n    mapping(uint256 => mapping(uint256 => address)) tickets;\r\n    mapping(uint256 => LotteryStruct) lottery;\r\n\r\n    Counters.Counter public lotteryId;\r\n    uint256 public fee;\r\n    uint256 public configFinishTime;\r\n    uint32 public minTicket;\r\n    uint256 public ticketPrice;\r\n    string public lotteryName;\r\n\r\n    event TicketBought(\r\n        address indexed buyer,\r\n        uint256 price,\r\n        uint256 ticketNumber\r\n    );\r\n    event MinTicketsReached(\r\n        uint256 ticketNumber,\r\n        uint32 minTickets,\r\n        uint256 balance,\r\n        uint256 finishTime\r\n    );\r\n    event LotteryFinalized(\r\n        address owner,\r\n        uint256 totalValue,\r\n        uint256 ticketAmount\r\n    );\r\n    event ClaimedPrize(address indexed winner, uint256 totalPrize, uint256 fee);\r\n    event ChangedProperties(\r\n        address indexed owner,\r\n        string name,\r\n        uint256 ticketPrize,\r\n        uint256 fee,\r\n        uint32 minTicket,\r\n        uint256 configFinishTime\r\n    );\r\n\r\n    constructor(\r\n        uint64 _subscriptionId,\r\n        address _cordinatorAddress,\r\n        bytes32 _keyHash,\r\n        string memory _name,\r\n        uint256 _ticketPrice,\r\n        uint32 _minTicket,\r\n        uint256 _fee\r\n    ) VRFV2Consumer(_subscriptionId, _cordinatorAddress, _keyHash) {\r\n        uint256 currentLottery = lotteryId.current();\r\n\r\n        lottery[currentLottery].name = _name;\r\n        lottery[currentLottery].ticketPrice = _ticketPrice;\r\n        lottery[currentLottery].minTicket = _minTicket;\r\n\r\n        fee = _fee;\r\n        lotteryName = _name;\r\n        configFinishTime = 10 minutes;\r\n        ticketPrice = _ticketPrice;\r\n        minTicket = _minTicket;\r\n    }\r\n\r\n    function buyTicket() external payable nonReentrant {\r\n        uint256 currentLottery = lotteryId.current();\r\n        require(\r\n            !lottery[currentLottery].finalized,\r\n            \"This lottery has already finalized, wait for results!\"\r\n        );\r\n        require(\r\n            lottery[currentLottery].ticketPrice == msg.value,\r\n            \"You need to pay the exactly ticket price.\"\r\n        );\r\n\r\n        uint256 currentLotteryPosition = lottery[currentLottery]\r\n            .ticketsCount\r\n            .current();\r\n        lottery[currentLottery].ticketsCount.increment();\r\n\r\n        ticketOwners[currentLottery][msg.sender].hasTicket = true;\r\n        ticketOwners[currentLottery][msg.sender].claimed = false;\r\n        ticketOwners[currentLottery][msg.sender].tickets.push(\r\n            currentLotteryPosition\r\n        );\r\n\r\n        tickets[currentLottery][currentLotteryPosition] = msg.sender;\r\n        lottery[currentLottery].balance += msg.value;\r\n\r\n        uint256 nextLotteryPosition = lottery[currentLottery]\r\n            .ticketsCount\r\n            .current();\r\n\r\n        if (\r\n            !lottery[currentLottery].finishTrigger &&\r\n            nextLotteryPosition >= lottery[currentLottery].minTicket\r\n        ) {\r\n            lottery[currentLottery].finishTrigger = true;\r\n            lottery[currentLottery].timeToFinish =\r\n                block.timestamp +\r\n                configFinishTime;\r\n            \r\n            emit MinTicketsReached(\r\n                nextLotteryPosition,\r\n                lottery[currentLottery].minTicket,\r\n                lottery[currentLottery].balance,\r\n                lottery[currentLottery].timeToFinish\r\n            );\r\n        }\r\n\r\n        emit TicketBought(msg.sender, msg.value, currentLottery);\r\n    }\r\n\r\n    function finalizeLottery() private {\r\n        uint256 currentLottery = lotteryId.current();\r\n        uint256 currentLotteryPosition = lottery[currentLottery]\r\n            .ticketsCount\r\n            .current();\r\n\r\n        require(\r\n            lottery[currentLottery].minTicket < currentLotteryPosition,\r\n            \"It Didnt reach min tickets yet.\"\r\n        );\r\n\r\n        require(\r\n            !lottery[currentLottery].finalized,\r\n            \"Lottery already finalized.\"\r\n        );\r\n\r\n        lottery[currentLottery].finalized = true;\r\n        lottery[currentLottery].indexChainLink = requestRandomWords(1);\r\n        emit LotteryFinalized(\r\n            msg.sender,\r\n            lottery[currentLottery].balance,\r\n            lottery[currentLottery].ticketsCount.current()\r\n        );\r\n    }\r\n\r\n    function fulfillRandomWords(\r\n        uint256 _requestId,\r\n        uint256[] memory _randomWords\r\n    ) internal override {\r\n        super.fulfillRandomWords(_requestId, _randomWords);\r\n        uint256 currentLottery = lotteryId.current();\r\n        uint256 currentLotteryPosition = lottery[currentLottery]\r\n            .ticketsCount\r\n            .current();\r\n        if (_requestId == lottery[currentLottery].indexChainLink) {\r\n            lottery[currentLottery].winner = tickets[currentLottery][\r\n                _randomWords[0] % currentLotteryPosition\r\n            ];\r\n\r\n            require(resetLottery(), \"Lottery needs to be reseted\");\r\n        }\r\n    }\r\n\r\n    function claim(uint256 lotteryIndex) external nonReentrant {\r\n        require(\r\n            !lottery[lotteryIndex].claimed,\r\n            \"The winner already claimed its prize.\"\r\n        );\r\n        require(\r\n            lottery[lotteryIndex].finalized,\r\n            \"This lottery isn't finalized yet.\"\r\n        );\r\n        require(\r\n            lottery[lotteryIndex].winner != address(0),\r\n            \"This lottery didn't get a winner yet.\"\r\n        );\r\n        require(\r\n            lottery[lotteryIndex].winner == msg.sender,\r\n            \"You're not the winner.\"\r\n        );\r\n        require(\r\n            ticketOwners[lotteryIndex][msg.sender].hasTicket,\r\n            \"You dont have any ticket to claim here.\"\r\n        );\r\n        require(\r\n            !ticketOwners[lotteryIndex][msg.sender].claimed,\r\n            \"You have alread claimed your prize.\"\r\n        );\r\n        lottery[lotteryIndex].claimed = true;\r\n        ticketOwners[lotteryIndex][msg.sender].hasTicket = false;\r\n        ticketOwners[lotteryIndex][msg.sender].claimed = true;\r\n\r\n        uint256 _feeAmount = _calcFee(lottery[lotteryIndex].balance);\r\n        uint256 prize = lottery[lotteryIndex].balance - _feeAmount;\r\n\r\n        payable(owner()).transfer(_feeAmount);\r\n        payable(msg.sender).transfer(prize);\r\n        emit ClaimedPrize(msg.sender, prize, _feeAmount);\r\n    }\r\n\r\n    function resetLottery() private returns (bool) {\r\n        lotteryId.increment();\r\n        uint256 nextLottery = lotteryId.current();\r\n\r\n        lottery[nextLottery].name = lotteryName;\r\n        lottery[nextLottery].ticketPrice = ticketPrice;\r\n        lottery[nextLottery].minTicket = minTicket;\r\n\r\n        return true;\r\n    }\r\n\r\n    function _calcFee(uint256 amount) private view returns (uint256) {\r\n        return (amount * fee) / 100;\r\n    }\r\n\r\n    function setProperties(\r\n        string memory _name,\r\n        uint256 _ticketPrice,\r\n        uint32 _minTicket,\r\n        uint256 _configFinishTime,\r\n        uint256 _fee\r\n    ) external onlyOwner {\r\n        fee = _fee;\r\n        configFinishTime = _configFinishTime;\r\n        ticketPrice = _ticketPrice;\r\n        minTicket = _minTicket;\r\n        emit ChangedProperties(\r\n            msg.sender,\r\n            _name,\r\n            _ticketPrice,\r\n            _fee,\r\n            _minTicket,\r\n            _configFinishTime\r\n        );\r\n    }\r\n\r\n    function getLotteryStatus(\r\n        uint256 _lotteryId\r\n    ) public view returns (LotteryStruct memory _lottery) {\r\n        return lottery[_lotteryId];\r\n    }\r\n\r\n    function getUserStatus(\r\n        uint256 _lotteryId,\r\n        address _user\r\n    ) public view returns (User memory _returnedUser) {\r\n        return ticketOwners[_lotteryId][_user];\r\n    }\r\n\r\n    // Only if we have some problem to use this\r\n    function getAllBalance() external onlyOwner {\r\n        payable(msg.sender).transfer(address(this).balance);\r\n    }\r\n\r\n    function checkUpkeep(\r\n        bytes calldata /* checkData */\r\n    )\r\n        external\r\n        view\r\n        override\r\n        returns (bool upkeepNeeded, bytes memory /* performData */)\r\n    {\r\n        uint256 currentLottery = lotteryId.current();\r\n        upkeepNeeded = (lottery[currentLottery].finishTrigger &&\r\n            block.timestamp > lottery[currentLottery].timeToFinish);\r\n    }\r\n\r\n    function performUpkeep(bytes calldata /* performData */) external override {\r\n        uint256 currentLottery = lotteryId.current();\r\n\r\n        require(\r\n            (lottery[currentLottery].finishTrigger &&\r\n                block.timestamp > lottery[currentLottery].timeToFinish),\r\n            \"Not read yet\"\r\n        );\r\n        finalizeLottery();\r\n    }\r\n}\r\n",
  "sourcePath": "C:\\lucas_blockchain\\Projetos\\LottoCrypto\\Truffle\\contracts\\Lottery.sol",
  "compiler": {
    "name": "solc",
    "version": "0.8.17+commit.8df45f5f.Emscripten.clang"
  },
  "schemaVersion": "3.4.10",
  "updatedAt": "2023-03-08T12:31:19.670Z",
  "networkType": "ethereum",
  "devdoc": {
    "kind": "dev",
    "methods": {
      "owner()": {
        "details": "Returns the address of the current owner."
      },
      "renounceOwnership()": {
        "details": "Leaves the contract without owner. It will not be possible to call `onlyOwner` functions anymore. Can only be called by the current owner. NOTE: Renouncing ownership will leave the contract without an owner, thereby removing any functionality that is only available to the owner."
      },
      "transferOwnership(address)": {
        "details": "Transfers ownership of the contract to a new account (`newOwner`). Can only be called by the current owner."
      }
    },
    "version": 1
  },
  "userdoc": {
    "kind": "user",
    "methods": {},
    "version": 1
  }
}