{
  "contractName": "VRFV2Consumer",
  "abi": [
    {
      "inputs": [
        {
          "internalType": "uint64",
          "name": "subscriptionId",
          "type": "uint64"
        },
        {
          "internalType": "address",
          "name": "cordinatorAddress",
          "type": "address"
        },
        {
          "internalType": "bytes32",
          "name": "_keyHash",
          "type": "bytes32"
        }
      ],
      "stateMutability": "nonpayable",
      "type": "constructor"
    },
    {
      "inputs": [
        {
          "internalType": "address",
          "name": "have",
          "type": "address"
        },
        {
          "internalType": "address",
          "name": "want",
          "type": "address"
        }
      ],
      "name": "OnlyCoordinatorCanFulfill",
      "type": "error"
    },
    {
      "anonymous": false,
      "inputs": [
        {
          "indexed": true,
          "internalType": "address",
          "name": "previousOwner",
          "type": "address"
        },
        {
          "indexed": true,
          "internalType": "address",
          "name": "newOwner",
          "type": "address"
        }
      ],
      "name": "OwnershipTransferred",
      "type": "event"
    },
    {
      "anonymous": false,
      "inputs": [
        {
          "indexed": false,
          "internalType": "uint256",
          "name": "requestId",
          "type": "uint256"
        },
        {
          "indexed": false,
          "internalType": "uint256[]",
          "name": "randomWords",
          "type": "uint256[]"
        }
      ],
      "name": "RequestFulfilled",
      "type": "event"
    },
    {
      "anonymous": false,
      "inputs": [
        {
          "indexed": false,
          "internalType": "uint256",
          "name": "requestId",
          "type": "uint256"
        },
        {
          "indexed": false,
          "internalType": "uint32",
          "name": "numWords",
          "type": "uint32"
        }
      ],
      "name": "RequestSent",
      "type": "event"
    },
    {
      "inputs": [],
      "name": "lastRequestId",
      "outputs": [
        {
          "internalType": "uint256",
          "name": "",
          "type": "uint256"
        }
      ],
      "stateMutability": "view",
      "type": "function"
    },
    {
      "inputs": [],
      "name": "owner",
      "outputs": [
        {
          "internalType": "address",
          "name": "",
          "type": "address"
        }
      ],
      "stateMutability": "view",
      "type": "function"
    },
    {
      "inputs": [
        {
          "internalType": "uint256",
          "name": "requestId",
          "type": "uint256"
        },
        {
          "internalType": "uint256[]",
          "name": "randomWords",
          "type": "uint256[]"
        }
      ],
      "name": "rawFulfillRandomWords",
      "outputs": [],
      "stateMutability": "nonpayable",
      "type": "function"
    },
    {
      "inputs": [],
      "name": "renounceOwnership",
      "outputs": [],
      "stateMutability": "nonpayable",
      "type": "function"
    },
    {
      "inputs": [
        {
          "internalType": "uint256",
          "name": "",
          "type": "uint256"
        }
      ],
      "name": "requestIds",
      "outputs": [
        {
          "internalType": "uint256",
          "name": "",
          "type": "uint256"
        }
      ],
      "stateMutability": "view",
      "type": "function"
    },
    {
      "inputs": [
        {
          "internalType": "uint256",
          "name": "",
          "type": "uint256"
        }
      ],
      "name": "s_requests",
      "outputs": [
        {
          "internalType": "bool",
          "name": "fulfilled",
          "type": "bool"
        },
        {
          "internalType": "bool",
          "name": "exists",
          "type": "bool"
        }
      ],
      "stateMutability": "view",
      "type": "function"
    },
    {
      "inputs": [
        {
          "internalType": "address",
          "name": "newOwner",
          "type": "address"
        }
      ],
      "name": "transferOwnership",
      "outputs": [],
      "stateMutability": "nonpayable",
      "type": "function"
    },
    {
      "inputs": [
        {
          "internalType": "uint256",
          "name": "_requestId",
          "type": "uint256"
        }
      ],
      "name": "getRequestStatus",
      "outputs": [
        {
          "internalType": "bool",
          "name": "fulfilled",
          "type": "bool"
        },
        {
          "internalType": "uint256[]",
          "name": "randomWords",
          "type": "uint256[]"
        }
      ],
      "stateMutability": "view",
      "type": "function"
    }
  ],
  "bytecode": "0x60a06040526207a120600660006101000a81548163ffffffff021916908363ffffffff1602179055506003600660046101000a81548161ffff021916908361ffff1602179055503480156200005357600080fd5b5060405162001122380380620011228339818101604052810190620000799190620002ff565b818073ffffffffffffffffffffffffffffffffffffffff1660808173ffffffffffffffffffffffffffffffffffffffff168152505050620000cf620000c36200014960201b60201c565b6200015160201b60201c565b81600260006101000a81548173ffffffffffffffffffffffffffffffffffffffff021916908373ffffffffffffffffffffffffffffffffffffffff16021790555082600260146101000a81548167ffffffffffffffff021916908367ffffffffffffffff160217905550806005819055505050506200035b565b600033905090565b60008060009054906101000a900473ffffffffffffffffffffffffffffffffffffffff169050816000806101000a81548173ffffffffffffffffffffffffffffffffffffffff021916908373ffffffffffffffffffffffffffffffffffffffff1602179055508173ffffffffffffffffffffffffffffffffffffffff168173ffffffffffffffffffffffffffffffffffffffff167f8be0079c531659141344cd1fd0a4f28419497f9722a3daafe3b4186f6b6457e060405160405180910390a35050565b600080fd5b600067ffffffffffffffff82169050919050565b62000239816200021a565b81146200024557600080fd5b50565b60008151905062000259816200022e565b92915050565b600073ffffffffffffffffffffffffffffffffffffffff82169050919050565b60006200028c826200025f565b9050919050565b6200029e816200027f565b8114620002aa57600080fd5b50565b600081519050620002be8162000293565b92915050565b6000819050919050565b620002d981620002c4565b8114620002e557600080fd5b50565b600081519050620002f981620002ce565b92915050565b6000806000606084860312156200031b576200031a62000215565b5b60006200032b8682870162000248565b93505060206200033e86828701620002ad565b92505060406200035186828701620002e8565b9150509250925092565b608051610da46200037e6000396000818161019f01526101f30152610da46000f3fe608060405234801561001057600080fd5b50600436106100885760003560e01c8063a168fa891161005b578063a168fa8914610101578063d8a4676f14610132578063f2fde38b14610163578063fc2a88c31461017f57610088565b80631fe543e31461008d578063715018a6146100a95780638796ba8c146100b35780638da5cb5b146100e3575b600080fd5b6100a760048036038101906100a29190610900565b61019d565b005b6100b161025d565b005b6100cd60048036038101906100c8919061095c565b610271565b6040516100da9190610998565b60405180910390f35b6100eb610295565b6040516100f891906109f4565b60405180910390f35b61011b6004803603810190610116919061095c565b6102be565b604051610129929190610a2a565b60405180910390f35b61014c6004803603810190610147919061095c565b6102fc565b60405161015a929190610b11565b60405180910390f35b61017d60048036038101906101789190610b6d565b610427565b005b6101876104aa565b6040516101949190610998565b60405180910390f35b7f000000000000000000000000000000000000000000000000000000000000000073ffffffffffffffffffffffffffffffffffffffff163373ffffffffffffffffffffffffffffffffffffffff161461024f57337f00000000000000000000000000000000000000000000000000000000000000006040517f1cf993f4000000000000000000000000000000000000000000000000000000008152600401610246929190610b9a565b60405180910390fd5b61025982826104b0565b5050565b6102656105a9565b61026f6000610627565b565b6003818154811061028157600080fd5b906000526020600020016000915090505481565b60008060009054906101000a900473ffffffffffffffffffffffffffffffffffffffff16905090565b60016020528060005260406000206000915090508060000160009054906101000a900460ff16908060000160019054906101000a900460ff16905082565b600060606001600084815260200190815260200160002060000160019054906101000a900460ff16610363576040517f08c379a000000000000000000000000000000000000000000000000000000000815260040161035a90610c20565b60405180910390fd5b6000600160008581526020019081526020016000206040518060600160405290816000820160009054906101000a900460ff161515151581526020016000820160019054906101000a900460ff161515151581526020016001820180548060200260200160405190810160405280929190818152602001828054801561040857602002820191906000526020600020905b8154815260200190600101908083116103f4575b5050505050815250509050806000015181604001519250925050915091565b61042f6105a9565b600073ffffffffffffffffffffffffffffffffffffffff168173ffffffffffffffffffffffffffffffffffffffff160361049e576040517f08c379a000000000000000000000000000000000000000000000000000000000815260040161049590610cb2565b60405180910390fd5b6104a781610627565b50565b60045481565b6001600083815260200190815260200160002060000160019054906101000a900460ff16610513576040517f08c379a000000000000000000000000000000000000000000000000000000000815260040161050a90610c20565b60405180910390fd5b600180600084815260200190815260200160002060000160006101000a81548160ff0219169083151502179055508060016000848152602001908152602001600020600101908051906020019061056b9291906106f3565b507ffe2e2d779dba245964d4e3ef9b994be63856fd568bf7d3ca9e224755cb1bd54d828260405161059d929190610cd2565b60405180910390a15050565b6105b16106eb565b73ffffffffffffffffffffffffffffffffffffffff166105cf610295565b73ffffffffffffffffffffffffffffffffffffffff1614610625576040517f08c379a000000000000000000000000000000000000000000000000000000000815260040161061c90610d4e565b60405180910390fd5b565b60008060009054906101000a900473ffffffffffffffffffffffffffffffffffffffff169050816000806101000a81548173ffffffffffffffffffffffffffffffffffffffff021916908373ffffffffffffffffffffffffffffffffffffffff1602179055508173ffffffffffffffffffffffffffffffffffffffff168173ffffffffffffffffffffffffffffffffffffffff167f8be0079c531659141344cd1fd0a4f28419497f9722a3daafe3b4186f6b6457e060405160405180910390a35050565b600033905090565b82805482825590600052602060002090810192821561072f579160200282015b8281111561072e578251825591602001919060010190610713565b5b50905061073c9190610740565b5090565b5b80821115610759576000816000905550600101610741565b5090565b6000604051905090565b600080fd5b600080fd5b6000819050919050565b61078481610771565b811461078f57600080fd5b50565b6000813590506107a18161077b565b92915050565b600080fd5b6000601f19601f8301169050919050565b7f4e487b7100000000000000000000000000000000000000000000000000000000600052604160045260246000fd5b6107f5826107ac565b810181811067ffffffffffffffff82111715610814576108136107bd565b5b80604052505050565b600061082761075d565b905061083382826107ec565b919050565b600067ffffffffffffffff821115610853576108526107bd565b5b602082029050602081019050919050565b600080fd5b600061087c61087784610838565b61081d565b9050808382526020820190506020840283018581111561089f5761089e610864565b5b835b818110156108c857806108b48882610792565b8452602084019350506020810190506108a1565b5050509392505050565b600082601f8301126108e7576108e66107a7565b5b81356108f7848260208601610869565b91505092915050565b6000806040838503121561091757610916610767565b5b600061092585828601610792565b925050602083013567ffffffffffffffff8111156109465761094561076c565b5b610952858286016108d2565b9150509250929050565b60006020828403121561097257610971610767565b5b600061098084828501610792565b91505092915050565b61099281610771565b82525050565b60006020820190506109ad6000830184610989565b92915050565b600073ffffffffffffffffffffffffffffffffffffffff82169050919050565b60006109de826109b3565b9050919050565b6109ee816109d3565b82525050565b6000602082019050610a0960008301846109e5565b92915050565b60008115159050919050565b610a2481610a0f565b82525050565b6000604082019050610a3f6000830185610a1b565b610a4c6020830184610a1b565b9392505050565b600081519050919050565b600082825260208201905092915050565b6000819050602082019050919050565b610a8881610771565b82525050565b6000610a9a8383610a7f565b60208301905092915050565b6000602082019050919050565b6000610abe82610a53565b610ac88185610a5e565b9350610ad383610a6f565b8060005b83811015610b04578151610aeb8882610a8e565b9750610af683610aa6565b925050600181019050610ad7565b5085935050505092915050565b6000604082019050610b266000830185610a1b565b8181036020830152610b388184610ab3565b90509392505050565b610b4a816109d3565b8114610b5557600080fd5b50565b600081359050610b6781610b41565b92915050565b600060208284031215610b8357610b82610767565b5b6000610b9184828501610b58565b91505092915050565b6000604082019050610baf60008301856109e5565b610bbc60208301846109e5565b9392505050565b600082825260208201905092915050565b7f72657175657374206e6f7420666f756e64000000000000000000000000000000600082015250565b6000610c0a601183610bc3565b9150610c1582610bd4565b602082019050919050565b60006020820190508181036000830152610c3981610bfd565b9050919050565b7f4f776e61626c653a206e6577206f776e657220697320746865207a65726f206160008201527f6464726573730000000000000000000000000000000000000000000000000000602082015250565b6000610c9c602683610bc3565b9150610ca782610c40565b604082019050919050565b60006020820190508181036000830152610ccb81610c8f565b9050919050565b6000604082019050610ce76000830185610989565b8181036020830152610cf98184610ab3565b90509392505050565b7f4f776e61626c653a2063616c6c6572206973206e6f7420746865206f776e6572600082015250565b6000610d38602083610bc3565b9150610d4382610d02565b602082019050919050565b60006020820190508181036000830152610d6781610d2b565b905091905056fea26469706673582212200a1b3ef303780509e2f820bb74ee40996c34924ebf790cfedb422839f47f0ba364736f6c63430008110033",
  "immutableReferences": {
    "10": [
      {
        "length": 32,
        "start": 415
      },
      {
        "length": 32,
        "start": 499
      }
    ]
  },
  "source": "// SPDX-License-Identifier: MIT\r\npragma solidity ^0.8.7;\r\n\r\nimport '@chainlink/contracts/src/v0.8/interfaces/VRFCoordinatorV2Interface.sol';\r\nimport '@chainlink/contracts/src/v0.8/VRFConsumerBaseV2.sol';\r\n\r\nimport \"@openzeppelin/contracts/access/Ownable.sol\";\r\n\r\ncontract VRFV2Consumer is VRFConsumerBaseV2, Ownable {\r\n    event RequestSent(uint256 requestId, uint32 numWords);\r\n    event RequestFulfilled(uint256 requestId, uint256[] randomWords);\r\n\r\n    struct RequestStatus {\r\n        bool fulfilled;\r\n        bool exists;\r\n        uint256[] randomWords;\r\n    }\r\n\r\n    mapping(uint256 => RequestStatus) public s_requests; /* requestId --> requestStatus */\r\n    VRFCoordinatorV2Interface COORDINATOR;\r\n\r\n    // Your subscription ID.\r\n    uint64 s_subscriptionId;\r\n\r\n    // past requests Id.\r\n    uint256[] public requestIds;\r\n    uint256 public lastRequestId;\r\n\r\n    // The gas lane to use, which specifies the maximum gas price to bump to.\r\n    // For a list of available gas lanes on each network,\r\n    // see https://docs.chain.link/docs/vrf/v2/subscription/supported-networks/#configurations\r\n    bytes32 keyHash;\r\n\r\n    // Depends on the number of requested values that you want sent to the\r\n    // fulfillRandomWords() function. Storing each word costs about 20,000 gas,\r\n    // so 100,000 is a safe default for this example contract. Test and adjust\r\n    // this limit based on the network that you select, the size of the request,\r\n    // and the processing of the callback request in the fulfillRandomWords()\r\n    // function.\r\n    uint32 callbackGasLimit = 500000;\r\n\r\n    // The default is 3, but you can set this higher.\r\n    uint16 requestConfirmations = 3;\r\n\r\n    constructor(uint64 subscriptionId, address cordinatorAddress, bytes32 _keyHash)\r\n        VRFConsumerBaseV2(cordinatorAddress)\r\n    {\r\n        COORDINATOR = VRFCoordinatorV2Interface(cordinatorAddress);\r\n        s_subscriptionId = subscriptionId;\r\n        keyHash = _keyHash;\r\n    }\r\n\r\n    // Assumes the subscription is funded sufficiently.\r\n    function requestRandomWords(uint32 _numWords) internal returns (uint256 requestId) {\r\n        // Will revert if subscription is not set and funded.\r\n        requestId = COORDINATOR.requestRandomWords(\r\n            keyHash,\r\n            s_subscriptionId,\r\n            requestConfirmations,\r\n            callbackGasLimit,\r\n            _numWords\r\n        );\r\n        s_requests[requestId] = RequestStatus({randomWords: new uint256[](0), exists: true, fulfilled: false});\r\n        requestIds.push(requestId);\r\n        lastRequestId = requestId;\r\n        emit RequestSent(requestId, _numWords);\r\n        return requestId;\r\n    }\r\n\r\n    function fulfillRandomWords(uint256 _requestId, uint256[] memory _randomWords) internal virtual override {\r\n        require(s_requests[_requestId].exists, 'request not found');\r\n        s_requests[_requestId].fulfilled = true;\r\n        s_requests[_requestId].randomWords = _randomWords;\r\n        emit RequestFulfilled(_requestId, _randomWords);\r\n    }\r\n\r\n    function getRequestStatus(uint256 _requestId) external view returns (bool fulfilled, uint256[] memory randomWords) {\r\n        require(s_requests[_requestId].exists, 'request not found');\r\n        RequestStatus memory request = s_requests[_requestId];\r\n        return (request.fulfilled, request.randomWords);\r\n    }\r\n}\r\n",
  "sourcePath": "C:\\lucas_blockchain\\Projetos\\LottoCrypto\\Truffle\\contracts\\VRFV2Consumer.sol",
  "compiler": {
    "name": "solc",
    "version": "0.8.17+commit.8df45f5f.Emscripten.clang"
  },
  "schemaVersion": "3.4.11",
  "updatedAt": "2023-03-02T14:28:04.059Z",
  "devdoc": {
    "kind": "dev",
    "methods": {
      "owner()": {
        "details": "Returns the address of the current owner."
      },
      "renounceOwnership()": {
        "details": "Leaves the contract without owner. It will not be possible to call `onlyOwner` functions anymore. Can only be called by the current owner. NOTE: Renouncing ownership will leave the contract without an owner, thereby removing any functionality that is only available to the owner."
      },
      "transferOwnership(address)": {
        "details": "Transfers ownership of the contract to a new account (`newOwner`). Can only be called by the current owner."
      }
    },
    "version": 1
  },
  "userdoc": {
    "kind": "user",
    "methods": {},
    "version": 1
  }
}