{
  "contractName": "VRFV2Consumer",
  "abi": [
    {
      "inputs": [
        {
          "internalType": "uint64",
          "name": "subscriptionId",
          "type": "uint64"
        },
        {
          "internalType": "address",
          "name": "cordinatorAddress",
          "type": "address"
        },
        {
          "internalType": "bytes32",
          "name": "_keyHash",
          "type": "bytes32"
        }
      ],
      "stateMutability": "nonpayable",
      "type": "constructor"
    },
    {
      "inputs": [
        {
          "internalType": "address",
          "name": "have",
          "type": "address"
        },
        {
          "internalType": "address",
          "name": "want",
          "type": "address"
        }
      ],
      "name": "OnlyCoordinatorCanFulfill",
      "type": "error"
    },
    {
      "anonymous": false,
      "inputs": [
        {
          "indexed": true,
          "internalType": "address",
          "name": "previousOwner",
          "type": "address"
        },
        {
          "indexed": true,
          "internalType": "address",
          "name": "newOwner",
          "type": "address"
        }
      ],
      "name": "OwnershipTransferred",
      "type": "event"
    },
    {
      "anonymous": false,
      "inputs": [
        {
          "indexed": false,
          "internalType": "uint256",
          "name": "requestId",
          "type": "uint256"
        },
        {
          "indexed": false,
          "internalType": "uint256[]",
          "name": "randomWords",
          "type": "uint256[]"
        }
      ],
      "name": "RequestFulfilled",
      "type": "event"
    },
    {
      "anonymous": false,
      "inputs": [
        {
          "indexed": false,
          "internalType": "uint256",
          "name": "requestId",
          "type": "uint256"
        },
        {
          "indexed": false,
          "internalType": "uint32",
          "name": "numWords",
          "type": "uint32"
        }
      ],
      "name": "RequestSent",
      "type": "event"
    },
    {
      "inputs": [],
      "name": "lastRequestId",
      "outputs": [
        {
          "internalType": "uint256",
          "name": "",
          "type": "uint256"
        }
      ],
      "stateMutability": "view",
      "type": "function"
    },
    {
      "inputs": [],
      "name": "owner",
      "outputs": [
        {
          "internalType": "address",
          "name": "",
          "type": "address"
        }
      ],
      "stateMutability": "view",
      "type": "function"
    },
    {
      "inputs": [
        {
          "internalType": "uint256",
          "name": "requestId",
          "type": "uint256"
        },
        {
          "internalType": "uint256[]",
          "name": "randomWords",
          "type": "uint256[]"
        }
      ],
      "name": "rawFulfillRandomWords",
      "outputs": [],
      "stateMutability": "nonpayable",
      "type": "function"
    },
    {
      "inputs": [],
      "name": "renounceOwnership",
      "outputs": [],
      "stateMutability": "nonpayable",
      "type": "function"
    },
    {
      "inputs": [
        {
          "internalType": "uint256",
          "name": "",
          "type": "uint256"
        }
      ],
      "name": "requestIds",
      "outputs": [
        {
          "internalType": "uint256",
          "name": "",
          "type": "uint256"
        }
      ],
      "stateMutability": "view",
      "type": "function"
    },
    {
      "inputs": [
        {
          "internalType": "uint256",
          "name": "",
          "type": "uint256"
        }
      ],
      "name": "s_requests",
      "outputs": [
        {
          "internalType": "bool",
          "name": "fulfilled",
          "type": "bool"
        },
        {
          "internalType": "bool",
          "name": "exists",
          "type": "bool"
        }
      ],
      "stateMutability": "view",
      "type": "function"
    },
    {
      "inputs": [
        {
          "internalType": "address",
          "name": "newOwner",
          "type": "address"
        }
      ],
      "name": "transferOwnership",
      "outputs": [],
      "stateMutability": "nonpayable",
      "type": "function"
    },
    {
      "inputs": [
        {
          "internalType": "uint256",
          "name": "_requestId",
          "type": "uint256"
        }
      ],
      "name": "getRequestStatus",
      "outputs": [
        {
          "internalType": "bool",
          "name": "fulfilled",
          "type": "bool"
        },
        {
          "internalType": "uint256[]",
          "name": "randomWords",
          "type": "uint256[]"
        }
      ],
      "stateMutability": "view",
      "type": "function"
    },
    {
      "inputs": [
        {
          "internalType": "bytes32",
          "name": "_keyHash",
          "type": "bytes32"
        }
      ],
      "name": "setKeyHashValue",
      "outputs": [],
      "stateMutability": "nonpayable",
      "type": "function"
    },
    {
      "inputs": [
        {
          "internalType": "uint32",
          "name": "_callBackGasLimit",
          "type": "uint32"
        }
      ],
      "name": "setCallBackGasLimit",
      "outputs": [],
      "stateMutability": "nonpayable",
      "type": "function"
    },
    {
      "inputs": [
        {
          "internalType": "uint16",
          "name": "_requestConfirmations",
          "type": "uint16"
        }
      ],
      "name": "setRequestConfirmations",
      "outputs": [],
      "stateMutability": "nonpayable",
      "type": "function"
    }
  ],
  "bytecode": "0x60a06040523480156200001157600080fd5b5060405162001330380380620013308339818101604052810190620000379190620002ff565b818073ffffffffffffffffffffffffffffffffffffffff1660808173ffffffffffffffffffffffffffffffffffffffff1681525050506200008d620000816200014960201b60201c565b6200015160201b60201c565b81600260006101000a81548173ffffffffffffffffffffffffffffffffffffffff021916908373ffffffffffffffffffffffffffffffffffffffff16021790555082600260146101000a81548167ffffffffffffffff021916908367ffffffffffffffff160217905550806005819055506207a120600660006101000a81548163ffffffff021916908363ffffffff1602179055506003600660046101000a81548161ffff021916908361ffff1602179055505050506200035b565b600033905090565b60008060009054906101000a900473ffffffffffffffffffffffffffffffffffffffff169050816000806101000a81548173ffffffffffffffffffffffffffffffffffffffff021916908373ffffffffffffffffffffffffffffffffffffffff1602179055508173ffffffffffffffffffffffffffffffffffffffff168173ffffffffffffffffffffffffffffffffffffffff167f8be0079c531659141344cd1fd0a4f28419497f9722a3daafe3b4186f6b6457e060405160405180910390a35050565b600080fd5b600067ffffffffffffffff82169050919050565b62000239816200021a565b81146200024557600080fd5b50565b60008151905062000259816200022e565b92915050565b600073ffffffffffffffffffffffffffffffffffffffff82169050919050565b60006200028c826200025f565b9050919050565b6200029e816200027f565b8114620002aa57600080fd5b50565b600081519050620002be8162000293565b92915050565b6000819050919050565b620002d981620002c4565b8114620002e557600080fd5b50565b600081519050620002f981620002ce565b92915050565b6000806000606084860312156200031b576200031a62000215565b5b60006200032b8682870162000248565b93505060206200033e86828701620002ad565b92505060406200035186828701620002e8565b9150509250925092565b608051610fb26200037e6000396000818161021401526102680152610fb26000f3fe608060405234801561001057600080fd5b50600436106100a95760003560e01c8063982d808411610071578063982d80841461013e578063a168fa891461015a578063a7348e5f1461018b578063d8a4676f146101a7578063f2fde38b146101d8578063fc2a88c3146101f4576100a9565b80631fe543e3146100ae578063715018a6146100ca5780638796ba8c146100d45780638824f5a7146101045780638da5cb5b14610120575b600080fd5b6100c860048036038101906100c391906109db565b610212565b005b6100d26102d2565b005b6100ee60048036038101906100e99190610a37565b6102e6565b6040516100fb9190610a73565b60405180910390f35b61011e60048036038101906101199190610ac8565b61030a565b005b610128610332565b6040516101359190610b36565b60405180910390f35b61015860048036038101906101539190610b8d565b61035b565b005b610174600480360381019061016f9190610a37565b610387565b604051610182929190610bd5565b60405180910390f35b6101a560048036038101906101a09190610c34565b6103c5565b005b6101c160048036038101906101bc9190610a37565b6103d7565b6040516101cf929190610d1f565b60405180910390f35b6101f260048036038101906101ed9190610d7b565b610502565b005b6101fc610585565b6040516102099190610a73565b60405180910390f35b7f000000000000000000000000000000000000000000000000000000000000000073ffffffffffffffffffffffffffffffffffffffff163373ffffffffffffffffffffffffffffffffffffffff16146102c457337f00000000000000000000000000000000000000000000000000000000000000006040517f1cf993f40000000000000000000000000000000000000000000000000000000081526004016102bb929190610da8565b60405180910390fd5b6102ce828261058b565b5050565b6102da610684565b6102e46000610702565b565b600381815481106102f657600080fd5b906000526020600020016000915090505481565b610312610684565b80600660046101000a81548161ffff021916908361ffff16021790555050565b60008060009054906101000a900473ffffffffffffffffffffffffffffffffffffffff16905090565b610363610684565b80600660006101000a81548163ffffffff021916908363ffffffff16021790555050565b60016020528060005260406000206000915090508060000160009054906101000a900460ff16908060000160019054906101000a900460ff16905082565b6103cd610684565b8060058190555050565b600060606001600084815260200190815260200160002060000160019054906101000a900460ff1661043e576040517f08c379a000000000000000000000000000000000000000000000000000000000815260040161043590610e2e565b60405180910390fd5b6000600160008581526020019081526020016000206040518060600160405290816000820160009054906101000a900460ff161515151581526020016000820160019054906101000a900460ff16151515158152602001600182018054806020026020016040519081016040528092919081815260200182805480156104e357602002820191906000526020600020905b8154815260200190600101908083116104cf575b5050505050815250509050806000015181604001519250925050915091565b61050a610684565b600073ffffffffffffffffffffffffffffffffffffffff168173ffffffffffffffffffffffffffffffffffffffff1603610579576040517f08c379a000000000000000000000000000000000000000000000000000000000815260040161057090610ec0565b60405180910390fd5b61058281610702565b50565b60045481565b6001600083815260200190815260200160002060000160019054906101000a900460ff166105ee576040517f08c379a00000000000000000000000000000000000000000000000000000000081526004016105e590610e2e565b60405180910390fd5b600180600084815260200190815260200160002060000160006101000a81548160ff021916908315150217905550806001600084815260200190815260200160002060010190805190602001906106469291906107ce565b507ffe2e2d779dba245964d4e3ef9b994be63856fd568bf7d3ca9e224755cb1bd54d8282604051610678929190610ee0565b60405180910390a15050565b61068c6107c6565b73ffffffffffffffffffffffffffffffffffffffff166106aa610332565b73ffffffffffffffffffffffffffffffffffffffff1614610700576040517f08c379a00000000000000000000000000000000000000000000000000000000081526004016106f790610f5c565b60405180910390fd5b565b60008060009054906101000a900473ffffffffffffffffffffffffffffffffffffffff169050816000806101000a81548173ffffffffffffffffffffffffffffffffffffffff021916908373ffffffffffffffffffffffffffffffffffffffff1602179055508173ffffffffffffffffffffffffffffffffffffffff168173ffffffffffffffffffffffffffffffffffffffff167f8be0079c531659141344cd1fd0a4f28419497f9722a3daafe3b4186f6b6457e060405160405180910390a35050565b600033905090565b82805482825590600052602060002090810192821561080a579160200282015b828111156108095782518255916020019190600101906107ee565b5b509050610817919061081b565b5090565b5b8082111561083457600081600090555060010161081c565b5090565b6000604051905090565b600080fd5b600080fd5b6000819050919050565b61085f8161084c565b811461086a57600080fd5b50565b60008135905061087c81610856565b92915050565b600080fd5b6000601f19601f8301169050919050565b7f4e487b7100000000000000000000000000000000000000000000000000000000600052604160045260246000fd5b6108d082610887565b810181811067ffffffffffffffff821117156108ef576108ee610898565b5b80604052505050565b6000610902610838565b905061090e82826108c7565b919050565b600067ffffffffffffffff82111561092e5761092d610898565b5b602082029050602081019050919050565b600080fd5b600061095761095284610913565b6108f8565b9050808382526020820190506020840283018581111561097a5761097961093f565b5b835b818110156109a3578061098f888261086d565b84526020840193505060208101905061097c565b5050509392505050565b600082601f8301126109c2576109c1610882565b5b81356109d2848260208601610944565b91505092915050565b600080604083850312156109f2576109f1610842565b5b6000610a008582860161086d565b925050602083013567ffffffffffffffff811115610a2157610a20610847565b5b610a2d858286016109ad565b9150509250929050565b600060208284031215610a4d57610a4c610842565b5b6000610a5b8482850161086d565b91505092915050565b610a6d8161084c565b82525050565b6000602082019050610a886000830184610a64565b92915050565b600061ffff82169050919050565b610aa581610a8e565b8114610ab057600080fd5b50565b600081359050610ac281610a9c565b92915050565b600060208284031215610ade57610add610842565b5b6000610aec84828501610ab3565b91505092915050565b600073ffffffffffffffffffffffffffffffffffffffff82169050919050565b6000610b2082610af5565b9050919050565b610b3081610b15565b82525050565b6000602082019050610b4b6000830184610b27565b92915050565b600063ffffffff82169050919050565b610b6a81610b51565b8114610b7557600080fd5b50565b600081359050610b8781610b61565b92915050565b600060208284031215610ba357610ba2610842565b5b6000610bb184828501610b78565b91505092915050565b60008115159050919050565b610bcf81610bba565b82525050565b6000604082019050610bea6000830185610bc6565b610bf76020830184610bc6565b9392505050565b6000819050919050565b610c1181610bfe565b8114610c1c57600080fd5b50565b600081359050610c2e81610c08565b92915050565b600060208284031215610c4a57610c49610842565b5b6000610c5884828501610c1f565b91505092915050565b600081519050919050565b600082825260208201905092915050565b6000819050602082019050919050565b610c968161084c565b82525050565b6000610ca88383610c8d565b60208301905092915050565b6000602082019050919050565b6000610ccc82610c61565b610cd68185610c6c565b9350610ce183610c7d565b8060005b83811015610d12578151610cf98882610c9c565b9750610d0483610cb4565b925050600181019050610ce5565b5085935050505092915050565b6000604082019050610d346000830185610bc6565b8181036020830152610d468184610cc1565b90509392505050565b610d5881610b15565b8114610d6357600080fd5b50565b600081359050610d7581610d4f565b92915050565b600060208284031215610d9157610d90610842565b5b6000610d9f84828501610d66565b91505092915050565b6000604082019050610dbd6000830185610b27565b610dca6020830184610b27565b9392505050565b600082825260208201905092915050565b7f72657175657374206e6f7420666f756e64000000000000000000000000000000600082015250565b6000610e18601183610dd1565b9150610e2382610de2565b602082019050919050565b60006020820190508181036000830152610e4781610e0b565b9050919050565b7f4f776e61626c653a206e6577206f776e657220697320746865207a65726f206160008201527f6464726573730000000000000000000000000000000000000000000000000000602082015250565b6000610eaa602683610dd1565b9150610eb582610e4e565b604082019050919050565b60006020820190508181036000830152610ed981610e9d565b9050919050565b6000604082019050610ef56000830185610a64565b8181036020830152610f078184610cc1565b90509392505050565b7f4f776e61626c653a2063616c6c6572206973206e6f7420746865206f776e6572600082015250565b6000610f46602083610dd1565b9150610f5182610f10565b602082019050919050565b60006020820190508181036000830152610f7581610f39565b905091905056fea2646970667358221220495023b43bd2b50f36727041904e3fcbcf77ee7aff93ea77d6f11a8b8c53a61e64736f6c63430008110033",
  "immutableReferences": {
    "10": [
      {
        "length": 32,
        "start": 532
      },
      {
        "length": 32,
        "start": 616
      }
    ]
  },
  "source": "// SPDX-License-Identifier: MIT\r\npragma solidity ^0.8.7;\r\n\r\nimport '@chainlink/contracts/src/v0.8/interfaces/VRFCoordinatorV2Interface.sol';\r\nimport '@chainlink/contracts/src/v0.8/VRFConsumerBaseV2.sol';\r\n\r\nimport \"@openzeppelin/contracts/access/Ownable.sol\";\r\n\r\ncontract VRFV2Consumer is VRFConsumerBaseV2, Ownable {\r\n    event RequestSent(uint256 requestId, uint32 numWords);\r\n    event RequestFulfilled(uint256 requestId, uint256[] randomWords);\r\n\r\n    struct RequestStatus {\r\n        bool fulfilled;\r\n        bool exists;\r\n        uint256[] randomWords;\r\n    }\r\n\r\n    mapping(uint256 => RequestStatus) public s_requests; /* requestId --> requestStatus */\r\n    VRFCoordinatorV2Interface COORDINATOR;\r\n\r\n    // Your subscription ID.\r\n    uint64 s_subscriptionId;\r\n\r\n    // past requests Id.\r\n    uint256[] public requestIds;\r\n    uint256 public lastRequestId;\r\n\r\n    // The gas lane to use, which specifies the maximum gas price to bump to.\r\n    // For a list of available gas lanes on each network,\r\n    // see https://docs.chain.link/docs/vrf/v2/subscription/supported-networks/#configurations\r\n    bytes32 keyHash;\r\n\r\n    // Depends on the number of requested values that you want sent to the\r\n    // fulfillRandomWords() function. Storing each word costs about 20,000 gas,\r\n    // so 100,000 is a safe default for this example contract. Test and adjust\r\n    // this limit based on the network that you select, the size of the request,\r\n    // and the processing of the callback request in the fulfillRandomWords()\r\n    // function.\r\n    uint32 callbackGasLimit;\r\n\r\n    // The default is 3, but you can set this higher.\r\n    uint16 requestConfirmations;\r\n\r\n    constructor(uint64 subscriptionId, address cordinatorAddress, bytes32 _keyHash)\r\n        VRFConsumerBaseV2(cordinatorAddress)\r\n    {\r\n        COORDINATOR = VRFCoordinatorV2Interface(cordinatorAddress);\r\n        s_subscriptionId = subscriptionId;\r\n        keyHash = _keyHash;\r\n        callbackGasLimit = 500000;\r\n        requestConfirmations = 3;\r\n    }\r\n\r\n    // Assumes the subscription is funded sufficiently.\r\n    function requestRandomWords(uint32 _numWords) internal returns (uint256 requestId) {\r\n        // Will revert if subscription is not set and funded.\r\n        requestId = COORDINATOR.requestRandomWords(\r\n            keyHash,\r\n            s_subscriptionId,\r\n            requestConfirmations,\r\n            callbackGasLimit,\r\n            _numWords\r\n        );\r\n        s_requests[requestId] = RequestStatus({randomWords: new uint256[](0), exists: true, fulfilled: false});\r\n        requestIds.push(requestId);\r\n        lastRequestId = requestId;\r\n        emit RequestSent(requestId, _numWords);\r\n        return requestId;\r\n    }\r\n\r\n    function fulfillRandomWords(uint256 _requestId, uint256[] memory _randomWords) internal virtual override {\r\n        require(s_requests[_requestId].exists, 'request not found');\r\n        s_requests[_requestId].fulfilled = true;\r\n        s_requests[_requestId].randomWords = _randomWords;\r\n        emit RequestFulfilled(_requestId, _randomWords);\r\n    }\r\n\r\n    function getRequestStatus(uint256 _requestId) external view returns (bool fulfilled, uint256[] memory randomWords) {\r\n        require(s_requests[_requestId].exists, 'request not found');\r\n        RequestStatus memory request = s_requests[_requestId];\r\n        return (request.fulfilled, request.randomWords);\r\n    }\r\n\r\n    function setKeyHashValue(bytes32 _keyHash) external onlyOwner {\r\n        keyHash = _keyHash;\r\n    }\r\n\r\n    function setCallBackGasLimit(uint32 _callBackGasLimit) external onlyOwner {\r\n        callbackGasLimit = _callBackGasLimit;\r\n    }\r\n\r\n    function setRequestConfirmations(uint16 _requestConfirmations) external onlyOwner {\r\n        requestConfirmations = _requestConfirmations;\r\n    }\r\n}\r\n",
  "sourcePath": "C:\\lucas_blockchain\\Projetos\\LottoCrypto\\Truffle\\contracts\\VRFV2Consumer.sol",
  "compiler": {
    "name": "solc",
    "version": "0.8.17+commit.8df45f5f.Emscripten.clang"
  },
  "schemaVersion": "3.4.10",
  "updatedAt": "2023-03-07T17:30:24.556Z",
  "devdoc": {
    "kind": "dev",
    "methods": {
      "owner()": {
        "details": "Returns the address of the current owner."
      },
      "renounceOwnership()": {
        "details": "Leaves the contract without owner. It will not be possible to call `onlyOwner` functions anymore. Can only be called by the current owner. NOTE: Renouncing ownership will leave the contract without an owner, thereby removing any functionality that is only available to the owner."
      },
      "transferOwnership(address)": {
        "details": "Transfers ownership of the contract to a new account (`newOwner`). Can only be called by the current owner."
      }
    },
    "version": 1
  },
  "userdoc": {
    "kind": "user",
    "methods": {},
    "version": 1
  }
}